{
  "_format": "hh-sol-artifact-1",
  "contractName": "Liquid",
  "sourceName": "contracts/Liquid.sol",
  "abi": [
    {
      "inputs": [],
      "stateMutability": "nonpayable",
      "type": "constructor"
    },
    {
      "inputs": [
        {
          "internalType": "address",
          "name": "",
          "type": "address"
        },
        {
          "internalType": "address",
          "name": "",
          "type": "address"
        },
        {
          "internalType": "address",
          "name": "",
          "type": "address"
        }
      ],
      "name": "Accounts",
      "outputs": [
        {
          "internalType": "uint256",
          "name": "",
          "type": "uint256"
        }
      ],
      "stateMutability": "view",
      "type": "function"
    },
    {
      "inputs": [
        {
          "internalType": "address",
          "name": "",
          "type": "address"
        },
        {
          "internalType": "address",
          "name": "",
          "type": "address"
        }
      ],
      "name": "Lpcalc",
      "outputs": [
        {
          "internalType": "uint256",
          "name": "",
          "type": "uint256"
        }
      ],
      "stateMutability": "view",
      "type": "function"
    },
    {
      "inputs": [
        {
          "internalType": "address",
          "name": "_token1",
          "type": "address"
        },
        {
          "internalType": "uint256",
          "name": "amount1",
          "type": "uint256"
        },
        {
          "internalType": "address",
          "name": "_token2",
          "type": "address"
        },
        {
          "internalType": "uint256",
          "name": "amount2",
          "type": "uint256"
        }
      ],
      "name": "calclending",
      "outputs": [
        {
          "internalType": "uint256",
          "name": "",
          "type": "uint256"
        }
      ],
      "stateMutability": "nonpayable",
      "type": "function"
    },
    {
      "inputs": [],
      "name": "checkTest",
      "outputs": [
        {
          "internalType": "uint256",
          "name": "arb1",
          "type": "uint256"
        },
        {
          "internalType": "uint256",
          "name": "asd1",
          "type": "uint256"
        },
        {
          "internalType": "uint256",
          "name": "lp",
          "type": "uint256"
        },
        {
          "internalType": "address",
          "name": "arbtoken",
          "type": "address"
        },
        {
          "internalType": "address",
          "name": "usdttoken",
          "type": "address"
        },
        {
          "internalType": "address",
          "name": "ethtoken",
          "type": "address"
        }
      ],
      "stateMutability": "view",
      "type": "function"
    },
    {
      "inputs": [],
      "name": "count3",
      "outputs": [
        {
          "internalType": "uint256",
          "name": "",
          "type": "uint256"
        }
      ],
      "stateMutability": "view",
      "type": "function"
    },
    {
      "inputs": [],
      "name": "count4",
      "outputs": [
        {
          "internalType": "uint256",
          "name": "",
          "type": "uint256"
        }
      ],
      "stateMutability": "view",
      "type": "function"
    },
    {
      "inputs": [
        {
          "internalType": "address",
          "name": "_lpaddress",
          "type": "address"
        },
        {
          "internalType": "uint256",
          "name": "_amount",
          "type": "uint256"
        },
        {
          "internalType": "address",
          "name": "_userAccount",
          "type": "address"
        },
        {
          "internalType": "address",
          "name": "_factoryAddress",
          "type": "address"
        },
        {
          "internalType": "address",
          "name": "_ASDAddress",
          "type": "address"
        }
      ],
      "name": "doRemoveLiquid",
      "outputs": [],
      "stateMutability": "nonpayable",
      "type": "function"
    },
    {
      "inputs": [
        {
          "internalType": "uint256",
          "name": "number",
          "type": "uint256"
        }
      ],
      "name": "getDigitCount",
      "outputs": [
        {
          "internalType": "uint256",
          "name": "",
          "type": "uint256"
        }
      ],
      "stateMutability": "pure",
      "type": "function"
    },
    {
      "inputs": [],
      "name": "lpcalc",
      "outputs": [
        {
          "internalType": "uint256",
          "name": "",
          "type": "uint256"
        }
      ],
      "stateMutability": "view",
      "type": "function"
    },
    {
      "inputs": [
        {
          "internalType": "address",
          "name": "_token1",
          "type": "address"
        },
        {
          "internalType": "uint256",
          "name": "amount1",
          "type": "uint256"
        },
        {
          "internalType": "address",
          "name": "_token2",
          "type": "address"
        },
        {
          "internalType": "uint256",
          "name": "amount2",
          "type": "uint256"
        },
        {
          "internalType": "address",
          "name": "_userAccount",
          "type": "address"
        },
        {
          "internalType": "address",
          "name": "_factoryAddress",
          "type": "address"
        },
        {
          "internalType": "address",
          "name": "_pairAddress",
          "type": "address"
        }
      ],
      "name": "makeLiquid",
      "outputs": [],
      "stateMutability": "nonpayable",
      "type": "function"
    },
    {
      "inputs": [],
      "name": "totalAmount",
      "outputs": [
        {
          "internalType": "uint256",
          "name": "",
          "type": "uint256"
        }
      ],
      "stateMutability": "view",
      "type": "function"
    }
  ],
  "bytecode": "0x608060405267016345785d8a0000600e5534801561001c57600080fd5b506142b18061002c6000396000f3fe608060405234801561001057600080fd5b50600436106100a95760003560e01c8063607c94f011610071578063607c94f0146101665780637b1d829c146101895780638ad3d516146101a75780638e56dfd9146101c5578063d2dcb80b146101f5578063e319be0a14610211576100a9565b80630394fbc2146100ae57806308bac402146100de5780630f5d5117146100fa5780631a39d8ef1461011857806357ce515314610136575b600080fd5b6100c860048036038101906100c3919061383d565b610241565b6040516100d591906138b3565b60405180910390f35b6100f860048036038101906100f391906138ce565b610a9e565b005b61010261198b565b60405161010f91906138b3565b60405180910390f35b610120611991565b60405161012d91906138b3565b60405180910390f35b610150600480360381019061014b9190613949565b611997565b60405161015d91906138b3565b60405180910390f35b61016e6119c9565b604051610180969594939291906139ab565b60405180910390f35b610191611a56565b60405161019e91906138b3565b60405180910390f35b6101af611a5c565b6040516101bc91906138b3565b60405180910390f35b6101df60048036038101906101da9190613a0c565b611a62565b6040516101ec91906138b3565b60405180910390f35b61020f600480360381019061020a9190613a4c565b611a87565b005b61022b60048036038101906102269190613aee565b6131a7565b60405161023891906138b3565b60405180910390f35b6000808573ffffffffffffffffffffffffffffffffffffffff166370a08231306040518263ffffffff1660e01b815260040161027d9190613b1b565b60206040518083038186803b15801561029557600080fd5b505afa1580156102a9573d6000803e3d6000fd5b505050506040513d601f19601f820116820180604052508101906102cd9190613b4b565b118015610362575060008373ffffffffffffffffffffffffffffffffffffffff166370a08231306040518263ffffffff1660e01b81526004016103109190613b1b565b60206040518083038186803b15801561032857600080fd5b505afa15801561033c573d6000803e3d6000fd5b505050506040513d601f19601f820116820180604052508101906103609190613b4b565b115b156105ec5760006103fa8673ffffffffffffffffffffffffffffffffffffffff166370a08231306040518263ffffffff1660e01b81526004016103a59190613b1b565b60206040518083038186803b1580156103bd57600080fd5b505afa1580156103d1573d6000803e3d6000fd5b505050506040513d601f19601f820116820180604052508101906103f59190613b4b565b6131a7565b9050600061048f8573ffffffffffffffffffffffffffffffffffffffff166370a08231306040518263ffffffff1660e01b815260040161043a9190613b1b565b60206040518083038186803b15801561045257600080fd5b505afa158015610466573d6000803e3d6000fd5b505050506040513d601f19601f8201168201806040525081019061048a9190613b4b565b6131a7565b90506105e381600a6104a19190613cda565b8673ffffffffffffffffffffffffffffffffffffffff166370a08231306040518263ffffffff1660e01b81526004016104da9190613b1b565b60206040518083038186803b1580156104f257600080fd5b505afa158015610506573d6000803e3d6000fd5b505050506040513d601f19601f8201168201806040525081019061052a9190613b4b565b6105349190613d54565b83600a6105419190613cda565b8973ffffffffffffffffffffffffffffffffffffffff166370a08231306040518263ffffffff1660e01b815260040161057a9190613b1b565b60206040518083038186803b15801561059257600080fd5b505afa1580156105a6573d6000803e3d6000fd5b505050506040513d601f19601f820116820180604052508101906105ca9190613b4b565b6105d49190613d54565b6105de9190613d85565b6131fe565b60068190555050505b610688848673ffffffffffffffffffffffffffffffffffffffff166370a08231306040518263ffffffff1660e01b81526004016106299190613b1b565b60206040518083038186803b15801561064157600080fd5b505afa158015610655573d6000803e3d6000fd5b505050506040513d601f19601f820116820180604052508101906106799190613b4b565b6106839190613ddf565b6131a7565b600b8190555061072a828473ffffffffffffffffffffffffffffffffffffffff166370a08231306040518263ffffffff1660e01b81526004016106cb9190613b1b565b60206040518083038186803b1580156106e357600080fd5b505afa1580156106f7573d6000803e3d6000fd5b505050506040513d601f19601f8201168201806040525081019061071b9190613b4b565b6107259190613ddf565b6131a7565b600c81905550600c54600b5410156108d157600b54600c5461074c9190613e35565b600a6107589190613cda565b600c54600a6107679190613cda565b838573ffffffffffffffffffffffffffffffffffffffff166370a08231306040518263ffffffff1660e01b81526004016107a19190613b1b565b60206040518083038186803b1580156107b957600080fd5b505afa1580156107cd573d6000803e3d6000fd5b505050506040513d601f19601f820116820180604052508101906107f19190613b4b565b6107fb9190613ddf565b6108059190613d54565b61080f9190613d85565b600b54600a61081e9190613cda565b858773ffffffffffffffffffffffffffffffffffffffff166370a08231306040518263ffffffff1660e01b81526004016108589190613b1b565b60206040518083038186803b15801561087057600080fd5b505afa158015610884573d6000803e3d6000fd5b505050506040513d601f19601f820116820180604052508101906108a89190613b4b565b6108b29190613ddf565b6108bc9190613d54565b6108c69190613d85565b600d81905550610a6f565b600c54600b541115610a6e57600c54600a6108ec9190613cda565b828473ffffffffffffffffffffffffffffffffffffffff166370a08231306040518263ffffffff1660e01b81526004016109269190613b1b565b60206040518083038186803b15801561093e57600080fd5b505afa158015610952573d6000803e3d6000fd5b505050506040513d601f19601f820116820180604052508101906109769190613b4b565b6109809190613ddf565b61098a9190613d54565b600c54600b5461099a9190613e35565b600a6109a69190613cda565b600b54600a6109b59190613cda565b868873ffffffffffffffffffffffffffffffffffffffff166370a08231306040518263ffffffff1660e01b81526004016109ef9190613b1b565b60206040518083038186803b158015610a0757600080fd5b505afa158015610a1b573d6000803e3d6000fd5b505050506040513d601f19601f82011682018060405250810190610a3f9190613b4b565b610a499190613ddf565b610a539190613d54565b610a5d9190613d85565b610a679190613d85565b600d819055505b5b6000600654610a7f600d546131fe565b610a899190613e35565b905080600a8190555080915050949350505050565b838573ffffffffffffffffffffffffffffffffffffffff166318160ddd6040518163ffffffff1660e01b815260040160206040518083038186803b158015610ae557600080fd5b505afa158015610af9573d6000803e3d6000fd5b505050506040513d601f19601f82011682018060405250810190610b1d9190613b4b565b1015610b5e576040517f08c379a0000000000000000000000000000000000000000000000000000000008152600401610b5590613ec6565b60405180910390fd5b8473ffffffffffffffffffffffffffffffffffffffff1663095ea7b383866040518363ffffffff1660e01b8152600401610b99929190613ee6565b602060405180830381600087803b158015610bb357600080fd5b505af1158015610bc7573d6000803e3d6000fd5b505050506040513d601f19601f82011682018060405250810190610beb9190613f47565b506000606485610bfb9190613d85565b9050600060075482610c0d9190613d54565b90506040518060400160405280600581526020017f4152424c50000000000000000000000000000000000000000000000000000000815250805190602001208773ffffffffffffffffffffffffffffffffffffffff166306fdde036040518163ffffffff1660e01b815260040160006040518083038186803b158015610c9257600080fd5b505afa158015610ca6573d6000803e3d6000fd5b505050506040513d6000823e3d601f19601f82011682018060405250810190610ccf91906140de565b80519060200120141561107757606481601060008a73ffffffffffffffffffffffffffffffffffffffff1673ffffffffffffffffffffffffffffffffffffffff16815260200190815260200160002060008060009054906101000a900473ffffffffffffffffffffffffffffffffffffffff1673ffffffffffffffffffffffffffffffffffffffff1673ffffffffffffffffffffffffffffffffffffffff16815260200190815260200160002054610d879190613d85565b610d919190613d54565b600881905550606481601060008a73ffffffffffffffffffffffffffffffffffffffff1673ffffffffffffffffffffffffffffffffffffffff16815260200190815260200160002060008673ffffffffffffffffffffffffffffffffffffffff1673ffffffffffffffffffffffffffffffffffffffff16815260200190815260200160002054610e219190613d85565b610e2b9190613d54565b6009819055508673ffffffffffffffffffffffffffffffffffffffff166323b872dd8686896040518463ffffffff1660e01b8152600401610e6e93929190614127565b602060405180830381600087803b158015610e8857600080fd5b505af1158015610e9c573d6000803e3d6000fd5b505050506040513d601f19601f82011682018060405250810190610ec09190613f47565b508673ffffffffffffffffffffffffffffffffffffffff16636161eb1885886040518363ffffffff1660e01b8152600401610efc929190613ee6565b600060405180830381600087803b158015610f1657600080fd5b505af1158015610f2a573d6000803e3d6000fd5b5050505060008054906101000a900473ffffffffffffffffffffffffffffffffffffffff1673ffffffffffffffffffffffffffffffffffffffff166323b872dd85876008546040518463ffffffff1660e01b8152600401610f8d93929190614127565b602060405180830381600087803b158015610fa757600080fd5b505af1158015610fbb573d6000803e3d6000fd5b505050506040513d601f19601f82011682018060405250810190610fdf9190613f47565b508273ffffffffffffffffffffffffffffffffffffffff166323b872dd85876009546040518463ffffffff1660e01b815260040161101f93929190614127565b602060405180830381600087803b15801561103957600080fd5b505af115801561104d573d6000803e3d6000fd5b505050506040513d601f19601f820116820180604052508101906110719190613f47565b50611982565b6040518060400160405280600681526020017f555344544c500000000000000000000000000000000000000000000000000000815250805190602001208773ffffffffffffffffffffffffffffffffffffffff166306fdde036040518163ffffffff1660e01b815260040160006040518083038186803b1580156110fa57600080fd5b505afa15801561110e573d6000803e3d6000fd5b505050506040513d6000823e3d601f19601f8201168201806040525081019061113791906140de565b8051906020012014156114dd576000606482601060008b73ffffffffffffffffffffffffffffffffffffffff1673ffffffffffffffffffffffffffffffffffffffff1681526020019081526020016000206000600160009054906101000a900473ffffffffffffffffffffffffffffffffffffffff1673ffffffffffffffffffffffffffffffffffffffff1673ffffffffffffffffffffffffffffffffffffffff168152602001908152602001600020546111f29190613d85565b6111fc9190613d54565b9050606482601060008b73ffffffffffffffffffffffffffffffffffffffff1673ffffffffffffffffffffffffffffffffffffffff16815260200190815260200160002060008773ffffffffffffffffffffffffffffffffffffffff1673ffffffffffffffffffffffffffffffffffffffff168152602001908152602001600020546112889190613d85565b6112929190613d54565b6009819055508773ffffffffffffffffffffffffffffffffffffffff1663095ea7b386896040518363ffffffff1660e01b81526004016112d3929190613ee6565b602060405180830381600087803b1580156112ed57600080fd5b505af1158015611301573d6000803e3d6000fd5b505050506040513d601f19601f820116820180604052508101906113259190613f47565b508773ffffffffffffffffffffffffffffffffffffffff16636161eb1886896040518363ffffffff1660e01b8152600401611361929190613ee6565b600060405180830381600087803b15801561137b57600080fd5b505af115801561138f573d6000803e3d6000fd5b50505050600160009054906101000a900473ffffffffffffffffffffffffffffffffffffffff1673ffffffffffffffffffffffffffffffffffffffff166323b872dd8688846040518463ffffffff1660e01b81526004016113f293929190614127565b602060405180830381600087803b15801561140c57600080fd5b505af1158015611420573d6000803e3d6000fd5b505050506040513d601f19601f820116820180604052508101906114449190613f47565b508373ffffffffffffffffffffffffffffffffffffffff166323b872dd86886009546040518463ffffffff1660e01b815260040161148493929190614127565b602060405180830381600087803b15801561149e57600080fd5b505af11580156114b2573d6000803e3d6000fd5b505050506040513d601f19601f820116820180604052508101906114d69190613f47565b5050611981565b6040518060400160405280600581526020017f4554484c50000000000000000000000000000000000000000000000000000000815250805190602001208773ffffffffffffffffffffffffffffffffffffffff166306fdde036040518163ffffffff1660e01b815260040160006040518083038186803b15801561156057600080fd5b505afa158015611574573d6000803e3d6000fd5b505050506040513d6000823e3d601f19601f8201168201806040525081019061159d91906140de565b805190602001201415611945576000600e5482601060008b73ffffffffffffffffffffffffffffffffffffffff1673ffffffffffffffffffffffffffffffffffffffff1681526020019081526020016000206000600260009054906101000a900473ffffffffffffffffffffffffffffffffffffffff1673ffffffffffffffffffffffffffffffffffffffff1673ffffffffffffffffffffffffffffffffffffffff168152602001908152602001600020546116599190613d85565b6116639190613d54565b9050600e5482601060008b73ffffffffffffffffffffffffffffffffffffffff1673ffffffffffffffffffffffffffffffffffffffff16815260200190815260200160002060008773ffffffffffffffffffffffffffffffffffffffff1673ffffffffffffffffffffffffffffffffffffffff168152602001908152602001600020546116f09190613d85565b6116fa9190613d54565b6009819055508773ffffffffffffffffffffffffffffffffffffffff1663095ea7b386896040518363ffffffff1660e01b815260040161173b929190613ee6565b602060405180830381600087803b15801561175557600080fd5b505af1158015611769573d6000803e3d6000fd5b505050506040513d601f19601f8201168201806040525081019061178d9190613f47565b508773ffffffffffffffffffffffffffffffffffffffff16636161eb1886896040518363ffffffff1660e01b81526004016117c9929190613ee6565b600060405180830381600087803b1580156117e357600080fd5b505af11580156117f7573d6000803e3d6000fd5b50505050600260009054906101000a900473ffffffffffffffffffffffffffffffffffffffff1673ffffffffffffffffffffffffffffffffffffffff166323b872dd8688846040518463ffffffff1660e01b815260040161185a93929190614127565b602060405180830381600087803b15801561187457600080fd5b505af1158015611888573d6000803e3d6000fd5b505050506040513d601f19601f820116820180604052508101906118ac9190613f47565b508373ffffffffffffffffffffffffffffffffffffffff166323b872dd86886009546040518463ffffffff1660e01b81526004016118ec93929190614127565b602060405180830381600087803b15801561190657600080fd5b505af115801561191a573d6000803e3d6000fd5b505050506040513d601f19601f8201168201806040525081019061193e9190613f47565b5050611980565b6040517f08c379a0000000000000000000000000000000000000000000000000000000008152600401611977906141aa565b60405180910390fd5b5b5b50505050505050565b600a5481565b600d5481565b600f60205282600052604060002060205281600052604060002060205280600052604060002060009250925050505481565b60008060008060008060085460095460075460008054906101000a900473ffffffffffffffffffffffffffffffffffffffff16600160009054906101000a900473ffffffffffffffffffffffffffffffffffffffff16600260009054906101000a900473ffffffffffffffffffffffffffffffffffffffff16955095509550955095509550909192939495565b600b5481565b600c5481565b6010602052816000526040600020602052806000526040600020600091509150505481565b6000808891508690508273ffffffffffffffffffffffffffffffffffffffff1663d1e9a5fd6040518163ffffffff1660e01b815260040160606040518083038186803b158015611ad657600080fd5b505afa158015611aea573d6000803e3d6000fd5b505050506040513d601f19601f82011682018060405250810190611b0e91906141df565b6003600060046000600560008691906101000a81548173ffffffffffffffffffffffffffffffffffffffff021916908373ffffffffffffffffffffffffffffffffffffffff1602179055508591906101000a81548173ffffffffffffffffffffffffffffffffffffffff021916908373ffffffffffffffffffffffffffffffffffffffff1602179055508491906101000a81548173ffffffffffffffffffffffffffffffffffffffff021916908373ffffffffffffffffffffffffffffffffffffffff1602179055505050508173ffffffffffffffffffffffffffffffffffffffff1663095ea7b3858a6040518363ffffffff1660e01b8152600401611c15929190613ee6565b602060405180830381600087803b158015611c2f57600080fd5b505af1158015611c43573d6000803e3d6000fd5b505050506040513d601f19601f82011682018060405250810190611c679190613f47565b508073ffffffffffffffffffffffffffffffffffffffff1663095ea7b385886040518363ffffffff1660e01b8152600401611ca3929190613ee6565b602060405180830381600087803b158015611cbd57600080fd5b505af1158015611cd1573d6000803e3d6000fd5b505050506040513d601f19601f82011682018060405250810190611cf59190613f47565b508173ffffffffffffffffffffffffffffffffffffffff166323b872dd86868b6040518463ffffffff1660e01b8152600401611d3393929190614127565b602060405180830381600087803b158015611d4d57600080fd5b505af1158015611d61573d6000803e3d6000fd5b505050506040513d601f19601f82011682018060405250810190611d859190613f47565b508073ffffffffffffffffffffffffffffffffffffffff166323b872dd8686896040518463ffffffff1660e01b8152600401611dc393929190614127565b602060405180830381600087803b158015611ddd57600080fd5b505af1158015611df1573d6000803e3d6000fd5b505050506040513d601f19601f82011682018060405250810190611e159190613f47565b506040518060400160405280600381526020017f4152420000000000000000000000000000000000000000000000000000000000815250805190602001208273ffffffffffffffffffffffffffffffffffffffff166306fdde036040518163ffffffff1660e01b815260040160006040518083038186803b158015611e9957600080fd5b505afa158015611ead573d6000803e3d6000fd5b505050506040513d6000823e3d601f19601f82011682018060405250810190611ed691906140de565b80519060200120141561248357886000806101000a81548173ffffffffffffffffffffffffffffffffffffffff021916908373ffffffffffffffffffffffffffffffffffffffff16021790555087600f60008773ffffffffffffffffffffffffffffffffffffffff1673ffffffffffffffffffffffffffffffffffffffff1681526020019081526020016000206000600360009054906101000a900473ffffffffffffffffffffffffffffffffffffffff1673ffffffffffffffffffffffffffffffffffffffff1673ffffffffffffffffffffffffffffffffffffffff16815260200190815260200160002060008b73ffffffffffffffffffffffffffffffffffffffff1673ffffffffffffffffffffffffffffffffffffffff168152602001908152602001600020600082825461200e9190613ddf565b9250508190555085600f60008773ffffffffffffffffffffffffffffffffffffffff1673ffffffffffffffffffffffffffffffffffffffff1681526020019081526020016000206000600360009054906101000a900473ffffffffffffffffffffffffffffffffffffffff1673ffffffffffffffffffffffffffffffffffffffff1673ffffffffffffffffffffffffffffffffffffffff16815260200190815260200160002060008973ffffffffffffffffffffffffffffffffffffffff1673ffffffffffffffffffffffffffffffffffffffff16815260200190815260200160002060008282546121009190613ddf565b9250508190555060006122cb8a600f60008973ffffffffffffffffffffffffffffffffffffffff1673ffffffffffffffffffffffffffffffffffffffff1681526020019081526020016000206000600360009054906101000a900473ffffffffffffffffffffffffffffffffffffffff1673ffffffffffffffffffffffffffffffffffffffff1673ffffffffffffffffffffffffffffffffffffffff16815260200190815260200160002060008d73ffffffffffffffffffffffffffffffffffffffff1673ffffffffffffffffffffffffffffffffffffffff168152602001908152602001600020548a600f60008b73ffffffffffffffffffffffffffffffffffffffff1673ffffffffffffffffffffffffffffffffffffffff1681526020019081526020016000206000600360009054906101000a900473ffffffffffffffffffffffffffffffffffffffff1673ffffffffffffffffffffffffffffffffffffffff1673ffffffffffffffffffffffffffffffffffffffff16815260200190815260200160002060008d73ffffffffffffffffffffffffffffffffffffffff1673ffffffffffffffffffffffffffffffffffffffff16815260200190815260200160002054610241565b90508860106000600360009054906101000a900473ffffffffffffffffffffffffffffffffffffffff1673ffffffffffffffffffffffffffffffffffffffff1673ffffffffffffffffffffffffffffffffffffffff16815260200190815260200160002060008c73ffffffffffffffffffffffffffffffffffffffff1673ffffffffffffffffffffffffffffffffffffffff168152602001908152602001600020600082825461237b9190613ddf565b925050819055508660106000600360009054906101000a900473ffffffffffffffffffffffffffffffffffffffff1673ffffffffffffffffffffffffffffffffffffffff1673ffffffffffffffffffffffffffffffffffffffff16815260200190815260200160002060008a73ffffffffffffffffffffffffffffffffffffffff1673ffffffffffffffffffffffffffffffffffffffff16815260200190815260200160002060008282546124309190613ddf565b925050819055506124648682600360009054906101000a900473ffffffffffffffffffffffffffffffffffffffff16613285565b80600760008282546124769190613ddf565b925050819055505061319c565b6040518060400160405280600481526020017f5553445400000000000000000000000000000000000000000000000000000000815250805190602001208273ffffffffffffffffffffffffffffffffffffffff166306fdde036040518163ffffffff1660e01b815260040160006040518083038186803b15801561250657600080fd5b505afa15801561251a573d6000803e3d6000fd5b505050506040513d6000823e3d601f19601f8201168201806040525081019061254391906140de565b805190602001201415612af15788600160006101000a81548173ffffffffffffffffffffffffffffffffffffffff021916908373ffffffffffffffffffffffffffffffffffffffff16021790555087600f60008773ffffffffffffffffffffffffffffffffffffffff1673ffffffffffffffffffffffffffffffffffffffff1681526020019081526020016000206000600460009054906101000a900473ffffffffffffffffffffffffffffffffffffffff1673ffffffffffffffffffffffffffffffffffffffff1673ffffffffffffffffffffffffffffffffffffffff16815260200190815260200160002060008b73ffffffffffffffffffffffffffffffffffffffff1673ffffffffffffffffffffffffffffffffffffffff168152602001908152602001600020600082825461267c9190613ddf565b9250508190555085600f60008773ffffffffffffffffffffffffffffffffffffffff1673ffffffffffffffffffffffffffffffffffffffff1681526020019081526020016000206000600460009054906101000a900473ffffffffffffffffffffffffffffffffffffffff1673ffffffffffffffffffffffffffffffffffffffff1673ffffffffffffffffffffffffffffffffffffffff16815260200190815260200160002060008973ffffffffffffffffffffffffffffffffffffffff1673ffffffffffffffffffffffffffffffffffffffff168152602001908152602001600020600082825461276e9190613ddf565b9250508190555060006129398a600f60008973ffffffffffffffffffffffffffffffffffffffff1673ffffffffffffffffffffffffffffffffffffffff1681526020019081526020016000206000600460009054906101000a900473ffffffffffffffffffffffffffffffffffffffff1673ffffffffffffffffffffffffffffffffffffffff1673ffffffffffffffffffffffffffffffffffffffff16815260200190815260200160002060008d73ffffffffffffffffffffffffffffffffffffffff1673ffffffffffffffffffffffffffffffffffffffff168152602001908152602001600020548a600f60008b73ffffffffffffffffffffffffffffffffffffffff1673ffffffffffffffffffffffffffffffffffffffff1681526020019081526020016000206000600460009054906101000a900473ffffffffffffffffffffffffffffffffffffffff1673ffffffffffffffffffffffffffffffffffffffff1673ffffffffffffffffffffffffffffffffffffffff16815260200190815260200160002060008d73ffffffffffffffffffffffffffffffffffffffff1673ffffffffffffffffffffffffffffffffffffffff16815260200190815260200160002054610241565b90508860106000600460009054906101000a900473ffffffffffffffffffffffffffffffffffffffff1673ffffffffffffffffffffffffffffffffffffffff1673ffffffffffffffffffffffffffffffffffffffff16815260200190815260200160002060008c73ffffffffffffffffffffffffffffffffffffffff1673ffffffffffffffffffffffffffffffffffffffff16815260200190815260200160002060008282546129e99190613ddf565b925050819055508660106000600460009054906101000a900473ffffffffffffffffffffffffffffffffffffffff1673ffffffffffffffffffffffffffffffffffffffff1673ffffffffffffffffffffffffffffffffffffffff16815260200190815260200160002060008a73ffffffffffffffffffffffffffffffffffffffff1673ffffffffffffffffffffffffffffffffffffffff1681526020019081526020016000206000828254612a9e9190613ddf565b92505081905550612ad28682600460009054906101000a900473ffffffffffffffffffffffffffffffffffffffff16613435565b8060076000828254612ae49190613ddf565b925050819055505061319b565b6040518060400160405280600381526020017f4554480000000000000000000000000000000000000000000000000000000000815250805190602001208273ffffffffffffffffffffffffffffffffffffffff166306fdde036040518163ffffffff1660e01b815260040160006040518083038186803b158015612b7457600080fd5b505afa158015612b88573d6000803e3d6000fd5b505050506040513d6000823e3d601f19601f82011682018060405250810190612bb191906140de565b80519060200120141561315f5788600260006101000a81548173ffffffffffffffffffffffffffffffffffffffff021916908373ffffffffffffffffffffffffffffffffffffffff16021790555087600f60008773ffffffffffffffffffffffffffffffffffffffff1673ffffffffffffffffffffffffffffffffffffffff1681526020019081526020016000206000600560009054906101000a900473ffffffffffffffffffffffffffffffffffffffff1673ffffffffffffffffffffffffffffffffffffffff1673ffffffffffffffffffffffffffffffffffffffff16815260200190815260200160002060008b73ffffffffffffffffffffffffffffffffffffffff1673ffffffffffffffffffffffffffffffffffffffff1681526020019081526020016000206000828254612cea9190613ddf565b9250508190555085600f60008773ffffffffffffffffffffffffffffffffffffffff1673ffffffffffffffffffffffffffffffffffffffff1681526020019081526020016000206000600560009054906101000a900473ffffffffffffffffffffffffffffffffffffffff1673ffffffffffffffffffffffffffffffffffffffff1673ffffffffffffffffffffffffffffffffffffffff16815260200190815260200160002060008973ffffffffffffffffffffffffffffffffffffffff1673ffffffffffffffffffffffffffffffffffffffff1681526020019081526020016000206000828254612ddc9190613ddf565b925050819055506000612fa78a600f60008973ffffffffffffffffffffffffffffffffffffffff1673ffffffffffffffffffffffffffffffffffffffff1681526020019081526020016000206000600560009054906101000a900473ffffffffffffffffffffffffffffffffffffffff1673ffffffffffffffffffffffffffffffffffffffff1673ffffffffffffffffffffffffffffffffffffffff16815260200190815260200160002060008d73ffffffffffffffffffffffffffffffffffffffff1673ffffffffffffffffffffffffffffffffffffffff168152602001908152602001600020548a600f60008b73ffffffffffffffffffffffffffffffffffffffff1673ffffffffffffffffffffffffffffffffffffffff1681526020019081526020016000206000600560009054906101000a900473ffffffffffffffffffffffffffffffffffffffff1673ffffffffffffffffffffffffffffffffffffffff1673ffffffffffffffffffffffffffffffffffffffff16815260200190815260200160002060008d73ffffffffffffffffffffffffffffffffffffffff1673ffffffffffffffffffffffffffffffffffffffff16815260200190815260200160002054610241565b90508860106000600560009054906101000a900473ffffffffffffffffffffffffffffffffffffffff1673ffffffffffffffffffffffffffffffffffffffff1673ffffffffffffffffffffffffffffffffffffffff16815260200190815260200160002060008c73ffffffffffffffffffffffffffffffffffffffff1673ffffffffffffffffffffffffffffffffffffffff16815260200190815260200160002060008282546130579190613ddf565b925050819055508660106000600560009054906101000a900473ffffffffffffffffffffffffffffffffffffffff1673ffffffffffffffffffffffffffffffffffffffff1673ffffffffffffffffffffffffffffffffffffffff16815260200190815260200160002060008a73ffffffffffffffffffffffffffffffffffffffff1673ffffffffffffffffffffffffffffffffffffffff168152602001908152602001600020600082825461310c9190613ddf565b925050819055506131408682600560009054906101000a900473ffffffffffffffffffffffffffffffffffffffff166135e5565b80600760008282546131529190613ddf565b925050819055505061319a565b6040517f08c379a0000000000000000000000000000000000000000000000000000000008152600401613191906141aa565b60405180910390fd5b5b5b505050505050505050565b6000808214156131ba57600190506131f9565b60005b60008311156131e85780806131d190614232565b915050600a836131e19190613d54565b92506131bd565b6001816131f59190613e35565b9150505b919050565b6000808214156132115760009050613280565b600382116132225760019050613280565b600060026001846132339190613ddf565b61323d9190613d54565b905060008390505b8082101561327a57819050600282838661325f9190613d54565b6132699190613ddf565b6132739190613d54565b9150613245565b80925050505b919050565b8073ffffffffffffffffffffffffffffffffffffffff1663a0712d68836040518263ffffffff1660e01b81526004016132be91906138b3565b600060405180830381600087803b1580156132d857600080fd5b505af11580156132ec573d6000803e3d6000fd5b505050508073ffffffffffffffffffffffffffffffffffffffff1663095ea7b384846040518363ffffffff1660e01b815260040161332b929190613ee6565b602060405180830381600087803b15801561334557600080fd5b505af1158015613359573d6000803e3d6000fd5b505050506040513d601f19601f8201168201806040525081019061337d9190613f47565b508073ffffffffffffffffffffffffffffffffffffffff166323b872dd600360009054906101000a900473ffffffffffffffffffffffffffffffffffffffff1685856040518463ffffffff1660e01b81526004016133dd93929190614127565b602060405180830381600087803b1580156133f757600080fd5b505af115801561340b573d6000803e3d6000fd5b505050506040513d601f19601f8201168201806040525081019061342f9190613f47565b50505050565b8073ffffffffffffffffffffffffffffffffffffffff1663a0712d68836040518263ffffffff1660e01b815260040161346e91906138b3565b600060405180830381600087803b15801561348857600080fd5b505af115801561349c573d6000803e3d6000fd5b505050508073ffffffffffffffffffffffffffffffffffffffff1663095ea7b384846040518363ffffffff1660e01b81526004016134db929190613ee6565b602060405180830381600087803b1580156134f557600080fd5b505af1158015613509573d6000803e3d6000fd5b505050506040513d601f19601f8201168201806040525081019061352d9190613f47565b508073ffffffffffffffffffffffffffffffffffffffff166323b872dd600460009054906101000a900473ffffffffffffffffffffffffffffffffffffffff1685856040518463ffffffff1660e01b815260040161358d93929190614127565b602060405180830381600087803b1580156135a757600080fd5b505af11580156135bb573d6000803e3d6000fd5b505050506040513d601f19601f820116820180604052508101906135df9190613f47565b50505050565b8073ffffffffffffffffffffffffffffffffffffffff1663a0712d68836040518263ffffffff1660e01b815260040161361e91906138b3565b600060405180830381600087803b15801561363857600080fd5b505af115801561364c573d6000803e3d6000fd5b505050508073ffffffffffffffffffffffffffffffffffffffff1663095ea7b384846040518363ffffffff1660e01b815260040161368b929190613ee6565b602060405180830381600087803b1580156136a557600080fd5b505af11580156136b9573d6000803e3d6000fd5b505050506040513d601f19601f820116820180604052508101906136dd9190613f47565b508073ffffffffffffffffffffffffffffffffffffffff166323b872dd600560009054906101000a900473ffffffffffffffffffffffffffffffffffffffff1685856040518463ffffffff1660e01b815260040161373d93929190614127565b602060405180830381600087803b15801561375757600080fd5b505af115801561376b573d6000803e3d6000fd5b505050506040513d601f19601f8201168201806040525081019061378f9190613f47565b50505050565b6000604051905090565b600080fd5b600080fd5b600073ffffffffffffffffffffffffffffffffffffffff82169050919050565b60006137d4826137a9565b9050919050565b6137e4816137c9565b81146137ef57600080fd5b50565b600081359050613801816137db565b92915050565b6000819050919050565b61381a81613807565b811461382557600080fd5b50565b60008135905061383781613811565b92915050565b600080600080608085870312156138575761385661379f565b5b6000613865878288016137f2565b945050602061387687828801613828565b9350506040613887878288016137f2565b925050606061389887828801613828565b91505092959194509250565b6138ad81613807565b82525050565b60006020820190506138c860008301846138a4565b92915050565b600080600080600060a086880312156138ea576138e961379f565b5b60006138f8888289016137f2565b955050602061390988828901613828565b945050604061391a888289016137f2565b935050606061392b888289016137f2565b925050608061393c888289016137f2565b9150509295509295909350565b6000806000606084860312156139625761396161379f565b5b6000613970868287016137f2565b9350506020613981868287016137f2565b9250506040613992868287016137f2565b9150509250925092565b6139a5816137c9565b82525050565b600060c0820190506139c060008301896138a4565b6139cd60208301886138a4565b6139da60408301876138a4565b6139e7606083018661399c565b6139f4608083018561399c565b613a0160a083018461399c565b979650505050505050565b60008060408385031215613a2357613a2261379f565b5b6000613a31858286016137f2565b9250506020613a42858286016137f2565b9150509250929050565b600080600080600080600060e0888a031215613a6b57613a6a61379f565b5b6000613a798a828b016137f2565b9750506020613a8a8a828b01613828565b9650506040613a9b8a828b016137f2565b9550506060613aac8a828b01613828565b9450506080613abd8a828b016137f2565b93505060a0613ace8a828b016137f2565b92505060c0613adf8a828b016137f2565b91505092959891949750929550565b600060208284031215613b0457613b0361379f565b5b6000613b1284828501613828565b91505092915050565b6000602082019050613b30600083018461399c565b92915050565b600081519050613b4581613811565b92915050565b600060208284031215613b6157613b6061379f565b5b6000613b6f84828501613b36565b91505092915050565b7f4e487b7100000000000000000000000000000000000000000000000000000000600052601160045260246000fd5b60008160011c9050919050565b6000808291508390505b6001851115613bfe57808604811115613bda57613bd9613b78565b5b6001851615613be95780820291505b8081029050613bf785613ba7565b9450613bbe565b94509492505050565b600082613c175760019050613cd3565b81613c255760009050613cd3565b8160018114613c3b5760028114613c4557613c74565b6001915050613cd3565b60ff841115613c5757613c56613b78565b5b8360020a915084821115613c6e57613c6d613b78565b5b50613cd3565b5060208310610133831016604e8410600b8410161715613ca95782820a905083811115613ca457613ca3613b78565b5b613cd3565b613cb68484846001613bb4565b92509050818404811115613ccd57613ccc613b78565b5b81810290505b9392505050565b6000613ce582613807565b9150613cf083613807565b9250613d1d7fffffffffffffffffffffffffffffffffffffffffffffffffffffffffffffffff8484613c07565b905092915050565b7f4e487b7100000000000000000000000000000000000000000000000000000000600052601260045260246000fd5b6000613d5f82613807565b9150613d6a83613807565b925082613d7a57613d79613d25565b5b828204905092915050565b6000613d9082613807565b9150613d9b83613807565b9250817fffffffffffffffffffffffffffffffffffffffffffffffffffffffffffffffff0483118215151615613dd457613dd3613b78565b5b828202905092915050565b6000613dea82613807565b9150613df583613807565b9250827fffffffffffffffffffffffffffffffffffffffffffffffffffffffffffffffff03821115613e2a57613e29613b78565b5b828201905092915050565b6000613e4082613807565b9150613e4b83613807565b925082821015613e5e57613e5d613b78565b5b828203905092915050565b600082825260208201905092915050565b7f696e73756666696369656e74206c7020616d6f756e7400000000000000000000600082015250565b6000613eb0601683613e69565b9150613ebb82613e7a565b602082019050919050565b60006020820190508181036000830152613edf81613ea3565b9050919050565b6000604082019050613efb600083018561399c565b613f0860208301846138a4565b9392505050565b60008115159050919050565b613f2481613f0f565b8114613f2f57600080fd5b50565b600081519050613f4181613f1b565b92915050565b600060208284031215613f5d57613f5c61379f565b5b6000613f6b84828501613f32565b91505092915050565b600080fd5b600080fd5b6000601f19601f8301169050919050565b7f4e487b7100000000000000000000000000000000000000000000000000000000600052604160045260246000fd5b613fc782613f7e565b810181811067ffffffffffffffff82111715613fe657613fe5613f8f565b5b80604052505050565b6000613ff9613795565b90506140058282613fbe565b919050565b600067ffffffffffffffff82111561402557614024613f8f565b5b61402e82613f7e565b9050602081019050919050565b60005b8381101561405957808201518184015260208101905061403e565b83811115614068576000848401525b50505050565b600061408161407c8461400a565b613fef565b90508281526020810184848401111561409d5761409c613f79565b5b6140a884828561403b565b509392505050565b600082601f8301126140c5576140c4613f74565b5b81516140d584826020860161406e565b91505092915050565b6000602082840312156140f4576140f361379f565b5b600082015167ffffffffffffffff811115614112576141116137a4565b5b61411e848285016140b0565b91505092915050565b600060608201905061413c600083018661399c565b614149602083018561399c565b61415660408301846138a4565b949350505050565b7f556e737570706f7274656420746f6b656e000000000000000000000000000000600082015250565b6000614194601183613e69565b915061419f8261415e565b602082019050919050565b600060208201905081810360008301526141c381614187565b9050919050565b6000815190506141d9816137db565b92915050565b6000806000606084860312156141f8576141f761379f565b5b6000614206868287016141ca565b9350506020614217868287016141ca565b9250506040614228868287016141ca565b9150509250925092565b600061423d82613807565b91507fffffffffffffffffffffffffffffffffffffffffffffffffffffffffffffffff8214156142705761426f613b78565b5b60018201905091905056fea2646970667358221220acf8d3e8d674ce93649a1e89ec2353c4bfb4dcda27a33c401a5482d7ae0a509a64736f6c63430008090033",
  "linkReferences": {},
  "deployedLinkReferences": {}
}