{
  "_format": "hh-sol-artifact-1",
  "contractName": "Factory_v1",
  "sourceName": "contracts/Factory_v1.sol",
  "abi": [
    {
      "inputs": [
        {
          "internalType": "address",
          "name": "_deployAddress",
          "type": "address"
        },
        {
          "internalType": "address",
          "name": "_sDeployAddress",
          "type": "address"
        },
        {
          "internalType": "address",
          "name": "_ETHtokenAddress",
          "type": "address"
        }
      ],
      "stateMutability": "nonpayable",
      "type": "constructor"
    },
    {
      "anonymous": false,
      "inputs": [
        {
          "indexed": false,
          "internalType": "uint256",
          "name": "tokenTotalLp",
          "type": "uint256"
        }
      ],
      "name": "CalcLendingEvent",
      "type": "event"
    },
    {
      "inputs": [],
      "name": "ARBtokenAddress",
      "outputs": [
        {
          "internalType": "address",
          "name": "",
          "type": "address"
        }
      ],
      "stateMutability": "view",
      "type": "function"
    },
    {
      "inputs": [],
      "name": "ASDtokenAddress",
      "outputs": [
        {
          "internalType": "address",
          "name": "",
          "type": "address"
        }
      ],
      "stateMutability": "view",
      "type": "function"
    },
    {
      "inputs": [],
      "name": "ArbLpLv",
      "outputs": [
        {
          "internalType": "uint256",
          "name": "",
          "type": "uint256"
        }
      ],
      "stateMutability": "view",
      "type": "function"
    },
    {
      "inputs": [],
      "name": "ArbLpaddress",
      "outputs": [
        {
          "internalType": "address",
          "name": "",
          "type": "address"
        }
      ],
      "stateMutability": "view",
      "type": "function"
    },
    {
      "inputs": [],
      "name": "ArbpoolLv",
      "outputs": [
        {
          "internalType": "uint256",
          "name": "",
          "type": "uint256"
        }
      ],
      "stateMutability": "view",
      "type": "function"
    },
    {
      "inputs": [],
      "name": "ETHtokenAddress",
      "outputs": [
        {
          "internalType": "address",
          "name": "",
          "type": "address"
        }
      ],
      "stateMutability": "view",
      "type": "function"
    },
    {
      "inputs": [],
      "name": "EthLpLv",
      "outputs": [
        {
          "internalType": "uint256",
          "name": "",
          "type": "uint256"
        }
      ],
      "stateMutability": "view",
      "type": "function"
    },
    {
      "inputs": [],
      "name": "EthLpaddress",
      "outputs": [
        {
          "internalType": "address",
          "name": "",
          "type": "address"
        }
      ],
      "stateMutability": "view",
      "type": "function"
    },
    {
      "inputs": [],
      "name": "EthpoolLv",
      "outputs": [
        {
          "internalType": "uint256",
          "name": "",
          "type": "uint256"
        }
      ],
      "stateMutability": "view",
      "type": "function"
    },
    {
      "inputs": [
        {
          "internalType": "address",
          "name": "_differLptoken",
          "type": "address"
        },
        {
          "internalType": "uint256",
          "name": "_amount",
          "type": "uint256"
        },
        {
          "internalType": "uint256",
          "name": "month",
          "type": "uint256"
        }
      ],
      "name": "LpStaking",
      "outputs": [],
      "stateMutability": "nonpayable",
      "type": "function"
    },
    {
      "inputs": [
        {
          "internalType": "address",
          "name": "",
          "type": "address"
        }
      ],
      "name": "LvContents",
      "outputs": [
        {
          "internalType": "uint256",
          "name": "poolLv",
          "type": "uint256"
        },
        {
          "internalType": "uint256",
          "name": "LptokenLv",
          "type": "uint256"
        }
      ],
      "stateMutability": "view",
      "type": "function"
    },
    {
      "inputs": [],
      "name": "USDTtokenAddress",
      "outputs": [
        {
          "internalType": "address",
          "name": "",
          "type": "address"
        }
      ],
      "stateMutability": "view",
      "type": "function"
    },
    {
      "inputs": [],
      "name": "UsdtLpLv",
      "outputs": [
        {
          "internalType": "uint256",
          "name": "",
          "type": "uint256"
        }
      ],
      "stateMutability": "view",
      "type": "function"
    },
    {
      "inputs": [],
      "name": "UsdtLpaddress",
      "outputs": [
        {
          "internalType": "address",
          "name": "",
          "type": "address"
        }
      ],
      "stateMutability": "view",
      "type": "function"
    },
    {
      "inputs": [],
      "name": "UsdtpoolLv",
      "outputs": [
        {
          "internalType": "uint256",
          "name": "",
          "type": "uint256"
        }
      ],
      "stateMutability": "view",
      "type": "function"
    },
    {
      "inputs": [],
      "name": "VASDtokenAddress",
      "outputs": [
        {
          "internalType": "address",
          "name": "",
          "type": "address"
        }
      ],
      "stateMutability": "view",
      "type": "function"
    },
    {
      "inputs": [
        {
          "internalType": "address",
          "name": "_differentToken",
          "type": "address"
        },
        {
          "internalType": "uint256",
          "name": "_amount1",
          "type": "uint256"
        },
        {
          "internalType": "address",
          "name": "_AsdToken",
          "type": "address"
        },
        {
          "internalType": "uint256",
          "name": "_amount2",
          "type": "uint256"
        }
      ],
      "name": "addLiquid_1",
      "outputs": [],
      "stateMutability": "nonpayable",
      "type": "function"
    },
    {
      "inputs": [],
      "name": "backAmount",
      "outputs": [
        {
          "internalType": "uint256",
          "name": "",
          "type": "uint256"
        }
      ],
      "stateMutability": "view",
      "type": "function"
    },
    {
      "inputs": [],
      "name": "buyToken",
      "outputs": [],
      "stateMutability": "payable",
      "type": "function"
    },
    {
      "inputs": [
        {
          "internalType": "address",
          "name": "_randomAddress",
          "type": "address"
        }
      ],
      "name": "checkLptoken",
      "outputs": [
        {
          "internalType": "uint256",
          "name": "",
          "type": "uint256"
        }
      ],
      "stateMutability": "view",
      "type": "function"
    },
    {
      "inputs": [
        {
          "internalType": "address",
          "name": "_differentToken",
          "type": "address"
        },
        {
          "internalType": "address",
          "name": "_AsdToken",
          "type": "address"
        }
      ],
      "name": "createPool",
      "outputs": [],
      "stateMutability": "nonpayable",
      "type": "function"
    },
    {
      "inputs": [],
      "name": "factoryAddress",
      "outputs": [
        {
          "internalType": "address",
          "name": "",
          "type": "address"
        }
      ],
      "stateMutability": "view",
      "type": "function"
    },
    {
      "inputs": [],
      "name": "factoryLevel",
      "outputs": [
        {
          "internalType": "uint256",
          "name": "",
          "type": "uint256"
        }
      ],
      "stateMutability": "view",
      "type": "function"
    },
    {
      "inputs": [],
      "name": "isPossible",
      "outputs": [
        {
          "internalType": "bool",
          "name": "",
          "type": "bool"
        }
      ],
      "stateMutability": "view",
      "type": "function"
    },
    {
      "inputs": [],
      "name": "liquidAddress",
      "outputs": [
        {
          "internalType": "address",
          "name": "",
          "type": "address"
        }
      ],
      "stateMutability": "view",
      "type": "function"
    },
    {
      "inputs": [],
      "name": "pairAddress",
      "outputs": [
        {
          "internalType": "address",
          "name": "",
          "type": "address"
        }
      ],
      "stateMutability": "view",
      "type": "function"
    },
    {
      "inputs": [],
      "name": "poolAddress",
      "outputs": [
        {
          "internalType": "address",
          "name": "",
          "type": "address"
        }
      ],
      "stateMutability": "view",
      "type": "function"
    },
    {
      "inputs": [
        {
          "internalType": "address",
          "name": "_Lptoken",
          "type": "address"
        },
        {
          "internalType": "uint256",
          "name": "_level",
          "type": "uint256"
        }
      ],
      "name": "poolLvup",
      "outputs": [],
      "stateMutability": "nonpayable",
      "type": "function"
    },
    {
      "inputs": [
        {
          "internalType": "address",
          "name": "_ETHtokenAddress",
          "type": "address"
        },
        {
          "internalType": "uint256",
          "name": "_amount",
          "type": "uint256"
        }
      ],
      "name": "refundToken",
      "outputs": [],
      "stateMutability": "nonpayable",
      "type": "function"
    },
    {
      "inputs": [],
      "name": "stakingAddress",
      "outputs": [
        {
          "internalType": "address",
          "name": "",
          "type": "address"
        }
      ],
      "stateMutability": "view",
      "type": "function"
    },
    {
      "inputs": [],
      "name": "swapAddress",
      "outputs": [
        {
          "internalType": "address",
          "name": "",
          "type": "address"
        }
      ],
      "stateMutability": "view",
      "type": "function"
    },
    {
      "inputs": [
        {
          "internalType": "address",
          "name": "_diffrentToken",
          "type": "address"
        },
        {
          "internalType": "address",
          "name": "_AsdToken",
          "type": "address"
        },
        {
          "internalType": "uint256",
          "name": "_amount",
          "type": "uint256"
        }
      ],
      "name": "swapToken",
      "outputs": [],
      "stateMutability": "nonpayable",
      "type": "function"
    },
    {
      "inputs": [
        {
          "internalType": "address",
          "name": "_Lptoken",
          "type": "address"
        },
        {
          "internalType": "uint256",
          "name": "_level",
          "type": "uint256"
        }
      ],
      "name": "tokenLvManagement",
      "outputs": [],
      "stateMutability": "nonpayable",
      "type": "function"
    },
    {
      "inputs": [
        {
          "internalType": "address",
          "name": "_differLpToken",
          "type": "address"
        },
        {
          "internalType": "uint256",
          "name": "_amount",
          "type": "uint256"
        },
        {
          "internalType": "address",
          "name": "_AsdToken",
          "type": "address"
        }
      ],
      "name": "withDrawLiquid",
      "outputs": [],
      "stateMutability": "nonpayable",
      "type": "function"
    },
    {
      "inputs": [],
      "name": "withDrawStaking",
      "outputs": [],
      "stateMutability": "nonpayable",
      "type": "function"
    }
  ],
  "bytecode": "0x60806040523480156200001157600080fd5b5060405162005108380380620051088339818101604052810190620000379190620004ec565b30600260006101000a81548173ffffffffffffffffffffffffffffffffffffffff021916908373ffffffffffffffffffffffffffffffffffffffff160217905550828282604051620000899062000474565b620000979392919062000559565b604051809103906000f080158015620000b4573d6000803e3d6000fd5b50601760016101000a81548173ffffffffffffffffffffffffffffffffffffffff021916908373ffffffffffffffffffffffffffffffffffffffff160217905550601760019054906101000a900473ffffffffffffffffffffffffffffffffffffffff16600b60006101000a81548173ffffffffffffffffffffffffffffffffffffffff021916908373ffffffffffffffffffffffffffffffffffffffff1602179055508173ffffffffffffffffffffffffffffffffffffffff16639d76ea586040518163ffffffff1660e01b815260040160206040518083038186803b1580156200019f57600080fd5b505afa158015620001b4573d6000803e3d6000fd5b505050506040513d601f19601f82011682018060405250810190620001da919062000596565b600760006101000a81548173ffffffffffffffffffffffffffffffffffffffff021916908373ffffffffffffffffffffffffffffffffffffffff1602179055508273ffffffffffffffffffffffffffffffffffffffff1663ee136a566040518163ffffffff1660e01b815260040160606040518083038186803b1580156200026157600080fd5b505afa15801562000276573d6000803e3d6000fd5b505050506040513d601f19601f820116820180604052508101906200029c9190620004ec565b6008600060096000600a60008691906101000a81548173ffffffffffffffffffffffffffffffffffffffff021916908373ffffffffffffffffffffffffffffffffffffffff1602179055508591906101000a81548173ffffffffffffffffffffffffffffffffffffffff021916908373ffffffffffffffffffffffffffffffffffffffff1602179055508491906101000a81548173ffffffffffffffffffffffffffffffffffffffff021916908373ffffffffffffffffffffffffffffffffffffffff1602179055505050508173ffffffffffffffffffffffffffffffffffffffff1663b470e8e86040518163ffffffff1660e01b815260040160206040518083038186803b158015620003af57600080fd5b505afa158015620003c4573d6000803e3d6000fd5b505050506040513d601f19601f82011682018060405250810190620003ea919062000596565b600c60006101000a81548173ffffffffffffffffffffffffffffffffffffffff021916908373ffffffffffffffffffffffffffffffffffffffff16021790555080600560006101000a81548173ffffffffffffffffffffffffffffffffffffffff021916908373ffffffffffffffffffffffffffffffffffffffff160217905550505050620005c8565b6120ac806200305c83390190565b600080fd5b600073ffffffffffffffffffffffffffffffffffffffff82169050919050565b6000620004b48262000487565b9050919050565b620004c681620004a7565b8114620004d257600080fd5b50565b600081519050620004e681620004bb565b92915050565b60008060006060848603121562000508576200050762000482565b5b60006200051886828701620004d5565b93505060206200052b86828701620004d5565b92505060406200053e86828701620004d5565b9150509250925092565b6200055381620004a7565b82525050565b600060608201905062000570600083018662000548565b6200057f602083018562000548565b6200058e604083018462000548565b949350505050565b600060208284031215620005af57620005ae62000482565b5b6000620005bf84828501620004d5565b91505092915050565b612a8480620005d86000396000f3fe6080604052600436106102045760003560e01c806373da261811610118578063aca0a592116100a0578063da7e05821161006f578063da7e0582146106e4578063e34336151461070f578063e41e06b614610738578063ebcde5f314610761578063ff7698c51461078c57610204565b8063aca0a5921461063a578063b513af5814610665578063cfcad86914610690578063d7b4be24146106b957610204565b8063966dae0e116100e7578063966dae0e146105745780639a335b201461059f578063a4821719146105c8578063a4a22844146105d2578063a8b089821461060f57610204565b806373da2618146104de5780637afb892e1461050757806380f6d7821461053257806393924d3c1461055d57610204565b80634627cf861161019b5780635ced16d21161016a5780635ced16d2146104095780635ec976b91461043457806360564f361461045f5780636f056b991461048a57806371b881b7146104b357610204565b80634627cf861461035d5780634713b78414610388578063492f924f146103b35780634aa006e0146103de57610204565b80633d1b719f116101d75780633d1b719f146102b35780633f2699d0146102de578063436d41721461030757806343d537ce1461033257610204565b80630c0a763014610209578063169f97ae146102325780631755ff211461025d5780631d15546d14610288575b600080fd5b34801561021557600080fd5b50610230600480360381019061022b919061207b565b6107ca565b005b34801561023e57600080fd5b5061024761088c565b60405161025491906120dd565b60405180910390f35b34801561026957600080fd5b506102726108b2565b60405161027f91906120dd565b60405180910390f35b34801561029457600080fd5b5061029d6108d8565b6040516102aa91906120dd565b60405180910390f35b3480156102bf57600080fd5b506102c86108fe565b6040516102d591906120dd565b60405180910390f35b3480156102ea57600080fd5b50610305600480360381019061030091906120f8565b610924565b005b34801561031357600080fd5b5061031c610c68565b6040516103299190612147565b60405180910390f35b34801561033e57600080fd5b50610347610c6e565b6040516103549190612147565b60405180910390f35b34801561036957600080fd5b50610372610c74565b60405161037f9190612147565b60405180910390f35b34801561039457600080fd5b5061039d610c7a565b6040516103aa91906120dd565b60405180910390f35b3480156103bf57600080fd5b506103c8610ca0565b6040516103d59190612147565b60405180910390f35b3480156103ea57600080fd5b506103f3610ca6565b6040516104009190612147565b60405180910390f35b34801561041557600080fd5b5061041e610cac565b60405161042b91906120dd565b60405180910390f35b34801561044057600080fd5b50610449610cd2565b6040516104569190612147565b60405180910390f35b34801561046b57600080fd5b50610474610cd8565b6040516104819190612147565b60405180910390f35b34801561049657600080fd5b506104b160048036038101906104ac91906120f8565b610cde565b005b3480156104bf57600080fd5b506104c8610f3f565b6040516104d591906120dd565b60405180910390f35b3480156104ea57600080fd5b5061050560048036038101906105009190612162565b610f65565b005b34801561051357600080fd5b5061051c61102a565b60405161052991906121e4565b60405180910390f35b34801561053e57600080fd5b5061054761103d565b60405161055491906120dd565b60405180910390f35b34801561056957600080fd5b50610572611063565b005b34801561058057600080fd5b5061058961111c565b60405161059691906120dd565b60405180910390f35b3480156105ab57600080fd5b506105c660048036038101906105c191906120f8565b611142565b005b6105d0611486565b005b3480156105de57600080fd5b506105f960048036038101906105f491906121ff565b61155f565b6040516106069190612147565b60405180910390f35b34801561061b57600080fd5b506106246115f6565b60405161063191906120dd565b60405180910390f35b34801561064657600080fd5b5061064f61161c565b60405161065c9190612147565b60405180910390f35b34801561067157600080fd5b5061067a611622565b60405161068791906120dd565b60405180910390f35b34801561069c57600080fd5b506106b760048036038101906106b2919061222c565b611648565b005b3480156106c557600080fd5b506106ce6117ff565b6040516106db91906120dd565b60405180910390f35b3480156106f057600080fd5b506106f9611825565b60405161070691906120dd565b60405180910390f35b34801561071b57600080fd5b506107366004803603810190610731919061227f565b61184b565b005b34801561074457600080fd5b5061075f600480360381019061075a91906122bf565b611eac565b005b34801561076d57600080fd5b50610776611f6e565b60405161078391906120dd565b60405180910390f35b34801561079857600080fd5b506107b360048036038101906107ae91906121ff565b611f94565b6040516107c1929190612312565b60405180910390f35b6000339050601760019054906101000a900473ffffffffffffffffffffffffffffffffffffffff1673ffffffffffffffffffffffffffffffffffffffff1663080a14f4858584600260009054906101000a900473ffffffffffffffffffffffffffffffffffffffff16876040518663ffffffff1660e01b815260040161085495949392919061233b565b600060405180830381600087803b15801561086e57600080fd5b505af1158015610882573d6000803e3d6000fd5b5050505050505050565b600f60009054906101000a900473ffffffffffffffffffffffffffffffffffffffff1681565b600b60009054906101000a900473ffffffffffffffffffffffffffffffffffffffff1681565b600360009054906101000a900473ffffffffffffffffffffffffffffffffffffffff1681565b600560009054906101000a900473ffffffffffffffffffffffffffffffffffffffff1681565b60008273ffffffffffffffffffffffffffffffffffffffff166306fdde036040518163ffffffff1660e01b815260040160006040518083038186803b15801561096c57600080fd5b505afa158015610980573d6000803e3d6000fd5b505050506040513d6000823e3d601f19601f820116820180604052508101906109a991906124f8565b90506109ea816040518060400160405280600581526020017f4152424c50000000000000000000000000000000000000000000000000000000815250611fb8565b15610a6457816010819055508160186000600d60009054906101000a900473ffffffffffffffffffffffffffffffffffffffff1673ffffffffffffffffffffffffffffffffffffffff1673ffffffffffffffffffffffffffffffffffffffff16815260200190815260200160002060000181905550610bd4565b610aa3816040518060400160405280600681526020017f555344544c500000000000000000000000000000000000000000000000000000815250611fb8565b15610b1d57816012819055508160186000600e60009054906101000a900473ffffffffffffffffffffffffffffffffffffffff1673ffffffffffffffffffffffffffffffffffffffff1673ffffffffffffffffffffffffffffffffffffffff16815260200190815260200160002060000181905550610bd3565b610b5c816040518060400160405280600581526020017f4554484c50000000000000000000000000000000000000000000000000000000815250611fb8565b15610bd257816014819055508160186000600f60009054906101000a900473ffffffffffffffffffffffffffffffffffffffff1673ffffffffffffffffffffffffffffffffffffffff1673ffffffffffffffffffffffffffffffffffffffff168152602001908152602001600020600001819055505b5b5b600860009054906101000a900473ffffffffffffffffffffffffffffffffffffffff1673ffffffffffffffffffffffffffffffffffffffff1663c41a2e1f84846040518363ffffffff1660e01b8152600401610c31929190612541565b600060405180830381600087803b158015610c4b57600080fd5b505af1158015610c5f573d6000803e3d6000fd5b50505050505050565b60155481565b60105481565b60115481565b600960009054906101000a900473ffffffffffffffffffffffffffffffffffffffff1681565b60005481565b60135481565b600e60009054906101000a900473ffffffffffffffffffffffffffffffffffffffff1681565b60125481565b60165481565b600560009054906101000a900473ffffffffffffffffffffffffffffffffffffffff1673ffffffffffffffffffffffffffffffffffffffff168273ffffffffffffffffffffffffffffffffffffffff1614610d6e576040517f08c379a0000000000000000000000000000000000000000000000000000000008152600401610d65906125c7565b60405180910390fd5b60008273ffffffffffffffffffffffffffffffffffffffff166370a08231336040518263ffffffff1660e01b8152600401610da991906120dd565b60206040518083038186803b158015610dc157600080fd5b505afa158015610dd5573d6000803e3d6000fd5b505050506040513d601f19601f82011682018060405250810190610df991906125fc565b905081811015610e3e576040517f08c379a0000000000000000000000000000000000000000000000000000000008152600401610e3590612675565b60405180910390fd5b8273ffffffffffffffffffffffffffffffffffffffff16636161eb1833846040518363ffffffff1660e01b8152600401610e79929190612541565b600060405180830381600087803b158015610e9357600080fd5b505af1158015610ea7573d6000803e3d6000fd5b50505050601760019054906101000a900473ffffffffffffffffffffffffffffffffffffffff1673ffffffffffffffffffffffffffffffffffffffff16638e54e40d33846040518363ffffffff1660e01b8152600401610f089291906126b6565b600060405180830381600087803b158015610f2257600080fd5b505af1158015610f36573d6000803e3d6000fd5b50505050505050565b600460009054906101000a900473ffffffffffffffffffffffffffffffffffffffff1681565b6000339050601760019054906101000a900473ffffffffffffffffffffffffffffffffffffffff1673ffffffffffffffffffffffffffffffffffffffff1663caadbea08686868686600260009054906101000a900473ffffffffffffffffffffffffffffffffffffffff166040518763ffffffff1660e01b8152600401610ff1969594939291906126df565b600060405180830381600087803b15801561100b57600080fd5b505af115801561101f573d6000803e3d6000fd5b505050505050505050565b601760009054906101000a900460ff1681565b600a60009054906101000a900473ffffffffffffffffffffffffffffffffffffffff1681565b6000339050601760019054906101000a900473ffffffffffffffffffffffffffffffffffffffff1673ffffffffffffffffffffffffffffffffffffffff16639e271cec82600260009054906101000a900473ffffffffffffffffffffffffffffffffffffffff166040518363ffffffff1660e01b81526004016110e7929190612740565b600060405180830381600087803b15801561110157600080fd5b505af1158015611115573d6000803e3d6000fd5b5050505050565b600260009054906101000a900473ffffffffffffffffffffffffffffffffffffffff1681565b60008273ffffffffffffffffffffffffffffffffffffffff166306fdde036040518163ffffffff1660e01b815260040160006040518083038186803b15801561118a57600080fd5b505afa15801561119e573d6000803e3d6000fd5b505050506040513d6000823e3d601f19601f820116820180604052508101906111c791906124f8565b9050611208816040518060400160405280600581526020017f4152424c50000000000000000000000000000000000000000000000000000000815250611fb8565b1561128257816011819055508160186000600d60009054906101000a900473ffffffffffffffffffffffffffffffffffffffff1673ffffffffffffffffffffffffffffffffffffffff1673ffffffffffffffffffffffffffffffffffffffff168152602001908152602001600020600101819055506113f2565b6112c1816040518060400160405280600681526020017f555344544c500000000000000000000000000000000000000000000000000000815250611fb8565b1561133b57816013819055508160186000600e60009054906101000a900473ffffffffffffffffffffffffffffffffffffffff1673ffffffffffffffffffffffffffffffffffffffff1673ffffffffffffffffffffffffffffffffffffffff168152602001908152602001600020600101819055506113f1565b61137a816040518060400160405280600581526020017f4554484c50000000000000000000000000000000000000000000000000000000815250611fb8565b156113f057816015819055508160186000600f60009054906101000a900473ffffffffffffffffffffffffffffffffffffffff1673ffffffffffffffffffffffffffffffffffffffff1673ffffffffffffffffffffffffffffffffffffffff168152602001908152602001600020600101819055505b5b5b600860009054906101000a900473ffffffffffffffffffffffffffffffffffffffff1673ffffffffffffffffffffffffffffffffffffffff1663eafaef5184846040518363ffffffff1660e01b815260040161144f929190612541565b600060405180830381600087803b15801561146957600080fd5b505af115801561147d573d6000803e3d6000fd5b50505050505050565b600034116114c9576040517f08c379a00000000000000000000000000000000000000000000000000000000081526004016114c0906127b5565b60405180910390fd5b6000339050601760019054906101000a900473ffffffffffffffffffffffffffffffffffffffff1673ffffffffffffffffffffffffffffffffffffffff16635280212134836040518363ffffffff1660e01b815260040161152a91906120dd565b6000604051808303818588803b15801561154357600080fd5b505af1158015611557573d6000803e3d6000fd5b505050505050565b6000803390508273ffffffffffffffffffffffffffffffffffffffff166370a08231826040518263ffffffff1660e01b815260040161159e91906120dd565b60206040518083038186803b1580156115b657600080fd5b505afa1580156115ca573d6000803e3d6000fd5b505050506040513d601f19601f820116820180604052508101906115ee91906125fc565b915050919050565b600860009054906101000a900473ffffffffffffffffffffffffffffffffffffffff1681565b60145481565b600660009054906101000a900473ffffffffffffffffffffffffffffffffffffffff1681565b600033905060008473ffffffffffffffffffffffffffffffffffffffff166370a08231836040518263ffffffff1660e01b815260040161168891906120dd565b60206040518083038186803b1580156116a057600080fd5b505afa1580156116b4573d6000803e3d6000fd5b505050506040513d601f19601f820116820180604052508101906116d891906125fc565b90508084111561171d576040517f08c379a000000000000000000000000000000000000000000000000000000000815260040161171490612821565b60405180910390fd5b601760019054906101000a900473ffffffffffffffffffffffffffffffffffffffff1673ffffffffffffffffffffffffffffffffffffffff166310d69c4f8684600260009054906101000a900473ffffffffffffffffffffffffffffffffffffffff168888600760009054906101000a900473ffffffffffffffffffffffffffffffffffffffff166040518763ffffffff1660e01b81526004016117c696959493929190612841565b600060405180830381600087803b1580156117e057600080fd5b505af11580156117f4573d6000803e3d6000fd5b505050505050505050565b600c60009054906101000a900473ffffffffffffffffffffffffffffffffffffffff1681565b600760009054906101000a900473ffffffffffffffffffffffffffffffffffffffff1681565b601760019054906101000a900473ffffffffffffffffffffffffffffffffffffffff1673ffffffffffffffffffffffffffffffffffffffff1663fe1218a68383600260009054906101000a900473ffffffffffffffffffffffffffffffffffffffff166040518463ffffffff1660e01b81526004016118cc939291906128a2565b600060405180830381600087803b1580156118e657600080fd5b505af11580156118fa573d6000803e3d6000fd5b50505050601760019054906101000a900473ffffffffffffffffffffffffffffffffffffffff1673ffffffffffffffffffffffffffffffffffffffff1663a8b089826040518163ffffffff1660e01b815260040160206040518083038186803b15801561196657600080fd5b505afa15801561197a573d6000803e3d6000fd5b505050506040513d601f19601f8201168201806040525081019061199e91906128ee565b600860006101000a81548173ffffffffffffffffffffffffffffffffffffffff021916908373ffffffffffffffffffffffffffffffffffffffff160217905550600860009054906101000a900473ffffffffffffffffffffffffffffffffffffffff1673ffffffffffffffffffffffffffffffffffffffff1663d1e9a5fd6040518163ffffffff1660e01b815260040160606040518083038186803b158015611a4657600080fd5b505afa158015611a5a573d6000803e3d6000fd5b505050506040513d601f19601f82011682018060405250810190611a7e919061291b565b600d6000600e6000600f60008691906101000a81548173ffffffffffffffffffffffffffffffffffffffff021916908373ffffffffffffffffffffffffffffffffffffffff1602179055508591906101000a81548173ffffffffffffffffffffffffffffffffffffffff021916908373ffffffffffffffffffffffffffffffffffffffff1602179055508491906101000a81548173ffffffffffffffffffffffffffffffffffffffff021916908373ffffffffffffffffffffffffffffffffffffffff160217905550505050600860009054906101000a900473ffffffffffffffffffffffffffffffffffffffff1673ffffffffffffffffffffffffffffffffffffffff16639a0b71186040518163ffffffff1660e01b815260040160c06040518083038186803b158015611bb257600080fd5b505afa158015611bc6573d6000803e3d6000fd5b505050506040513d601f19601f82011682018060405250810190611bea919061296e565b6010600060116000601260006013600060146000601560008c919050558b919050558a9190505589919050558891905055879190505550505050505060105460186000600d60009054906101000a900473ffffffffffffffffffffffffffffffffffffffff1673ffffffffffffffffffffffffffffffffffffffff1673ffffffffffffffffffffffffffffffffffffffff1681526020019081526020016000206000018190555060115460186000600d60009054906101000a900473ffffffffffffffffffffffffffffffffffffffff1673ffffffffffffffffffffffffffffffffffffffff1673ffffffffffffffffffffffffffffffffffffffff1681526020019081526020016000206001018190555060125460186000600e60009054906101000a900473ffffffffffffffffffffffffffffffffffffffff1673ffffffffffffffffffffffffffffffffffffffff1673ffffffffffffffffffffffffffffffffffffffff1681526020019081526020016000206000018190555060135460186000600e60009054906101000a900473ffffffffffffffffffffffffffffffffffffffff1673ffffffffffffffffffffffffffffffffffffffff1673ffffffffffffffffffffffffffffffffffffffff1681526020019081526020016000206001018190555060145460186000600f60009054906101000a900473ffffffffffffffffffffffffffffffffffffffff1673ffffffffffffffffffffffffffffffffffffffff1673ffffffffffffffffffffffffffffffffffffffff1681526020019081526020016000206000018190555060155460186000600f60009054906101000a900473ffffffffffffffffffffffffffffffffffffffff1673ffffffffffffffffffffffffffffffffffffffff1673ffffffffffffffffffffffffffffffffffffffff168152602001908152602001600020600101819055505050565b6000339050601760019054906101000a900473ffffffffffffffffffffffffffffffffffffffff1673ffffffffffffffffffffffffffffffffffffffff16639663d27c858584600260009054906101000a900473ffffffffffffffffffffffffffffffffffffffff16876040518663ffffffff1660e01b8152600401611f369594939291906129fb565b600060405180830381600087803b158015611f5057600080fd5b505af1158015611f64573d6000803e3d6000fd5b5050505050505050565b600d60009054906101000a900473ffffffffffffffffffffffffffffffffffffffff1681565b60186020528060005260406000206000915090508060000154908060010154905082565b60008180519060200120838051906020012014905092915050565b6000604051905090565b600080fd5b600080fd5b600073ffffffffffffffffffffffffffffffffffffffff82169050919050565b600061201282611fe7565b9050919050565b61202281612007565b811461202d57600080fd5b50565b60008135905061203f81612019565b92915050565b6000819050919050565b61205881612045565b811461206357600080fd5b50565b6000813590506120758161204f565b92915050565b60008060006060848603121561209457612093611fdd565b5b60006120a286828701612030565b93505060206120b386828701612030565b92505060406120c486828701612066565b9150509250925092565b6120d781612007565b82525050565b60006020820190506120f260008301846120ce565b92915050565b6000806040838503121561210f5761210e611fdd565b5b600061211d85828601612030565b925050602061212e85828601612066565b9150509250929050565b61214181612045565b82525050565b600060208201905061215c6000830184612138565b92915050565b6000806000806080858703121561217c5761217b611fdd565b5b600061218a87828801612030565b945050602061219b87828801612066565b93505060406121ac87828801612030565b92505060606121bd87828801612066565b91505092959194509250565b60008115159050919050565b6121de816121c9565b82525050565b60006020820190506121f960008301846121d5565b92915050565b60006020828403121561221557612214611fdd565b5b600061222384828501612030565b91505092915050565b60008060006060848603121561224557612244611fdd565b5b600061225386828701612030565b935050602061226486828701612066565b925050604061227586828701612066565b9150509250925092565b6000806040838503121561229657612295611fdd565b5b60006122a485828601612030565b92505060206122b585828601612030565b9150509250929050565b6000806000606084860312156122d8576122d7611fdd565b5b60006122e686828701612030565b93505060206122f786828701612066565b925050604061230886828701612030565b9150509250925092565b60006040820190506123276000830185612138565b6123346020830184612138565b9392505050565b600060a08201905061235060008301886120ce565b61235d60208301876120ce565b61236a60408301866120ce565b61237760608301856120ce565b6123846080830184612138565b9695505050505050565b600080fd5b600080fd5b6000601f19601f8301169050919050565b7f4e487b7100000000000000000000000000000000000000000000000000000000600052604160045260246000fd5b6123e182612398565b810181811067ffffffffffffffff82111715612400576123ff6123a9565b5b80604052505050565b6000612413611fd3565b905061241f82826123d8565b919050565b600067ffffffffffffffff82111561243f5761243e6123a9565b5b61244882612398565b9050602081019050919050565b60005b83811015612473578082015181840152602081019050612458565b83811115612482576000848401525b50505050565b600061249b61249684612424565b612409565b9050828152602081018484840111156124b7576124b6612393565b5b6124c2848285612455565b509392505050565b600082601f8301126124df576124de61238e565b5b81516124ef848260208601612488565b91505092915050565b60006020828403121561250e5761250d611fdd565b5b600082015167ffffffffffffffff81111561252c5761252b611fe2565b5b612538848285016124ca565b91505092915050565b600060408201905061255660008301856120ce565b6125636020830184612138565b9392505050565b600082825260208201905092915050565b7f636865636b2074686520726967687420746f6b656e0000000000000000000000600082015250565b60006125b160158361256a565b91506125bc8261257b565b602082019050919050565b600060208201905081810360008301526125e0816125a4565b9050919050565b6000815190506125f68161204f565b92915050565b60006020828403121561261257612611611fdd565b5b6000612620848285016125e7565b91505092915050565b7f636865636b2074686520616d6f756e7400000000000000000000000000000000600082015250565b600061265f60108361256a565b915061266a82612629565b602082019050919050565b6000602082019050818103600083015261268e81612652565b9050919050565b60006126a082611fe7565b9050919050565b6126b081612695565b82525050565b60006040820190506126cb60008301856126a7565b6126d86020830184612138565b9392505050565b600060c0820190506126f460008301896120ce565b6127016020830188612138565b61270e60408301876120ce565b61271b6060830186612138565b61272860808301856120ce565b61273560a08301846120ce565b979650505050505050565b600060408201905061275560008301856120ce565b61276260208301846120ce565b9392505050565b7f636865636b2074686520657468657220616d6f756e7400000000000000000000600082015250565b600061279f60168361256a565b91506127aa82612769565b602082019050919050565b600060208201905081810360008301526127ce81612792565b9050919050565b7f636865636b20746865204c7042616c616e636500000000000000000000000000600082015250565b600061280b60138361256a565b9150612816826127d5565b602082019050919050565b6000602082019050818103600083015261283a816127fe565b9050919050565b600060c08201905061285660008301896120ce565b61286360208301886120ce565b61287060408301876120ce565b61287d6060830186612138565b61288a6080830185612138565b61289760a08301846120ce565b979650505050505050565b60006060820190506128b760008301866120ce565b6128c460208301856120ce565b6128d160408301846120ce565b949350505050565b6000815190506128e881612019565b92915050565b60006020828403121561290457612903611fdd565b5b6000612912848285016128d9565b91505092915050565b60008060006060848603121561293457612933611fdd565b5b6000612942868287016128d9565b9350506020612953868287016128d9565b9250506040612964868287016128d9565b9150509250925092565b60008060008060008060c0878903121561298b5761298a611fdd565b5b600061299989828a016125e7565b96505060206129aa89828a016125e7565b95505060406129bb89828a016125e7565b94505060606129cc89828a016125e7565b93505060806129dd89828a016125e7565b92505060a06129ee89828a016125e7565b9150509295509295509295565b600060a082019050612a1060008301886120ce565b612a1d6020830187612138565b612a2a60408301866120ce565b612a3760608301856120ce565b612a4460808301846120ce565b969550505050505056fea264697066735822122091d877b1158c13f5c072e29e58d788407a06969584a1fcfca1ec8c2e919ae94864736f6c6343000809003360806040523480156200001157600080fd5b50604051620020ac380380620020ac83398181016040528101906200003791906200033b565b306000806101000a81548173ffffffffffffffffffffffffffffffffffffffff021916908373ffffffffffffffffffffffffffffffffffffffff1602179055508273ffffffffffffffffffffffffffffffffffffffff1663ee136a566040518163ffffffff1660e01b815260040160606040518083038186803b158015620000be57600080fd5b505afa158015620000d3573d6000803e3d6000fd5b505050506040513d601f19601f82011682018060405250810190620000f991906200033b565b6007600060086000600960008691906101000a81548173ffffffffffffffffffffffffffffffffffffffff021916908373ffffffffffffffffffffffffffffffffffffffff1602179055508591906101000a81548173ffffffffffffffffffffffffffffffffffffffff021916908373ffffffffffffffffffffffffffffffffffffffff1602179055508491906101000a81548173ffffffffffffffffffffffffffffffffffffffff021916908373ffffffffffffffffffffffffffffffffffffffff1602179055505050508173ffffffffffffffffffffffffffffffffffffffff1663b470e8e86040518163ffffffff1660e01b815260040160206040518083038186803b1580156200020c57600080fd5b505afa15801562000221573d6000803e3d6000fd5b505050506040513d601f19601f8201168201806040525081019062000247919062000397565b600a60006101000a81548173ffffffffffffffffffffffffffffffffffffffff021916908373ffffffffffffffffffffffffffffffffffffffff16021790555080600360006101000a81548173ffffffffffffffffffffffffffffffffffffffff021916908373ffffffffffffffffffffffffffffffffffffffff160217905550505050620003c9565b600080fd5b600073ffffffffffffffffffffffffffffffffffffffff82169050919050565b60006200030382620002d6565b9050919050565b6200031581620002f6565b81146200032157600080fd5b50565b60008151905062000335816200030a565b92915050565b600080600060608486031215620003575762000356620002d1565b5b6000620003678682870162000324565b93505060206200037a8682870162000324565b92505060406200038d8682870162000324565b9150509250925092565b600060208284031215620003b057620003af620002d1565b5b6000620003c08482850162000324565b91505092915050565b611cd380620003d96000396000f3fe6080604052600436106101355760003560e01c806380f6d782116100ab578063caadbea01161006f578063caadbea0146103d1578063d7b4be24146103fa578063e319be0a14610425578063ebcde5f314610462578063fa82bec21461048d578063fe1218a6146104b857610135565b806380f6d782146103005780638e54e40d1461032b5780639663d27c146103545780639e271cec1461037d578063a8b08982146103a657610135565b80633d1b719f116100fd5780633d1b719f1461020d5780634713b7841461023857806352802121146102635780635ced16d21461027f57806371b881b7146102aa5780637afb892e146102d557610135565b8063080a14f41461013a57806310d69c4f14610163578063169f97ae1461018c5780631755ff21146101b75780631d15546d146101e2575b600080fd5b34801561014657600080fd5b50610161600480360381019061015c9190611022565b6104e1565b005b34801561016f57600080fd5b5061018a6004803603810190610185919061109d565b61057d565b005b34801561019857600080fd5b506101a161061c565b6040516101ae9190611139565b60405180910390f35b3480156101c357600080fd5b506101cc610642565b6040516101d99190611139565b60405180910390f35b3480156101ee57600080fd5b506101f7610666565b6040516102049190611139565b60405180910390f35b34801561021957600080fd5b5061022261068c565b60405161022f9190611139565b60405180910390f35b34801561024457600080fd5b5061024d6106b2565b60405161025a9190611139565b60405180910390f35b61027d60048036038101906102789190611154565b6106d8565b005b34801561028b57600080fd5b506102946108fb565b6040516102a19190611139565b60405180910390f35b3480156102b657600080fd5b506102bf610921565b6040516102cc9190611139565b60405180910390f35b3480156102e157600080fd5b506102ea610947565b6040516102f7919061119c565b60405180910390f35b34801561030c57600080fd5b5061031561095a565b6040516103229190611139565b60405180910390f35b34801561033757600080fd5b50610352600480360381019061034d91906111f5565b610980565b005b34801561036057600080fd5b5061037b60048036038101906103769190611235565b610a0e565b005b34801561038957600080fd5b506103a4600480360381019061039f91906112b0565b610aaa565b005b3480156103b257600080fd5b506103bb610b3d565b6040516103c89190611139565b60405180910390f35b3480156103dd57600080fd5b506103f860048036038101906103f391906112f0565b610b63565b005b34801561040657600080fd5b5061040f610c26565b60405161041c9190611139565b60405180910390f35b34801561043157600080fd5b5061044c6004803603810190610447919061137d565b610c4c565b60405161045991906113b9565b60405180910390f35b34801561046e57600080fd5b50610477610cc2565b6040516104849190611139565b60405180910390f35b34801561049957600080fd5b506104a2610ce8565b6040516104af91906113b9565b60405180910390f35b3480156104c457600080fd5b506104df60048036038101906104da91906113d4565b610cee565b005b600960009054906101000a900473ffffffffffffffffffffffffffffffffffffffff1673ffffffffffffffffffffffffffffffffffffffff166351b429a086868686866040518663ffffffff1660e01b8152600401610544959493929190611427565b600060405180830381600087803b15801561055e57600080fd5b505af1158015610572573d6000803e3d6000fd5b505050505050505050565b600a60009054906101000a900473ffffffffffffffffffffffffffffffffffffffff1673ffffffffffffffffffffffffffffffffffffffff1663a7f8cd098787878787876040518763ffffffff1660e01b81526004016105e29695949392919061147a565b600060405180830381600087803b1580156105fc57600080fd5b505af1158015610610573d6000803e3d6000fd5b50505050505050505050565b600660009054906101000a900473ffffffffffffffffffffffffffffffffffffffff1681565b60008054906101000a900473ffffffffffffffffffffffffffffffffffffffff1681565b600160009054906101000a900473ffffffffffffffffffffffffffffffffffffffff1681565b600360009054906101000a900473ffffffffffffffffffffffffffffffffffffffff1681565b600860009054906101000a900473ffffffffffffffffffffffffffffffffffffffff1681565b600073ffffffffffffffffffffffffffffffffffffffff16600360009054906101000a900473ffffffffffffffffffffffffffffffffffffffff1673ffffffffffffffffffffffffffffffffffffffff16141561076a576040517f08c379a000000000000000000000000000000000000000000000000000000000815260040161076190611538565b60405180910390fd5b600061077534610c4c565b9050600081600a61078691906116ba565b346107919190611734565b9050600360009054906101000a900473ffffffffffffffffffffffffffffffffffffffff1673ffffffffffffffffffffffffffffffffffffffff1663e234496382846040518363ffffffff1660e01b81526004016107f0929190611765565b600060405180830381600087803b15801561080a57600080fd5b505af115801561081e573d6000803e3d6000fd5b50505050600360009054906101000a900473ffffffffffffffffffffffffffffffffffffffff1673ffffffffffffffffffffffffffffffffffffffff166323b872dd600360009054906101000a900473ffffffffffffffffffffffffffffffffffffffff1685346040518463ffffffff1660e01b81526004016108a39392919061178e565b602060405180830381600087803b1580156108bd57600080fd5b505af11580156108d1573d6000803e3d6000fd5b505050506040513d601f19601f820116820180604052508101906108f591906117f1565b50505050565b600560009054906101000a900473ffffffffffffffffffffffffffffffffffffffff1681565b600260009054906101000a900473ffffffffffffffffffffffffffffffffffffffff1681565b600c60009054906101000a900460ff1681565b600960009054906101000a900473ffffffffffffffffffffffffffffffffffffffff1681565b804710156109c3576040517f08c379a00000000000000000000000000000000000000000000000000000000081526004016109ba9061186a565b60405180910390fd5b8173ffffffffffffffffffffffffffffffffffffffff166108fc829081150290604051600060405180830381858888f19350505050158015610a09573d6000803e3d6000fd5b505050565b600860009054906101000a900473ffffffffffffffffffffffffffffffffffffffff1673ffffffffffffffffffffffffffffffffffffffff166308bac40286868686866040518663ffffffff1660e01b8152600401610a7195949392919061188a565b600060405180830381600087803b158015610a8b57600080fd5b505af1158015610a9f573d6000803e3d6000fd5b505050505050505050565b600a60009054906101000a900473ffffffffffffffffffffffffffffffffffffffff1673ffffffffffffffffffffffffffffffffffffffff1663c7d8c82383836040518363ffffffff1660e01b8152600401610b079291906118dd565b600060405180830381600087803b158015610b2157600080fd5b505af1158015610b35573d6000803e3d6000fd5b505050505050565b600760009054906101000a900473ffffffffffffffffffffffffffffffffffffffff1681565b600860009054906101000a900473ffffffffffffffffffffffffffffffffffffffff1673ffffffffffffffffffffffffffffffffffffffff1663d2dcb80b878787878787600760009054906101000a900473ffffffffffffffffffffffffffffffffffffffff166040518863ffffffff1660e01b8152600401610bec9796959493929190611906565b600060405180830381600087803b158015610c0657600080fd5b505af1158015610c1a573d6000803e3d6000fd5b50505050505050505050565b600a60009054906101000a900473ffffffffffffffffffffffffffffffffffffffff1681565b600080821415610c5f5760019050610cbd565b600080600b819055505b6000831115610cac578080610c7d90611975565b915050600b6000815480929190610c9390611975565b9190505550600a83610ca59190611734565b9250610c69565b600181610cb991906119be565b9150505b919050565b600460009054906101000a900473ffffffffffffffffffffffffffffffffffffffff1681565b600b5481565b60008373ffffffffffffffffffffffffffffffffffffffff166306fdde036040518163ffffffff1660e01b815260040160006040518083038186803b158015610d3657600080fd5b505afa158015610d4a573d6000803e3d6000fd5b505050506040513d6000823e3d601f19601f82011682018060405250810190610d739190611b5c565b9050600760009054906101000a900473ffffffffffffffffffffffffffffffffffffffff1673ffffffffffffffffffffffffffffffffffffffff1663f9d284c2858585856040518563ffffffff1660e01b8152600401610dd69493929190611be9565b600060405180830381600087803b158015610df057600080fd5b505af1158015610e04573d6000803e3d6000fd5b50505050600760009054906101000a900473ffffffffffffffffffffffffffffffffffffffff1673ffffffffffffffffffffffffffffffffffffffff1663d1e9a5fd6040518163ffffffff1660e01b815260040160606040518083038186803b158015610e7057600080fd5b505afa158015610e84573d6000803e3d6000fd5b505050506040513d601f19601f82011682018060405250810190610ea89190611c4a565b6004600060056000600660008691906101000a81548173ffffffffffffffffffffffffffffffffffffffff021916908373ffffffffffffffffffffffffffffffffffffffff1602179055508591906101000a81548173ffffffffffffffffffffffffffffffffffffffff021916908373ffffffffffffffffffffffffffffffffffffffff1602179055508491906101000a81548173ffffffffffffffffffffffffffffffffffffffff021916908373ffffffffffffffffffffffffffffffffffffffff16021790555050505050505050565b6000604051905090565b600080fd5b600080fd5b600073ffffffffffffffffffffffffffffffffffffffff82169050919050565b6000610fb982610f8e565b9050919050565b610fc981610fae565b8114610fd457600080fd5b50565b600081359050610fe681610fc0565b92915050565b6000819050919050565b610fff81610fec565b811461100a57600080fd5b50565b60008135905061101c81610ff6565b92915050565b600080600080600060a0868803121561103e5761103d610f84565b5b600061104c88828901610fd7565b955050602061105d88828901610fd7565b945050604061106e88828901610fd7565b935050606061107f88828901610fd7565b92505060806110908882890161100d565b9150509295509295909350565b60008060008060008060c087890312156110ba576110b9610f84565b5b60006110c889828a01610fd7565b96505060206110d989828a01610fd7565b95505060406110ea89828a01610fd7565b94505060606110fb89828a0161100d565b935050608061110c89828a0161100d565b92505060a061111d89828a01610fd7565b9150509295509295509295565b61113381610fae565b82525050565b600060208201905061114e600083018461112a565b92915050565b60006020828403121561116a57611169610f84565b5b600061117884828501610fd7565b91505092915050565b60008115159050919050565b61119681611181565b82525050565b60006020820190506111b1600083018461118d565b92915050565b60006111c282610f8e565b9050919050565b6111d2816111b7565b81146111dd57600080fd5b50565b6000813590506111ef816111c9565b92915050565b6000806040838503121561120c5761120b610f84565b5b600061121a858286016111e0565b925050602061122b8582860161100d565b9150509250929050565b600080600080600060a0868803121561125157611250610f84565b5b600061125f88828901610fd7565b95505060206112708882890161100d565b945050604061128188828901610fd7565b935050606061129288828901610fd7565b92505060806112a388828901610fd7565b9150509295509295909350565b600080604083850312156112c7576112c6610f84565b5b60006112d585828601610fd7565b92505060206112e685828601610fd7565b9150509250929050565b60008060008060008060c0878903121561130d5761130c610f84565b5b600061131b89828a01610fd7565b965050602061132c89828a0161100d565b955050604061133d89828a01610fd7565b945050606061134e89828a0161100d565b935050608061135f89828a01610fd7565b92505060a061137089828a01610fd7565b9150509295509295509295565b60006020828403121561139357611392610f84565b5b60006113a18482850161100d565b91505092915050565b6113b381610fec565b82525050565b60006020820190506113ce60008301846113aa565b92915050565b6000806000606084860312156113ed576113ec610f84565b5b60006113fb86828701610fd7565b935050602061140c86828701610fd7565b925050604061141d86828701610fd7565b9150509250925092565b600060a08201905061143c600083018861112a565b611449602083018761112a565b611456604083018661112a565b611463606083018561112a565b61147060808301846113aa565b9695505050505050565b600060c08201905061148f600083018961112a565b61149c602083018861112a565b6114a9604083018761112a565b6114b660608301866113aa565b6114c360808301856113aa565b6114d060a083018461112a565b979650505050505050565b600082825260208201905092915050565b7f636865636b2074686520746f6b656e206d616b65640000000000000000000000600082015250565b60006115226015836114db565b915061152d826114ec565b602082019050919050565b6000602082019050818103600083015261155181611515565b9050919050565b7f4e487b7100000000000000000000000000000000000000000000000000000000600052601160045260246000fd5b60008160011c9050919050565b6000808291508390505b60018511156115de578086048111156115ba576115b9611558565b5b60018516156115c95780820291505b80810290506115d785611587565b945061159e565b94509492505050565b6000826115f757600190506116b3565b8161160557600090506116b3565b816001811461161b576002811461162557611654565b60019150506116b3565b60ff84111561163757611636611558565b5b8360020a91508482111561164e5761164d611558565b5b506116b3565b5060208310610133831016604e8410600b84101617156116895782820a90508381111561168457611683611558565b5b6116b3565b6116968484846001611594565b925090508184048111156116ad576116ac611558565b5b81810290505b9392505050565b60006116c582610fec565b91506116d083610fec565b92506116fd7fffffffffffffffffffffffffffffffffffffffffffffffffffffffffffffffff84846115e7565b905092915050565b7f4e487b7100000000000000000000000000000000000000000000000000000000600052601260045260246000fd5b600061173f82610fec565b915061174a83610fec565b92508261175a57611759611705565b5b828204905092915050565b600060408201905061177a60008301856113aa565b61178760208301846113aa565b9392505050565b60006060820190506117a3600083018661112a565b6117b0602083018561112a565b6117bd60408301846113aa565b949350505050565b6117ce81611181565b81146117d957600080fd5b50565b6000815190506117eb816117c5565b92915050565b60006020828403121561180757611806610f84565b5b6000611815848285016117dc565b91505092915050565b7f4e6f7420656e6f7567682045544820696e20636f6e7472616374000000000000600082015250565b6000611854601a836114db565b915061185f8261181e565b602082019050919050565b6000602082019050818103600083015261188381611847565b9050919050565b600060a08201905061189f600083018861112a565b6118ac60208301876113aa565b6118b9604083018661112a565b6118c6606083018561112a565b6118d3608083018461112a565b9695505050505050565b60006040820190506118f2600083018561112a565b6118ff602083018461112a565b9392505050565b600060e08201905061191b600083018a61112a565b61192860208301896113aa565b611935604083018861112a565b61194260608301876113aa565b61194f608083018661112a565b61195c60a083018561112a565b61196960c083018461112a565b98975050505050505050565b600061198082610fec565b91507fffffffffffffffffffffffffffffffffffffffffffffffffffffffffffffffff8214156119b3576119b2611558565b5b600182019050919050565b60006119c982610fec565b91506119d483610fec565b9250828210156119e7576119e6611558565b5b828203905092915050565b600080fd5b600080fd5b6000601f19601f8301169050919050565b7f4e487b7100000000000000000000000000000000000000000000000000000000600052604160045260246000fd5b611a45826119fc565b810181811067ffffffffffffffff82111715611a6457611a63611a0d565b5b80604052505050565b6000611a77610f7a565b9050611a838282611a3c565b919050565b600067ffffffffffffffff821115611aa357611aa2611a0d565b5b611aac826119fc565b9050602081019050919050565b60005b83811015611ad7578082015181840152602081019050611abc565b83811115611ae6576000848401525b50505050565b6000611aff611afa84611a88565b611a6d565b905082815260208101848484011115611b1b57611b1a6119f7565b5b611b26848285611ab9565b509392505050565b600082601f830112611b4357611b426119f2565b5b8151611b53848260208601611aec565b91505092915050565b600060208284031215611b7257611b71610f84565b5b600082015167ffffffffffffffff811115611b9057611b8f610f89565b5b611b9c84828501611b2e565b91505092915050565b600081519050919050565b6000611bbb82611ba5565b611bc581856114db565b9350611bd5818560208601611ab9565b611bde816119fc565b840191505092915050565b6000608082019050611bfe600083018761112a565b611c0b602083018661112a565b611c18604083018561112a565b8181036060830152611c2a8184611bb0565b905095945050505050565b600081519050611c4481610fc0565b92915050565b600080600060608486031215611c6357611c62610f84565b5b6000611c7186828701611c35565b9350506020611c8286828701611c35565b9250506040611c9386828701611c35565b915050925092509256fea264697066735822122060519c7645bbf907f413513fd8bf8cdb77c7b0ac2d80e1046e7d03900c2b098764736f6c63430008090033",
  "linkReferences": {},
  "deployedLinkReferences": {}
}