{
  "_format": "hh-sol-artifact-1",
  "contractName": "Deploy",
  "sourceName": "contracts/Deploy.sol",
  "abi": [
    {
      "inputs": [
        {
          "internalType": "uint256",
          "name": "_feePercent",
          "type": "uint256"
        }
      ],
      "stateMutability": "nonpayable",
      "type": "constructor"
    },
    {
      "inputs": [],
      "name": "featureAddress",
      "outputs": [
        {
          "internalType": "address",
          "name": "pair",
          "type": "address"
        },
        {
          "internalType": "address",
          "name": "liquid",
          "type": "address"
        },
        {
          "internalType": "address",
          "name": "swap",
          "type": "address"
        }
      ],
      "stateMutability": "view",
      "type": "function"
    }
  ],
  "bytecode": "0x608060405234801561001057600080fd5b506040516200a4c53803806200a4c58339818101604052810190610034919061030b565b604051610040906102a6565b604051809103906000f08015801561005c573d6000803e3d6000fd5b506000806101000a81548173ffffffffffffffffffffffffffffffffffffffff021916908373ffffffffffffffffffffffffffffffffffffffff16021790555060008054906101000a900473ffffffffffffffffffffffffffffffffffffffff16600360006101000a81548173ffffffffffffffffffffffffffffffffffffffff021916908373ffffffffffffffffffffffffffffffffffffffff160217905550604051610109906102b4565b604051809103906000f080158015610125573d6000803e3d6000fd5b50600160006101000a81548173ffffffffffffffffffffffffffffffffffffffff021916908373ffffffffffffffffffffffffffffffffffffffff160217905550600160009054906101000a900473ffffffffffffffffffffffffffffffffffffffff16600460006101000a81548173ffffffffffffffffffffffffffffffffffffffff021916908373ffffffffffffffffffffffffffffffffffffffff160217905550806040516101d6906102c2565b6101e09190610347565b604051809103906000f0801580156101fc573d6000803e3d6000fd5b50600260006101000a81548173ffffffffffffffffffffffffffffffffffffffff021916908373ffffffffffffffffffffffffffffffffffffffff160217905550600260009054906101000a900473ffffffffffffffffffffffffffffffffffffffff16600560006101000a81548173ffffffffffffffffffffffffffffffffffffffff021916908373ffffffffffffffffffffffffffffffffffffffff16021790555050610362565b61386c80620004e983390190565b6142dd8062003d5583390190565b612493806200803283390190565b600080fd5b6000819050919050565b6102e8816102d5565b81146102f357600080fd5b50565b600081519050610305816102df565b92915050565b600060208284031215610321576103206102d0565b5b600061032f848285016102f6565b91505092915050565b610341816102d5565b82525050565b600060208201905061035c6000830184610338565b92915050565b61017780620003726000396000f3fe608060405234801561001057600080fd5b506004361061002b5760003560e01c8063ee136a5614610030575b600080fd5b610038610050565b6040516100479392919061010a565b60405180910390f35b6000806000600360009054906101000a900473ffffffffffffffffffffffffffffffffffffffff16600460009054906101000a900473ffffffffffffffffffffffffffffffffffffffff16600560009054906101000a900473ffffffffffffffffffffffffffffffffffffffff16925092509250909192565b600073ffffffffffffffffffffffffffffffffffffffff82169050919050565b60006100f4826100c9565b9050919050565b610104816100e9565b82525050565b600060608201905061011f60008301866100fb565b61012c60208301856100fb565b61013960408301846100fb565b94935050505056fea26469706673582212203994e68396069c016da040817c256e54d6dccf8acde364563c9972495c03bb2664736f6c63430008090033608060405260016006556001600755600160085560016009556001600a556001600b5534801561002e57600080fd5b5061382e8061003e6000396000f3fe60806040523480156200001157600080fd5b5060043610620000945760003560e01c8063c41a2e1f1162000063578063c41a2e1f146200014f578063d1e9a5fd146200016f578063eafaef511462000193578063f9d284c214620001b35762000094565b806310f2272814620000995780634ce272ee14620000d05780639a0b711814620000f2578063ab73bb171462000119575b600080fd5b620000b76004803603810190620000b1919062000e64565b620001d3565b604051620000c792919062000ebc565b60405180910390f35b620000da62000244565b604051620000e9919062000efa565b60405180910390f35b620000fc6200024a565b604051620001109695949392919062000f17565b60405180910390f35b62000137600480360381019062000131919062000f84565b62000279565b60405162000146919062000efa565b60405180910390f35b6200016d600480360381019062000167919062000e64565b6200029e565b005b6200017962000427565b6040516200018a9392919062000fb6565b60405180910390f35b620001b16004803603810190620001ab919062000e64565b620004a0565b005b620001d16004803603810190620001cb919062001155565b62000629565b005b600c602052816000526040600020602052806000526040600020600091509150508060000160009054906101000a900473ffffffffffffffffffffffffffffffffffffffff16908060010160009054906101000a900473ffffffffffffffffffffffffffffffffffffffff16905082565b600e5481565b600080600080600080600654600954600754600a54600854600b54955095509550955095509550909192939495565b600d81815481106200028a57600080fd5b906000526020600020016000915090505481565b60008273ffffffffffffffffffffffffffffffffffffffff166306fdde036040518163ffffffff1660e01b815260040160006040518083038186803b158015620002e757600080fd5b505afa158015620002fc573d6000803e3d6000fd5b505050506040513d6000823e3d601f19601f820116820180604052508101906200032791906200129a565b90506200036a816040518060400160405280600581526020017f4152424c5000000000000000000000000000000000000000000000000000000081525062000d87565b156200037d578160068190555062000422565b620003be816040518060400160405280600681526020017f555344544c50000000000000000000000000000000000000000000000000000081525062000d87565b15620003d1578160078190555062000421565b62000412816040518060400160405280600581526020017f4554484c5000000000000000000000000000000000000000000000000000000081525062000d87565b156200042057816008819055505b5b5b505050565b6000806000600360009054906101000a900473ffffffffffffffffffffffffffffffffffffffff16600460009054906101000a900473ffffffffffffffffffffffffffffffffffffffff16600560009054906101000a900473ffffffffffffffffffffffffffffffffffffffff16925092509250909192565b60008273ffffffffffffffffffffffffffffffffffffffff166306fdde036040518163ffffffff1660e01b815260040160006040518083038186803b158015620004e957600080fd5b505afa158015620004fe573d6000803e3d6000fd5b505050506040513d6000823e3d601f19601f820116820180604052508101906200052991906200129a565b90506200056c816040518060400160405280600581526020017f4152424c5000000000000000000000000000000000000000000000000000000081525062000d87565b156200057f578160098190555062000624565b620005c0816040518060400160405280600681526020017f555344544c50000000000000000000000000000000000000000000000000000081525062000d87565b15620005d35781600a8190555062000623565b62000614816040518060400160405280600581526020017f4554484c5000000000000000000000000000000000000000000000000000000081525062000d87565b15620006225781600b819055505b5b5b505050565b6000805b600d8054905081101562000854576000600c60008673ffffffffffffffffffffffffffffffffffffffff1673ffffffffffffffffffffffffffffffffffffffff16815260200190815260200160002060008381526020019081526020016000206040518060400160405290816000820160009054906101000a900473ffffffffffffffffffffffffffffffffffffffff1673ffffffffffffffffffffffffffffffffffffffff1673ffffffffffffffffffffffffffffffffffffffff1681526020016001820160009054906101000a900473ffffffffffffffffffffffffffffffffffffffff1673ffffffffffffffffffffffffffffffffffffffff1673ffffffffffffffffffffffffffffffffffffffff168152505090508673ffffffffffffffffffffffffffffffffffffffff16816000015173ffffffffffffffffffffffffffffffffffffffff16148015620007b557508573ffffffffffffffffffffffffffffffffffffffff16816020015173ffffffffffffffffffffffffffffffffffffffff16145b806200082c57508573ffffffffffffffffffffffffffffffffffffffff16816000015173ffffffffffffffffffffffffffffffffffffffff161480156200082b57508673ffffffffffffffffffffffffffffffffffffffff16816020015173ffffffffffffffffffffffffffffffffffffffff16145b5b156200083d57600192505062000854565b5080806200084b906200131a565b9150506200062d565b50801562000899576040517f08c379a00000000000000000000000000000000000000000000000000000000081526004016200089090620013c9565b60405180910390fd5b8062000d8057600060405180604001604052808773ffffffffffffffffffffffffffffffffffffffff1681526020018673ffffffffffffffffffffffffffffffffffffffff16815250905080600c60008673ffffffffffffffffffffffffffffffffffffffff1673ffffffffffffffffffffffffffffffffffffffff1681526020019081526020016000206000600e54815260200190815260200160002060008201518160000160006101000a81548173ffffffffffffffffffffffffffffffffffffffff021916908373ffffffffffffffffffffffffffffffffffffffff16021790555060208201518160010160006101000a81548173ffffffffffffffffffffffffffffffffffffffff021916908373ffffffffffffffffffffffffffffffffffffffff160217905550905050600d600e5490806001815401808255809150506001900390600052602060002001600090919091909150556001600e600082825462000a089190620013eb565b9250508190555062000a50836040518060400160405280600381526020017f415242000000000000000000000000000000000000000000000000000000000081525062000d87565b1562000b335760405162000a649062000da2565b62000a6f90620014e8565b604051809103906000f08015801562000a8c573d6000803e3d6000fd5b506000806101000a81548173ffffffffffffffffffffffffffffffffffffffff021916908373ffffffffffffffffffffffffffffffffffffffff16021790555060008054906101000a900473ffffffffffffffffffffffffffffffffffffffff16600360006101000a81548173ffffffffffffffffffffffffffffffffffffffff021916908373ffffffffffffffffffffffffffffffffffffffff16021790555062000d7e565b62000b74836040518060400160405280600481526020017f555344540000000000000000000000000000000000000000000000000000000081525062000d87565b1562000c5a5760405162000b889062000da2565b62000b93906200156f565b604051809103906000f08015801562000bb0573d6000803e3d6000fd5b50600160006101000a81548173ffffffffffffffffffffffffffffffffffffffff021916908373ffffffffffffffffffffffffffffffffffffffff160217905550600160009054906101000a900473ffffffffffffffffffffffffffffffffffffffff16600460006101000a81548173ffffffffffffffffffffffffffffffffffffffff021916908373ffffffffffffffffffffffffffffffffffffffff16021790555062000d7d565b62000c9b836040518060400160405280600381526020017f455448000000000000000000000000000000000000000000000000000000000081525062000d87565b1562000d7c5760405162000caf9062000da2565b62000cba90620015f6565b604051809103906000f08015801562000cd7573d6000803e3d6000fd5b50600260006101000a81548173ffffffffffffffffffffffffffffffffffffffff021916908373ffffffffffffffffffffffffffffffffffffffff160217905550600160009054906101000a900473ffffffffffffffffffffffffffffffffffffffff16600560006101000a81548173ffffffffffffffffffffffffffffffffffffffff021916908373ffffffffffffffffffffffffffffffffffffffff1602179055505b5b5b505b5050505050565b60008180519060200120838051906020012014905092915050565b6121cb806200162e83390190565b6000604051905090565b600080fd5b600080fd5b600073ffffffffffffffffffffffffffffffffffffffff82169050919050565b600062000df18262000dc4565b9050919050565b62000e038162000de4565b811462000e0f57600080fd5b50565b60008135905062000e238162000df8565b92915050565b6000819050919050565b62000e3e8162000e29565b811462000e4a57600080fd5b50565b60008135905062000e5e8162000e33565b92915050565b6000806040838503121562000e7e5762000e7d62000dba565b5b600062000e8e8582860162000e12565b925050602062000ea18582860162000e4d565b9150509250929050565b62000eb68162000de4565b82525050565b600060408201905062000ed3600083018562000eab565b62000ee2602083018462000eab565b9392505050565b62000ef48162000e29565b82525050565b600060208201905062000f11600083018462000ee9565b92915050565b600060c08201905062000f2e600083018962000ee9565b62000f3d602083018862000ee9565b62000f4c604083018762000ee9565b62000f5b606083018662000ee9565b62000f6a608083018562000ee9565b62000f7960a083018462000ee9565b979650505050505050565b60006020828403121562000f9d5762000f9c62000dba565b5b600062000fad8482850162000e4d565b91505092915050565b600060608201905062000fcd600083018662000eab565b62000fdc602083018562000eab565b62000feb604083018462000eab565b949350505050565b600080fd5b600080fd5b6000601f19601f8301169050919050565b7f4e487b7100000000000000000000000000000000000000000000000000000000600052604160045260246000fd5b620010488262000ffd565b810181811067ffffffffffffffff821117156200106a57620010696200100e565b5b80604052505050565b60006200107f62000db0565b90506200108d82826200103d565b919050565b600067ffffffffffffffff821115620010b057620010af6200100e565b5b620010bb8262000ffd565b9050602081019050919050565b82818337600083830152505050565b6000620010ee620010e88462001092565b62001073565b9050828152602081018484840111156200110d576200110c62000ff8565b5b6200111a848285620010c8565b509392505050565b600082601f8301126200113a576200113962000ff3565b5b81356200114c848260208601620010d7565b91505092915050565b6000806000806080858703121562001172576200117162000dba565b5b6000620011828782880162000e12565b9450506020620011958782880162000e12565b9350506040620011a88782880162000e12565b925050606085013567ffffffffffffffff811115620011cc57620011cb62000dbf565b5b620011da8782880162001122565b91505092959194509250565b60005b8381101562001206578082015181840152602081019050620011e9565b8381111562001216576000848401525b50505050565b6000620012336200122d8462001092565b62001073565b90508281526020810184848401111562001252576200125162000ff8565b5b6200125f848285620011e6565b509392505050565b600082601f8301126200127f576200127e62000ff3565b5b8151620012918482602086016200121c565b91505092915050565b600060208284031215620012b357620012b262000dba565b5b600082015167ffffffffffffffff811115620012d457620012d362000dbf565b5b620012e28482850162001267565b91505092915050565b7f4e487b7100000000000000000000000000000000000000000000000000000000600052601160045260246000fd5b6000620013278262000e29565b91507fffffffffffffffffffffffffffffffffffffffffffffffffffffffffffffffff8214156200135d576200135c620012eb565b5b600182019050919050565b600082825260208201905092915050565b7f54686520706f6f6c20616c7265616479206578697374732e0000000000000000600082015250565b6000620013b160188362001368565b9150620013be8262001379565b602082019050919050565b60006020820190508181036000830152620013e481620013a2565b9050919050565b6000620013f88262000e29565b9150620014058362000e29565b9250827fffffffffffffffffffffffffffffffffffffffffffffffffffffffffffffffff038211156200143d576200143c620012eb565b5b828201905092915050565b7f4152424c50000000000000000000000000000000000000000000000000000000600082015250565b60006200148060058362001368565b91506200148d8262001448565b602082019050919050565b7f4c50000000000000000000000000000000000000000000000000000000000000600082015250565b6000620014d060028362001368565b9150620014dd8262001498565b602082019050919050565b60006040820190508181036000830152620015038162001471565b905081810360208301526200151881620014c1565b9050919050565b7f555344544c500000000000000000000000000000000000000000000000000000600082015250565b60006200155760068362001368565b915062001564826200151f565b602082019050919050565b600060408201905081810360008301526200158a8162001548565b905081810360208301526200159f81620014c1565b9050919050565b7f4554484c50000000000000000000000000000000000000000000000000000000600082015250565b6000620015de60058362001368565b9150620015eb82620015a6565b602082019050919050565b600060408201905081810360008301526200161181620015cf565b905081810360208301526200162681620014c1565b905091905056fe60806040523480156200001157600080fd5b50604051620021cb380380620021cb833981810160405281019062000037919062000344565b8181816005908051906020019062000051929190620000f7565b5080600690805190602001906200006a929190620000f7565b50505030600760006101000a81548173ffffffffffffffffffffffffffffffffffffffff021916908373ffffffffffffffffffffffffffffffffffffffff16021790555030600860006101000a81548173ffffffffffffffffffffffffffffffffffffffff021916908373ffffffffffffffffffffffffffffffffffffffff16021790555050506200042e565b8280546200010590620003f8565b90600052602060002090601f01602090048101928262000129576000855562000175565b82601f106200014457805160ff191683800117855562000175565b8280016001018555821562000175579182015b828111156200017457825182559160200191906001019062000157565b5b50905062000184919062000188565b5090565b5b80821115620001a357600081600090555060010162000189565b5090565b6000604051905090565b600080fd5b600080fd5b600080fd5b600080fd5b6000601f19601f8301169050919050565b7f4e487b7100000000000000000000000000000000000000000000000000000000600052604160045260246000fd5b6200021082620001c5565b810181811067ffffffffffffffff82111715620002325762000231620001d6565b5b80604052505050565b600062000247620001a7565b905062000255828262000205565b919050565b600067ffffffffffffffff821115620002785762000277620001d6565b5b6200028382620001c5565b9050602081019050919050565b60005b83811015620002b057808201518184015260208101905062000293565b83811115620002c0576000848401525b50505050565b6000620002dd620002d7846200025a565b6200023b565b905082815260208101848484011115620002fc57620002fb620001c0565b5b6200030984828562000290565b509392505050565b600082601f830112620003295762000328620001bb565b5b81516200033b848260208601620002c6565b91505092915050565b600080604083850312156200035e576200035d620001b1565b5b600083015167ffffffffffffffff8111156200037f576200037e620001b6565b5b6200038d8582860162000311565b925050602083015167ffffffffffffffff811115620003b157620003b0620001b6565b5b620003bf8582860162000311565b9150509250929050565b7f4e487b7100000000000000000000000000000000000000000000000000000000600052602260045260246000fd5b600060028204905060018216806200041157607f821691505b60208210811415620004285762000427620003c9565b5b50919050565b611d8d806200043e6000396000f3fe608060405234801561001057600080fd5b506004361061010b5760003560e01c806395d89b41116100a2578063a0712d6811610071578063a0712d68146102d0578063a457c2d7146102ec578063a9059cbb1461031c578063dd62ed3e1461034c578063e23449631461037c5761010b565b806395d89b4114610246578063993a86bd146102645780639c53f267146102825780639d76ea58146102b25761010b565b8063313ce567116100de578063313ce567146101ac57806339509351146101ca5780636161eb18146101fa57806370a08231146102165761010b565b806306fdde0314610110578063095ea7b31461012e57806318160ddd1461015e57806323b872dd1461017c575b600080fd5b610118610398565b6040516101259190611248565b60405180910390f35b61014860048036038101906101439190611303565b61042a565b604051610155919061135e565b60405180910390f35b610166610468565b6040516101739190611388565b60405180910390f35b610196600480360381019061019191906113a3565b610472565b6040516101a3919061135e565b60405180910390f35b6101b4610495565b6040516101c19190611412565b60405180910390f35b6101e460048036038101906101df9190611303565b61049e565b6040516101f1919061135e565b60405180910390f35b610214600480360381019061020f9190611303565b6104f0565b005b610230600480360381019061022b919061142d565b6106c0565b60405161023d9190611388565b60405180910390f35b61024e610709565b60405161025b9190611248565b60405180910390f35b61026c61079b565b6040516102799190611469565b60405180910390f35b61029c6004803603810190610297919061142d565b6107c1565b6040516102a99190611388565b60405180910390f35b6102ba6107d9565b6040516102c79190611469565b60405180910390f35b6102ea60048036038101906102e59190611484565b6107ff565b005b61030660048036038101906103019190611303565b6108e8565b604051610313919061135e565b60405180910390f35b61033660048036038101906103319190611303565b61097a565b604051610343919061135e565b60405180910390f35b610366600480360381019061036191906114b1565b610996565b6040516103739190611388565b60405180910390f35b610396600480360381019061039191906114f1565b610a1d565b005b6060600580546103a790611560565b80601f01602080910402602001604051908101604052809291908181526020018280546103d390611560565b80156104205780601f106103f557610100808354040283529160200191610420565b820191906000526020600020905b81548152906001019060200180831161040357829003601f168201915b5050505050905090565b600080600860009054906101000a900473ffffffffffffffffffffffffffffffffffffffff16905061045d818585610b0a565b600191505092915050565b6000600c54905090565b600061047f848484610cd5565b61048a848484610f50565b600190509392505050565b60006012905090565b600080600860009054906101000a900473ffffffffffffffffffffffffffffffffffffffff1690506104e58185856104d68589610996565b6104e091906115c1565b610b0a565b600191505092915050565b600073ffffffffffffffffffffffffffffffffffffffff168273ffffffffffffffffffffffffffffffffffffffff161415610560576040517f08c379a000000000000000000000000000000000000000000000000000000000815260040161055790611689565b60405180910390fd5b61056c8260008361104d565b6000600960008473ffffffffffffffffffffffffffffffffffffffff1673ffffffffffffffffffffffffffffffffffffffff168152602001908152602001600020549050818110156105f3576040517f08c379a00000000000000000000000000000000000000000000000000000000081526004016105ea9061171b565b60405180910390fd5b818103600960008573ffffffffffffffffffffffffffffffffffffffff1673ffffffffffffffffffffffffffffffffffffffff1681526020019081526020016000208190555081600c60008282540392505081905550600073ffffffffffffffffffffffffffffffffffffffff168373ffffffffffffffffffffffffffffffffffffffff167fddf252ad1be2c89b69c2b068fc378daa952ba7f163c4a11628f55a4df523b3ef846040516106a79190611388565b60405180910390a36106bb83600084611052565b505050565b6000600960008373ffffffffffffffffffffffffffffffffffffffff1673ffffffffffffffffffffffffffffffffffffffff168152602001908152602001600020549050919050565b60606006805461071890611560565b80601f016020809104026020016040519081016040528092919081815260200182805461074490611560565b80156107915780601f1061076657610100808354040283529160200191610791565b820191906000526020600020905b81548152906001019060200180831161077457829003601f168201915b5050505050905090565b600860009054906101000a900473ffffffffffffffffffffffffffffffffffffffff1681565b600b6020528060005260406000206000915090505481565b600760009054906101000a900473ffffffffffffffffffffffffffffffffffffffff1681565b61083e600860009054906101000a900473ffffffffffffffffffffffffffffffffffffffff16670de0b6b3a764000083610839919061173b565b611057565b61087d600860009054906101000a900473ffffffffffffffffffffffffffffffffffffffff16670de0b6b3a764000083610878919061173b565b61042a565b506001600b6000600860009054906101000a900473ffffffffffffffffffffffffffffffffffffffff1673ffffffffffffffffffffffffffffffffffffffff1673ffffffffffffffffffffffffffffffffffffffff1681526020019081526020016000208190555050565b600080600860009054906101000a900473ffffffffffffffffffffffffffffffffffffffff169050600061091c8286610996565b905083811015610961576040517f08c379a000000000000000000000000000000000000000000000000000000000815260040161095890611807565b60405180910390fd5b61096e8286868403610b0a565b60019250505092915050565b60008030905061098b818585610cd5565b600191505092915050565b6000600a60008473ffffffffffffffffffffffffffffffffffffffff1673ffffffffffffffffffffffffffffffffffffffff16815260200190815260200160002060008373ffffffffffffffffffffffffffffffffffffffff1673ffffffffffffffffffffffffffffffffffffffff16815260200190815260200160002054905092915050565b610a60600860009054906101000a900473ffffffffffffffffffffffffffffffffffffffff1682600a610a50919061195a565b84610a5b919061173b565b611057565b610aa3600860009054906101000a900473ffffffffffffffffffffffffffffffffffffffff1682600a610a93919061195a565b84610a9e919061173b565b61042a565b50600b6000600860009054906101000a900473ffffffffffffffffffffffffffffffffffffffff1673ffffffffffffffffffffffffffffffffffffffff1673ffffffffffffffffffffffffffffffffffffffff168152602001908152602001600020505050565b600073ffffffffffffffffffffffffffffffffffffffff168373ffffffffffffffffffffffffffffffffffffffff161415610b7a576040517f08c379a0000000000000000000000000000000000000000000000000000000008152600401610b7190611a17565b60405180910390fd5b600073ffffffffffffffffffffffffffffffffffffffff168273ffffffffffffffffffffffffffffffffffffffff161415610bea576040517f08c379a0000000000000000000000000000000000000000000000000000000008152600401610be190611aa9565b60405180910390fd5b80600a60008573ffffffffffffffffffffffffffffffffffffffff1673ffffffffffffffffffffffffffffffffffffffff16815260200190815260200160002060008473ffffffffffffffffffffffffffffffffffffffff1673ffffffffffffffffffffffffffffffffffffffff168152602001908152602001600020819055508173ffffffffffffffffffffffffffffffffffffffff168373ffffffffffffffffffffffffffffffffffffffff167f8c5be1e5ebec7d5bd14f71427d1e84f3dd0314c0f7b2291e5b200ac8c7c3b92583604051610cc89190611388565b60405180910390a3505050565b600073ffffffffffffffffffffffffffffffffffffffff168373ffffffffffffffffffffffffffffffffffffffff161415610d45576040517f08c379a0000000000000000000000000000000000000000000000000000000008152600401610d3c90611b3b565b60405180910390fd5b600073ffffffffffffffffffffffffffffffffffffffff168273ffffffffffffffffffffffffffffffffffffffff161415610db5576040517f08c379a0000000000000000000000000000000000000000000000000000000008152600401610dac90611bcd565b60405180910390fd5b610dc083838361104d565b6000600960008573ffffffffffffffffffffffffffffffffffffffff1673ffffffffffffffffffffffffffffffffffffffff16815260200190815260200160002054905081811015610e47576040517f08c379a0000000000000000000000000000000000000000000000000000000008152600401610e3e90611c5f565b60405180910390fd5b818103600960008673ffffffffffffffffffffffffffffffffffffffff1673ffffffffffffffffffffffffffffffffffffffff1681526020019081526020016000208190555081600960008573ffffffffffffffffffffffffffffffffffffffff1673ffffffffffffffffffffffffffffffffffffffff168152602001908152602001600020600082825401925050819055508273ffffffffffffffffffffffffffffffffffffffff168473ffffffffffffffffffffffffffffffffffffffff167fddf252ad1be2c89b69c2b068fc378daa952ba7f163c4a11628f55a4df523b3ef84604051610f379190611388565b60405180910390a3610f4a848484611052565b50505050565b6000610f7e600860009054906101000a900473ffffffffffffffffffffffffffffffffffffffff1685610996565b90507fffffffffffffffffffffffffffffffffffffffffffffffffffffffffffffffff81146110475781811015610fea576040517f08c379a0000000000000000000000000000000000000000000000000000000008152600401610fe190611ccb565b60405180910390fd5b611019600860009054906101000a900473ffffffffffffffffffffffffffffffffffffffff1685848403610b0a565b611046600860009054906101000a900473ffffffffffffffffffffffffffffffffffffffff168484610b0a565b5b50505050565b505050565b505050565b600073ffffffffffffffffffffffffffffffffffffffff168273ffffffffffffffffffffffffffffffffffffffff1614156110c7576040517f08c379a00000000000000000000000000000000000000000000000000000000081526004016110be90611d37565b60405180910390fd5b6110d36000838361104d565b80600c60008282546110e591906115c1565b9250508190555080600960008473ffffffffffffffffffffffffffffffffffffffff1673ffffffffffffffffffffffffffffffffffffffff168152602001908152602001600020600082825401925050819055508173ffffffffffffffffffffffffffffffffffffffff16600073ffffffffffffffffffffffffffffffffffffffff167fddf252ad1be2c89b69c2b068fc378daa952ba7f163c4a11628f55a4df523b3ef836040516111979190611388565b60405180910390a36111ab60008383611052565b5050565b600081519050919050565b600082825260208201905092915050565b60005b838110156111e95780820151818401526020810190506111ce565b838111156111f8576000848401525b50505050565b6000601f19601f8301169050919050565b600061121a826111af565b61122481856111ba565b93506112348185602086016111cb565b61123d816111fe565b840191505092915050565b60006020820190508181036000830152611262818461120f565b905092915050565b600080fd5b600073ffffffffffffffffffffffffffffffffffffffff82169050919050565b600061129a8261126f565b9050919050565b6112aa8161128f565b81146112b557600080fd5b50565b6000813590506112c7816112a1565b92915050565b6000819050919050565b6112e0816112cd565b81146112eb57600080fd5b50565b6000813590506112fd816112d7565b92915050565b6000806040838503121561131a5761131961126a565b5b6000611328858286016112b8565b9250506020611339858286016112ee565b9150509250929050565b60008115159050919050565b61135881611343565b82525050565b6000602082019050611373600083018461134f565b92915050565b611382816112cd565b82525050565b600060208201905061139d6000830184611379565b92915050565b6000806000606084860312156113bc576113bb61126a565b5b60006113ca868287016112b8565b93505060206113db868287016112b8565b92505060406113ec868287016112ee565b9150509250925092565b600060ff82169050919050565b61140c816113f6565b82525050565b60006020820190506114276000830184611403565b92915050565b6000602082840312156114435761144261126a565b5b6000611451848285016112b8565b91505092915050565b6114638161128f565b82525050565b600060208201905061147e600083018461145a565b92915050565b60006020828403121561149a5761149961126a565b5b60006114a8848285016112ee565b91505092915050565b600080604083850312156114c8576114c761126a565b5b60006114d6858286016112b8565b92505060206114e7858286016112b8565b9150509250929050565b600080604083850312156115085761150761126a565b5b6000611516858286016112ee565b9250506020611527858286016112ee565b9150509250929050565b7f4e487b7100000000000000000000000000000000000000000000000000000000600052602260045260246000fd5b6000600282049050600182168061157857607f821691505b6020821081141561158c5761158b611531565b5b50919050565b7f4e487b7100000000000000000000000000000000000000000000000000000000600052601160045260246000fd5b60006115cc826112cd565b91506115d7836112cd565b9250827fffffffffffffffffffffffffffffffffffffffffffffffffffffffffffffffff0382111561160c5761160b611592565b5b828201905092915050565b7f45524332303a206275726e2066726f6d20746865207a65726f2061646472657360008201527f7300000000000000000000000000000000000000000000000000000000000000602082015250565b60006116736021836111ba565b915061167e82611617565b604082019050919050565b600060208201905081810360008301526116a281611666565b9050919050565b7f45524332303a206275726e20616d6f756e7420657863656564732062616c616e60008201527f6365000000000000000000000000000000000000000000000000000000000000602082015250565b60006117056022836111ba565b9150611710826116a9565b604082019050919050565b60006020820190508181036000830152611734816116f8565b9050919050565b6000611746826112cd565b9150611751836112cd565b9250817fffffffffffffffffffffffffffffffffffffffffffffffffffffffffffffffff048311821515161561178a57611789611592565b5b828202905092915050565b7f45524332303a2064656372656173656420616c6c6f77616e63652062656c6f7760008201527f207a65726f000000000000000000000000000000000000000000000000000000602082015250565b60006117f16025836111ba565b91506117fc82611795565b604082019050919050565b60006020820190508181036000830152611820816117e4565b9050919050565b60008160011c9050919050565b6000808291508390505b600185111561187e5780860481111561185a57611859611592565b5b60018516156118695780820291505b808102905061187785611827565b945061183e565b94509492505050565b6000826118975760019050611953565b816118a55760009050611953565b81600181146118bb57600281146118c5576118f4565b6001915050611953565b60ff8411156118d7576118d6611592565b5b8360020a9150848211156118ee576118ed611592565b5b50611953565b5060208310610133831016604e8410600b84101617156119295782820a90508381111561192457611923611592565b5b611953565b6119368484846001611834565b9250905081840481111561194d5761194c611592565b5b81810290505b9392505050565b6000611965826112cd565b9150611970836112cd565b925061199d7fffffffffffffffffffffffffffffffffffffffffffffffffffffffffffffffff8484611887565b905092915050565b7f45524332303a20617070726f76652066726f6d20746865207a65726f2061646460008201527f7265737300000000000000000000000000000000000000000000000000000000602082015250565b6000611a016024836111ba565b9150611a0c826119a5565b604082019050919050565b60006020820190508181036000830152611a30816119f4565b9050919050565b7f45524332303a20617070726f766520746f20746865207a65726f20616464726560008201527f7373000000000000000000000000000000000000000000000000000000000000602082015250565b6000611a936022836111ba565b9150611a9e82611a37565b604082019050919050565b60006020820190508181036000830152611ac281611a86565b9050919050565b7f45524332303a207472616e736665722066726f6d20746865207a65726f20616460008201527f6472657373000000000000000000000000000000000000000000000000000000602082015250565b6000611b256025836111ba565b9150611b3082611ac9565b604082019050919050565b60006020820190508181036000830152611b5481611b18565b9050919050565b7f45524332303a207472616e7366657220746f20746865207a65726f206164647260008201527f6573730000000000000000000000000000000000000000000000000000000000602082015250565b6000611bb76023836111ba565b9150611bc282611b5b565b604082019050919050565b60006020820190508181036000830152611be681611baa565b9050919050565b7f45524332303a207472616e7366657220616d6f756e742065786365656473206260008201527f616c616e63650000000000000000000000000000000000000000000000000000602082015250565b6000611c496026836111ba565b9150611c5482611bed565b604082019050919050565b60006020820190508181036000830152611c7881611c3c565b9050919050565b7f45524332303a20696e73756666696369656e7420616c6c6f77616e6365000000600082015250565b6000611cb5601d836111ba565b9150611cc082611c7f565b602082019050919050565b60006020820190508181036000830152611ce481611ca8565b9050919050565b7f45524332303a206d696e7420746f20746865207a65726f206164647265737300600082015250565b6000611d21601f836111ba565b9150611d2c82611ceb565b602082019050919050565b60006020820190508181036000830152611d5081611d14565b905091905056fea26469706673582212207c5fb4772027631276438e0ac92e0d34b924d6f91b0facfcf9bf4406934202fd64736f6c63430008090033a2646970667358221220ed5614def1f2d40c3435d4c725015d8360c4f048d69faa1e36e61530ee3e36d664736f6c63430008090033608060405267016345785d8a0000600e5534801561001c57600080fd5b506142b18061002c6000396000f3fe608060405234801561001057600080fd5b50600436106100a95760003560e01c8063607c94f011610071578063607c94f0146101665780637b1d829c146101895780638ad3d516146101a75780638e56dfd9146101c5578063d2dcb80b146101f5578063e319be0a14610211576100a9565b80630394fbc2146100ae57806308bac402146100de5780630f5d5117146100fa5780631a39d8ef1461011857806357ce515314610136575b600080fd5b6100c860048036038101906100c3919061383d565b610241565b6040516100d591906138b3565b60405180910390f35b6100f860048036038101906100f391906138ce565b610a9e565b005b61010261198b565b60405161010f91906138b3565b60405180910390f35b610120611991565b60405161012d91906138b3565b60405180910390f35b610150600480360381019061014b9190613949565b611997565b60405161015d91906138b3565b60405180910390f35b61016e6119c9565b604051610180969594939291906139ab565b60405180910390f35b610191611a56565b60405161019e91906138b3565b60405180910390f35b6101af611a5c565b6040516101bc91906138b3565b60405180910390f35b6101df60048036038101906101da9190613a0c565b611a62565b6040516101ec91906138b3565b60405180910390f35b61020f600480360381019061020a9190613a4c565b611a87565b005b61022b60048036038101906102269190613aee565b6131a7565b60405161023891906138b3565b60405180910390f35b6000808573ffffffffffffffffffffffffffffffffffffffff166370a08231306040518263ffffffff1660e01b815260040161027d9190613b1b565b60206040518083038186803b15801561029557600080fd5b505afa1580156102a9573d6000803e3d6000fd5b505050506040513d601f19601f820116820180604052508101906102cd9190613b4b565b118015610362575060008373ffffffffffffffffffffffffffffffffffffffff166370a08231306040518263ffffffff1660e01b81526004016103109190613b1b565b60206040518083038186803b15801561032857600080fd5b505afa15801561033c573d6000803e3d6000fd5b505050506040513d601f19601f820116820180604052508101906103609190613b4b565b115b156105ec5760006103fa8673ffffffffffffffffffffffffffffffffffffffff166370a08231306040518263ffffffff1660e01b81526004016103a59190613b1b565b60206040518083038186803b1580156103bd57600080fd5b505afa1580156103d1573d6000803e3d6000fd5b505050506040513d601f19601f820116820180604052508101906103f59190613b4b565b6131a7565b9050600061048f8573ffffffffffffffffffffffffffffffffffffffff166370a08231306040518263ffffffff1660e01b815260040161043a9190613b1b565b60206040518083038186803b15801561045257600080fd5b505afa158015610466573d6000803e3d6000fd5b505050506040513d601f19601f8201168201806040525081019061048a9190613b4b565b6131a7565b90506105e381600a6104a19190613cda565b8673ffffffffffffffffffffffffffffffffffffffff166370a08231306040518263ffffffff1660e01b81526004016104da9190613b1b565b60206040518083038186803b1580156104f257600080fd5b505afa158015610506573d6000803e3d6000fd5b505050506040513d601f19601f8201168201806040525081019061052a9190613b4b565b6105349190613d54565b83600a6105419190613cda565b8973ffffffffffffffffffffffffffffffffffffffff166370a08231306040518263ffffffff1660e01b815260040161057a9190613b1b565b60206040518083038186803b15801561059257600080fd5b505afa1580156105a6573d6000803e3d6000fd5b505050506040513d601f19601f820116820180604052508101906105ca9190613b4b565b6105d49190613d54565b6105de9190613d85565b6131fe565b60068190555050505b610688848673ffffffffffffffffffffffffffffffffffffffff166370a08231306040518263ffffffff1660e01b81526004016106299190613b1b565b60206040518083038186803b15801561064157600080fd5b505afa158015610655573d6000803e3d6000fd5b505050506040513d601f19601f820116820180604052508101906106799190613b4b565b6106839190613ddf565b6131a7565b600b8190555061072a828473ffffffffffffffffffffffffffffffffffffffff166370a08231306040518263ffffffff1660e01b81526004016106cb9190613b1b565b60206040518083038186803b1580156106e357600080fd5b505afa1580156106f7573d6000803e3d6000fd5b505050506040513d601f19601f8201168201806040525081019061071b9190613b4b565b6107259190613ddf565b6131a7565b600c81905550600c54600b5410156108d157600b54600c5461074c9190613e35565b600a6107589190613cda565b600c54600a6107679190613cda565b838573ffffffffffffffffffffffffffffffffffffffff166370a08231306040518263ffffffff1660e01b81526004016107a19190613b1b565b60206040518083038186803b1580156107b957600080fd5b505afa1580156107cd573d6000803e3d6000fd5b505050506040513d601f19601f820116820180604052508101906107f19190613b4b565b6107fb9190613ddf565b6108059190613d54565b61080f9190613d85565b600b54600a61081e9190613cda565b858773ffffffffffffffffffffffffffffffffffffffff166370a08231306040518263ffffffff1660e01b81526004016108589190613b1b565b60206040518083038186803b15801561087057600080fd5b505afa158015610884573d6000803e3d6000fd5b505050506040513d601f19601f820116820180604052508101906108a89190613b4b565b6108b29190613ddf565b6108bc9190613d54565b6108c69190613d85565b600d81905550610a6f565b600c54600b541115610a6e57600c54600a6108ec9190613cda565b828473ffffffffffffffffffffffffffffffffffffffff166370a08231306040518263ffffffff1660e01b81526004016109269190613b1b565b60206040518083038186803b15801561093e57600080fd5b505afa158015610952573d6000803e3d6000fd5b505050506040513d601f19601f820116820180604052508101906109769190613b4b565b6109809190613ddf565b61098a9190613d54565b600c54600b5461099a9190613e35565b600a6109a69190613cda565b600b54600a6109b59190613cda565b868873ffffffffffffffffffffffffffffffffffffffff166370a08231306040518263ffffffff1660e01b81526004016109ef9190613b1b565b60206040518083038186803b158015610a0757600080fd5b505afa158015610a1b573d6000803e3d6000fd5b505050506040513d601f19601f82011682018060405250810190610a3f9190613b4b565b610a499190613ddf565b610a539190613d54565b610a5d9190613d85565b610a679190613d85565b600d819055505b5b6000600654610a7f600d546131fe565b610a899190613e35565b905080600a8190555080915050949350505050565b838573ffffffffffffffffffffffffffffffffffffffff166318160ddd6040518163ffffffff1660e01b815260040160206040518083038186803b158015610ae557600080fd5b505afa158015610af9573d6000803e3d6000fd5b505050506040513d601f19601f82011682018060405250810190610b1d9190613b4b565b1015610b5e576040517f08c379a0000000000000000000000000000000000000000000000000000000008152600401610b5590613ec6565b60405180910390fd5b8473ffffffffffffffffffffffffffffffffffffffff1663095ea7b383866040518363ffffffff1660e01b8152600401610b99929190613ee6565b602060405180830381600087803b158015610bb357600080fd5b505af1158015610bc7573d6000803e3d6000fd5b505050506040513d601f19601f82011682018060405250810190610beb9190613f47565b506000606485610bfb9190613d85565b9050600060075482610c0d9190613d54565b90506040518060400160405280600581526020017f4152424c50000000000000000000000000000000000000000000000000000000815250805190602001208773ffffffffffffffffffffffffffffffffffffffff166306fdde036040518163ffffffff1660e01b815260040160006040518083038186803b158015610c9257600080fd5b505afa158015610ca6573d6000803e3d6000fd5b505050506040513d6000823e3d601f19601f82011682018060405250810190610ccf91906140de565b80519060200120141561107757606481601060008a73ffffffffffffffffffffffffffffffffffffffff1673ffffffffffffffffffffffffffffffffffffffff16815260200190815260200160002060008060009054906101000a900473ffffffffffffffffffffffffffffffffffffffff1673ffffffffffffffffffffffffffffffffffffffff1673ffffffffffffffffffffffffffffffffffffffff16815260200190815260200160002054610d879190613d85565b610d919190613d54565b600881905550606481601060008a73ffffffffffffffffffffffffffffffffffffffff1673ffffffffffffffffffffffffffffffffffffffff16815260200190815260200160002060008673ffffffffffffffffffffffffffffffffffffffff1673ffffffffffffffffffffffffffffffffffffffff16815260200190815260200160002054610e219190613d85565b610e2b9190613d54565b6009819055508673ffffffffffffffffffffffffffffffffffffffff166323b872dd8686896040518463ffffffff1660e01b8152600401610e6e93929190614127565b602060405180830381600087803b158015610e8857600080fd5b505af1158015610e9c573d6000803e3d6000fd5b505050506040513d601f19601f82011682018060405250810190610ec09190613f47565b508673ffffffffffffffffffffffffffffffffffffffff16636161eb1885886040518363ffffffff1660e01b8152600401610efc929190613ee6565b600060405180830381600087803b158015610f1657600080fd5b505af1158015610f2a573d6000803e3d6000fd5b5050505060008054906101000a900473ffffffffffffffffffffffffffffffffffffffff1673ffffffffffffffffffffffffffffffffffffffff166323b872dd85876008546040518463ffffffff1660e01b8152600401610f8d93929190614127565b602060405180830381600087803b158015610fa757600080fd5b505af1158015610fbb573d6000803e3d6000fd5b505050506040513d601f19601f82011682018060405250810190610fdf9190613f47565b508273ffffffffffffffffffffffffffffffffffffffff166323b872dd85876009546040518463ffffffff1660e01b815260040161101f93929190614127565b602060405180830381600087803b15801561103957600080fd5b505af115801561104d573d6000803e3d6000fd5b505050506040513d601f19601f820116820180604052508101906110719190613f47565b50611982565b6040518060400160405280600681526020017f555344544c500000000000000000000000000000000000000000000000000000815250805190602001208773ffffffffffffffffffffffffffffffffffffffff166306fdde036040518163ffffffff1660e01b815260040160006040518083038186803b1580156110fa57600080fd5b505afa15801561110e573d6000803e3d6000fd5b505050506040513d6000823e3d601f19601f8201168201806040525081019061113791906140de565b8051906020012014156114dd576000606482601060008b73ffffffffffffffffffffffffffffffffffffffff1673ffffffffffffffffffffffffffffffffffffffff1681526020019081526020016000206000600160009054906101000a900473ffffffffffffffffffffffffffffffffffffffff1673ffffffffffffffffffffffffffffffffffffffff1673ffffffffffffffffffffffffffffffffffffffff168152602001908152602001600020546111f29190613d85565b6111fc9190613d54565b9050606482601060008b73ffffffffffffffffffffffffffffffffffffffff1673ffffffffffffffffffffffffffffffffffffffff16815260200190815260200160002060008773ffffffffffffffffffffffffffffffffffffffff1673ffffffffffffffffffffffffffffffffffffffff168152602001908152602001600020546112889190613d85565b6112929190613d54565b6009819055508773ffffffffffffffffffffffffffffffffffffffff1663095ea7b386896040518363ffffffff1660e01b81526004016112d3929190613ee6565b602060405180830381600087803b1580156112ed57600080fd5b505af1158015611301573d6000803e3d6000fd5b505050506040513d601f19601f820116820180604052508101906113259190613f47565b508773ffffffffffffffffffffffffffffffffffffffff16636161eb1886896040518363ffffffff1660e01b8152600401611361929190613ee6565b600060405180830381600087803b15801561137b57600080fd5b505af115801561138f573d6000803e3d6000fd5b50505050600160009054906101000a900473ffffffffffffffffffffffffffffffffffffffff1673ffffffffffffffffffffffffffffffffffffffff166323b872dd8688846040518463ffffffff1660e01b81526004016113f293929190614127565b602060405180830381600087803b15801561140c57600080fd5b505af1158015611420573d6000803e3d6000fd5b505050506040513d601f19601f820116820180604052508101906114449190613f47565b508373ffffffffffffffffffffffffffffffffffffffff166323b872dd86886009546040518463ffffffff1660e01b815260040161148493929190614127565b602060405180830381600087803b15801561149e57600080fd5b505af11580156114b2573d6000803e3d6000fd5b505050506040513d601f19601f820116820180604052508101906114d69190613f47565b5050611981565b6040518060400160405280600581526020017f4554484c50000000000000000000000000000000000000000000000000000000815250805190602001208773ffffffffffffffffffffffffffffffffffffffff166306fdde036040518163ffffffff1660e01b815260040160006040518083038186803b15801561156057600080fd5b505afa158015611574573d6000803e3d6000fd5b505050506040513d6000823e3d601f19601f8201168201806040525081019061159d91906140de565b805190602001201415611945576000600e5482601060008b73ffffffffffffffffffffffffffffffffffffffff1673ffffffffffffffffffffffffffffffffffffffff1681526020019081526020016000206000600260009054906101000a900473ffffffffffffffffffffffffffffffffffffffff1673ffffffffffffffffffffffffffffffffffffffff1673ffffffffffffffffffffffffffffffffffffffff168152602001908152602001600020546116599190613d85565b6116639190613d54565b9050600e5482601060008b73ffffffffffffffffffffffffffffffffffffffff1673ffffffffffffffffffffffffffffffffffffffff16815260200190815260200160002060008773ffffffffffffffffffffffffffffffffffffffff1673ffffffffffffffffffffffffffffffffffffffff168152602001908152602001600020546116f09190613d85565b6116fa9190613d54565b6009819055508773ffffffffffffffffffffffffffffffffffffffff1663095ea7b386896040518363ffffffff1660e01b815260040161173b929190613ee6565b602060405180830381600087803b15801561175557600080fd5b505af1158015611769573d6000803e3d6000fd5b505050506040513d601f19601f8201168201806040525081019061178d9190613f47565b508773ffffffffffffffffffffffffffffffffffffffff16636161eb1886896040518363ffffffff1660e01b81526004016117c9929190613ee6565b600060405180830381600087803b1580156117e357600080fd5b505af11580156117f7573d6000803e3d6000fd5b50505050600260009054906101000a900473ffffffffffffffffffffffffffffffffffffffff1673ffffffffffffffffffffffffffffffffffffffff166323b872dd8688846040518463ffffffff1660e01b815260040161185a93929190614127565b602060405180830381600087803b15801561187457600080fd5b505af1158015611888573d6000803e3d6000fd5b505050506040513d601f19601f820116820180604052508101906118ac9190613f47565b508373ffffffffffffffffffffffffffffffffffffffff166323b872dd86886009546040518463ffffffff1660e01b81526004016118ec93929190614127565b602060405180830381600087803b15801561190657600080fd5b505af115801561191a573d6000803e3d6000fd5b505050506040513d601f19601f8201168201806040525081019061193e9190613f47565b5050611980565b6040517f08c379a0000000000000000000000000000000000000000000000000000000008152600401611977906141aa565b60405180910390fd5b5b5b50505050505050565b600a5481565b600d5481565b600f60205282600052604060002060205281600052604060002060205280600052604060002060009250925050505481565b60008060008060008060085460095460075460008054906101000a900473ffffffffffffffffffffffffffffffffffffffff16600160009054906101000a900473ffffffffffffffffffffffffffffffffffffffff16600260009054906101000a900473ffffffffffffffffffffffffffffffffffffffff16955095509550955095509550909192939495565b600b5481565b600c5481565b6010602052816000526040600020602052806000526040600020600091509150505481565b6000808891508690508273ffffffffffffffffffffffffffffffffffffffff1663d1e9a5fd6040518163ffffffff1660e01b815260040160606040518083038186803b158015611ad657600080fd5b505afa158015611aea573d6000803e3d6000fd5b505050506040513d601f19601f82011682018060405250810190611b0e91906141df565b6003600060046000600560008691906101000a81548173ffffffffffffffffffffffffffffffffffffffff021916908373ffffffffffffffffffffffffffffffffffffffff1602179055508591906101000a81548173ffffffffffffffffffffffffffffffffffffffff021916908373ffffffffffffffffffffffffffffffffffffffff1602179055508491906101000a81548173ffffffffffffffffffffffffffffffffffffffff021916908373ffffffffffffffffffffffffffffffffffffffff1602179055505050508173ffffffffffffffffffffffffffffffffffffffff1663095ea7b3858a6040518363ffffffff1660e01b8152600401611c15929190613ee6565b602060405180830381600087803b158015611c2f57600080fd5b505af1158015611c43573d6000803e3d6000fd5b505050506040513d601f19601f82011682018060405250810190611c679190613f47565b508073ffffffffffffffffffffffffffffffffffffffff1663095ea7b385886040518363ffffffff1660e01b8152600401611ca3929190613ee6565b602060405180830381600087803b158015611cbd57600080fd5b505af1158015611cd1573d6000803e3d6000fd5b505050506040513d601f19601f82011682018060405250810190611cf59190613f47565b508173ffffffffffffffffffffffffffffffffffffffff166323b872dd86868b6040518463ffffffff1660e01b8152600401611d3393929190614127565b602060405180830381600087803b158015611d4d57600080fd5b505af1158015611d61573d6000803e3d6000fd5b505050506040513d601f19601f82011682018060405250810190611d859190613f47565b508073ffffffffffffffffffffffffffffffffffffffff166323b872dd8686896040518463ffffffff1660e01b8152600401611dc393929190614127565b602060405180830381600087803b158015611ddd57600080fd5b505af1158015611df1573d6000803e3d6000fd5b505050506040513d601f19601f82011682018060405250810190611e159190613f47565b506040518060400160405280600381526020017f4152420000000000000000000000000000000000000000000000000000000000815250805190602001208273ffffffffffffffffffffffffffffffffffffffff166306fdde036040518163ffffffff1660e01b815260040160006040518083038186803b158015611e9957600080fd5b505afa158015611ead573d6000803e3d6000fd5b505050506040513d6000823e3d601f19601f82011682018060405250810190611ed691906140de565b80519060200120141561248357886000806101000a81548173ffffffffffffffffffffffffffffffffffffffff021916908373ffffffffffffffffffffffffffffffffffffffff16021790555087600f60008773ffffffffffffffffffffffffffffffffffffffff1673ffffffffffffffffffffffffffffffffffffffff1681526020019081526020016000206000600360009054906101000a900473ffffffffffffffffffffffffffffffffffffffff1673ffffffffffffffffffffffffffffffffffffffff1673ffffffffffffffffffffffffffffffffffffffff16815260200190815260200160002060008b73ffffffffffffffffffffffffffffffffffffffff1673ffffffffffffffffffffffffffffffffffffffff168152602001908152602001600020600082825461200e9190613ddf565b9250508190555085600f60008773ffffffffffffffffffffffffffffffffffffffff1673ffffffffffffffffffffffffffffffffffffffff1681526020019081526020016000206000600360009054906101000a900473ffffffffffffffffffffffffffffffffffffffff1673ffffffffffffffffffffffffffffffffffffffff1673ffffffffffffffffffffffffffffffffffffffff16815260200190815260200160002060008973ffffffffffffffffffffffffffffffffffffffff1673ffffffffffffffffffffffffffffffffffffffff16815260200190815260200160002060008282546121009190613ddf565b9250508190555060006122cb8a600f60008973ffffffffffffffffffffffffffffffffffffffff1673ffffffffffffffffffffffffffffffffffffffff1681526020019081526020016000206000600360009054906101000a900473ffffffffffffffffffffffffffffffffffffffff1673ffffffffffffffffffffffffffffffffffffffff1673ffffffffffffffffffffffffffffffffffffffff16815260200190815260200160002060008d73ffffffffffffffffffffffffffffffffffffffff1673ffffffffffffffffffffffffffffffffffffffff168152602001908152602001600020548a600f60008b73ffffffffffffffffffffffffffffffffffffffff1673ffffffffffffffffffffffffffffffffffffffff1681526020019081526020016000206000600360009054906101000a900473ffffffffffffffffffffffffffffffffffffffff1673ffffffffffffffffffffffffffffffffffffffff1673ffffffffffffffffffffffffffffffffffffffff16815260200190815260200160002060008d73ffffffffffffffffffffffffffffffffffffffff1673ffffffffffffffffffffffffffffffffffffffff16815260200190815260200160002054610241565b90508860106000600360009054906101000a900473ffffffffffffffffffffffffffffffffffffffff1673ffffffffffffffffffffffffffffffffffffffff1673ffffffffffffffffffffffffffffffffffffffff16815260200190815260200160002060008c73ffffffffffffffffffffffffffffffffffffffff1673ffffffffffffffffffffffffffffffffffffffff168152602001908152602001600020600082825461237b9190613ddf565b925050819055508660106000600360009054906101000a900473ffffffffffffffffffffffffffffffffffffffff1673ffffffffffffffffffffffffffffffffffffffff1673ffffffffffffffffffffffffffffffffffffffff16815260200190815260200160002060008a73ffffffffffffffffffffffffffffffffffffffff1673ffffffffffffffffffffffffffffffffffffffff16815260200190815260200160002060008282546124309190613ddf565b925050819055506124648682600360009054906101000a900473ffffffffffffffffffffffffffffffffffffffff16613285565b80600760008282546124769190613ddf565b925050819055505061319c565b6040518060400160405280600481526020017f5553445400000000000000000000000000000000000000000000000000000000815250805190602001208273ffffffffffffffffffffffffffffffffffffffff166306fdde036040518163ffffffff1660e01b815260040160006040518083038186803b15801561250657600080fd5b505afa15801561251a573d6000803e3d6000fd5b505050506040513d6000823e3d601f19601f8201168201806040525081019061254391906140de565b805190602001201415612af15788600160006101000a81548173ffffffffffffffffffffffffffffffffffffffff021916908373ffffffffffffffffffffffffffffffffffffffff16021790555087600f60008773ffffffffffffffffffffffffffffffffffffffff1673ffffffffffffffffffffffffffffffffffffffff1681526020019081526020016000206000600460009054906101000a900473ffffffffffffffffffffffffffffffffffffffff1673ffffffffffffffffffffffffffffffffffffffff1673ffffffffffffffffffffffffffffffffffffffff16815260200190815260200160002060008b73ffffffffffffffffffffffffffffffffffffffff1673ffffffffffffffffffffffffffffffffffffffff168152602001908152602001600020600082825461267c9190613ddf565b9250508190555085600f60008773ffffffffffffffffffffffffffffffffffffffff1673ffffffffffffffffffffffffffffffffffffffff1681526020019081526020016000206000600460009054906101000a900473ffffffffffffffffffffffffffffffffffffffff1673ffffffffffffffffffffffffffffffffffffffff1673ffffffffffffffffffffffffffffffffffffffff16815260200190815260200160002060008973ffffffffffffffffffffffffffffffffffffffff1673ffffffffffffffffffffffffffffffffffffffff168152602001908152602001600020600082825461276e9190613ddf565b9250508190555060006129398a600f60008973ffffffffffffffffffffffffffffffffffffffff1673ffffffffffffffffffffffffffffffffffffffff1681526020019081526020016000206000600460009054906101000a900473ffffffffffffffffffffffffffffffffffffffff1673ffffffffffffffffffffffffffffffffffffffff1673ffffffffffffffffffffffffffffffffffffffff16815260200190815260200160002060008d73ffffffffffffffffffffffffffffffffffffffff1673ffffffffffffffffffffffffffffffffffffffff168152602001908152602001600020548a600f60008b73ffffffffffffffffffffffffffffffffffffffff1673ffffffffffffffffffffffffffffffffffffffff1681526020019081526020016000206000600460009054906101000a900473ffffffffffffffffffffffffffffffffffffffff1673ffffffffffffffffffffffffffffffffffffffff1673ffffffffffffffffffffffffffffffffffffffff16815260200190815260200160002060008d73ffffffffffffffffffffffffffffffffffffffff1673ffffffffffffffffffffffffffffffffffffffff16815260200190815260200160002054610241565b90508860106000600460009054906101000a900473ffffffffffffffffffffffffffffffffffffffff1673ffffffffffffffffffffffffffffffffffffffff1673ffffffffffffffffffffffffffffffffffffffff16815260200190815260200160002060008c73ffffffffffffffffffffffffffffffffffffffff1673ffffffffffffffffffffffffffffffffffffffff16815260200190815260200160002060008282546129e99190613ddf565b925050819055508660106000600460009054906101000a900473ffffffffffffffffffffffffffffffffffffffff1673ffffffffffffffffffffffffffffffffffffffff1673ffffffffffffffffffffffffffffffffffffffff16815260200190815260200160002060008a73ffffffffffffffffffffffffffffffffffffffff1673ffffffffffffffffffffffffffffffffffffffff1681526020019081526020016000206000828254612a9e9190613ddf565b92505081905550612ad28682600460009054906101000a900473ffffffffffffffffffffffffffffffffffffffff16613435565b8060076000828254612ae49190613ddf565b925050819055505061319b565b6040518060400160405280600381526020017f4554480000000000000000000000000000000000000000000000000000000000815250805190602001208273ffffffffffffffffffffffffffffffffffffffff166306fdde036040518163ffffffff1660e01b815260040160006040518083038186803b158015612b7457600080fd5b505afa158015612b88573d6000803e3d6000fd5b505050506040513d6000823e3d601f19601f82011682018060405250810190612bb191906140de565b80519060200120141561315f5788600260006101000a81548173ffffffffffffffffffffffffffffffffffffffff021916908373ffffffffffffffffffffffffffffffffffffffff16021790555087600f60008773ffffffffffffffffffffffffffffffffffffffff1673ffffffffffffffffffffffffffffffffffffffff1681526020019081526020016000206000600560009054906101000a900473ffffffffffffffffffffffffffffffffffffffff1673ffffffffffffffffffffffffffffffffffffffff1673ffffffffffffffffffffffffffffffffffffffff16815260200190815260200160002060008b73ffffffffffffffffffffffffffffffffffffffff1673ffffffffffffffffffffffffffffffffffffffff1681526020019081526020016000206000828254612cea9190613ddf565b9250508190555085600f60008773ffffffffffffffffffffffffffffffffffffffff1673ffffffffffffffffffffffffffffffffffffffff1681526020019081526020016000206000600560009054906101000a900473ffffffffffffffffffffffffffffffffffffffff1673ffffffffffffffffffffffffffffffffffffffff1673ffffffffffffffffffffffffffffffffffffffff16815260200190815260200160002060008973ffffffffffffffffffffffffffffffffffffffff1673ffffffffffffffffffffffffffffffffffffffff1681526020019081526020016000206000828254612ddc9190613ddf565b925050819055506000612fa78a600f60008973ffffffffffffffffffffffffffffffffffffffff1673ffffffffffffffffffffffffffffffffffffffff1681526020019081526020016000206000600560009054906101000a900473ffffffffffffffffffffffffffffffffffffffff1673ffffffffffffffffffffffffffffffffffffffff1673ffffffffffffffffffffffffffffffffffffffff16815260200190815260200160002060008d73ffffffffffffffffffffffffffffffffffffffff1673ffffffffffffffffffffffffffffffffffffffff168152602001908152602001600020548a600f60008b73ffffffffffffffffffffffffffffffffffffffff1673ffffffffffffffffffffffffffffffffffffffff1681526020019081526020016000206000600560009054906101000a900473ffffffffffffffffffffffffffffffffffffffff1673ffffffffffffffffffffffffffffffffffffffff1673ffffffffffffffffffffffffffffffffffffffff16815260200190815260200160002060008d73ffffffffffffffffffffffffffffffffffffffff1673ffffffffffffffffffffffffffffffffffffffff16815260200190815260200160002054610241565b90508860106000600560009054906101000a900473ffffffffffffffffffffffffffffffffffffffff1673ffffffffffffffffffffffffffffffffffffffff1673ffffffffffffffffffffffffffffffffffffffff16815260200190815260200160002060008c73ffffffffffffffffffffffffffffffffffffffff1673ffffffffffffffffffffffffffffffffffffffff16815260200190815260200160002060008282546130579190613ddf565b925050819055508660106000600560009054906101000a900473ffffffffffffffffffffffffffffffffffffffff1673ffffffffffffffffffffffffffffffffffffffff1673ffffffffffffffffffffffffffffffffffffffff16815260200190815260200160002060008a73ffffffffffffffffffffffffffffffffffffffff1673ffffffffffffffffffffffffffffffffffffffff168152602001908152602001600020600082825461310c9190613ddf565b925050819055506131408682600560009054906101000a900473ffffffffffffffffffffffffffffffffffffffff166135e5565b80600760008282546131529190613ddf565b925050819055505061319a565b6040517f08c379a0000000000000000000000000000000000000000000000000000000008152600401613191906141aa565b60405180910390fd5b5b5b505050505050505050565b6000808214156131ba57600190506131f9565b60005b60008311156131e85780806131d190614232565b915050600a836131e19190613d54565b92506131bd565b6001816131f59190613e35565b9150505b919050565b6000808214156132115760009050613280565b600382116132225760019050613280565b600060026001846132339190613ddf565b61323d9190613d54565b905060008390505b8082101561327a57819050600282838661325f9190613d54565b6132699190613ddf565b6132739190613d54565b9150613245565b80925050505b919050565b8073ffffffffffffffffffffffffffffffffffffffff1663a0712d68836040518263ffffffff1660e01b81526004016132be91906138b3565b600060405180830381600087803b1580156132d857600080fd5b505af11580156132ec573d6000803e3d6000fd5b505050508073ffffffffffffffffffffffffffffffffffffffff1663095ea7b384846040518363ffffffff1660e01b815260040161332b929190613ee6565b602060405180830381600087803b15801561334557600080fd5b505af1158015613359573d6000803e3d6000fd5b505050506040513d601f19601f8201168201806040525081019061337d9190613f47565b508073ffffffffffffffffffffffffffffffffffffffff166323b872dd600360009054906101000a900473ffffffffffffffffffffffffffffffffffffffff1685856040518463ffffffff1660e01b81526004016133dd93929190614127565b602060405180830381600087803b1580156133f757600080fd5b505af115801561340b573d6000803e3d6000fd5b505050506040513d601f19601f8201168201806040525081019061342f9190613f47565b50505050565b8073ffffffffffffffffffffffffffffffffffffffff1663a0712d68836040518263ffffffff1660e01b815260040161346e91906138b3565b600060405180830381600087803b15801561348857600080fd5b505af115801561349c573d6000803e3d6000fd5b505050508073ffffffffffffffffffffffffffffffffffffffff1663095ea7b384846040518363ffffffff1660e01b81526004016134db929190613ee6565b602060405180830381600087803b1580156134f557600080fd5b505af1158015613509573d6000803e3d6000fd5b505050506040513d601f19601f8201168201806040525081019061352d9190613f47565b508073ffffffffffffffffffffffffffffffffffffffff166323b872dd600460009054906101000a900473ffffffffffffffffffffffffffffffffffffffff1685856040518463ffffffff1660e01b815260040161358d93929190614127565b602060405180830381600087803b1580156135a757600080fd5b505af11580156135bb573d6000803e3d6000fd5b505050506040513d601f19601f820116820180604052508101906135df9190613f47565b50505050565b8073ffffffffffffffffffffffffffffffffffffffff1663a0712d68836040518263ffffffff1660e01b815260040161361e91906138b3565b600060405180830381600087803b15801561363857600080fd5b505af115801561364c573d6000803e3d6000fd5b505050508073ffffffffffffffffffffffffffffffffffffffff1663095ea7b384846040518363ffffffff1660e01b815260040161368b929190613ee6565b602060405180830381600087803b1580156136a557600080fd5b505af11580156136b9573d6000803e3d6000fd5b505050506040513d601f19601f820116820180604052508101906136dd9190613f47565b508073ffffffffffffffffffffffffffffffffffffffff166323b872dd600560009054906101000a900473ffffffffffffffffffffffffffffffffffffffff1685856040518463ffffffff1660e01b815260040161373d93929190614127565b602060405180830381600087803b15801561375757600080fd5b505af115801561376b573d6000803e3d6000fd5b505050506040513d601f19601f8201168201806040525081019061378f9190613f47565b50505050565b6000604051905090565b600080fd5b600080fd5b600073ffffffffffffffffffffffffffffffffffffffff82169050919050565b60006137d4826137a9565b9050919050565b6137e4816137c9565b81146137ef57600080fd5b50565b600081359050613801816137db565b92915050565b6000819050919050565b61381a81613807565b811461382557600080fd5b50565b60008135905061383781613811565b92915050565b600080600080608085870312156138575761385661379f565b5b6000613865878288016137f2565b945050602061387687828801613828565b9350506040613887878288016137f2565b925050606061389887828801613828565b91505092959194509250565b6138ad81613807565b82525050565b60006020820190506138c860008301846138a4565b92915050565b600080600080600060a086880312156138ea576138e961379f565b5b60006138f8888289016137f2565b955050602061390988828901613828565b945050604061391a888289016137f2565b935050606061392b888289016137f2565b925050608061393c888289016137f2565b9150509295509295909350565b6000806000606084860312156139625761396161379f565b5b6000613970868287016137f2565b9350506020613981868287016137f2565b9250506040613992868287016137f2565b9150509250925092565b6139a5816137c9565b82525050565b600060c0820190506139c060008301896138a4565b6139cd60208301886138a4565b6139da60408301876138a4565b6139e7606083018661399c565b6139f4608083018561399c565b613a0160a083018461399c565b979650505050505050565b60008060408385031215613a2357613a2261379f565b5b6000613a31858286016137f2565b9250506020613a42858286016137f2565b9150509250929050565b600080600080600080600060e0888a031215613a6b57613a6a61379f565b5b6000613a798a828b016137f2565b9750506020613a8a8a828b01613828565b9650506040613a9b8a828b016137f2565b9550506060613aac8a828b01613828565b9450506080613abd8a828b016137f2565b93505060a0613ace8a828b016137f2565b92505060c0613adf8a828b016137f2565b91505092959891949750929550565b600060208284031215613b0457613b0361379f565b5b6000613b1284828501613828565b91505092915050565b6000602082019050613b30600083018461399c565b92915050565b600081519050613b4581613811565b92915050565b600060208284031215613b6157613b6061379f565b5b6000613b6f84828501613b36565b91505092915050565b7f4e487b7100000000000000000000000000000000000000000000000000000000600052601160045260246000fd5b60008160011c9050919050565b6000808291508390505b6001851115613bfe57808604811115613bda57613bd9613b78565b5b6001851615613be95780820291505b8081029050613bf785613ba7565b9450613bbe565b94509492505050565b600082613c175760019050613cd3565b81613c255760009050613cd3565b8160018114613c3b5760028114613c4557613c74565b6001915050613cd3565b60ff841115613c5757613c56613b78565b5b8360020a915084821115613c6e57613c6d613b78565b5b50613cd3565b5060208310610133831016604e8410600b8410161715613ca95782820a905083811115613ca457613ca3613b78565b5b613cd3565b613cb68484846001613bb4565b92509050818404811115613ccd57613ccc613b78565b5b81810290505b9392505050565b6000613ce582613807565b9150613cf083613807565b9250613d1d7fffffffffffffffffffffffffffffffffffffffffffffffffffffffffffffffff8484613c07565b905092915050565b7f4e487b7100000000000000000000000000000000000000000000000000000000600052601260045260246000fd5b6000613d5f82613807565b9150613d6a83613807565b925082613d7a57613d79613d25565b5b828204905092915050565b6000613d9082613807565b9150613d9b83613807565b9250817fffffffffffffffffffffffffffffffffffffffffffffffffffffffffffffffff0483118215151615613dd457613dd3613b78565b5b828202905092915050565b6000613dea82613807565b9150613df583613807565b9250827fffffffffffffffffffffffffffffffffffffffffffffffffffffffffffffffff03821115613e2a57613e29613b78565b5b828201905092915050565b6000613e4082613807565b9150613e4b83613807565b925082821015613e5e57613e5d613b78565b5b828203905092915050565b600082825260208201905092915050565b7f696e73756666696369656e74206c7020616d6f756e7400000000000000000000600082015250565b6000613eb0601683613e69565b9150613ebb82613e7a565b602082019050919050565b60006020820190508181036000830152613edf81613ea3565b9050919050565b6000604082019050613efb600083018561399c565b613f0860208301846138a4565b9392505050565b60008115159050919050565b613f2481613f0f565b8114613f2f57600080fd5b50565b600081519050613f4181613f1b565b92915050565b600060208284031215613f5d57613f5c61379f565b5b6000613f6b84828501613f32565b91505092915050565b600080fd5b600080fd5b6000601f19601f8301169050919050565b7f4e487b7100000000000000000000000000000000000000000000000000000000600052604160045260246000fd5b613fc782613f7e565b810181811067ffffffffffffffff82111715613fe657613fe5613f8f565b5b80604052505050565b6000613ff9613795565b90506140058282613fbe565b919050565b600067ffffffffffffffff82111561402557614024613f8f565b5b61402e82613f7e565b9050602081019050919050565b60005b8381101561405957808201518184015260208101905061403e565b83811115614068576000848401525b50505050565b600061408161407c8461400a565b613fef565b90508281526020810184848401111561409d5761409c613f79565b5b6140a884828561403b565b509392505050565b600082601f8301126140c5576140c4613f74565b5b81516140d584826020860161406e565b91505092915050565b6000602082840312156140f4576140f361379f565b5b600082015167ffffffffffffffff811115614112576141116137a4565b5b61411e848285016140b0565b91505092915050565b600060608201905061413c600083018661399c565b614149602083018561399c565b61415660408301846138a4565b949350505050565b7f556e737570706f7274656420746f6b656e000000000000000000000000000000600082015250565b6000614194601183613e69565b915061419f8261415e565b602082019050919050565b600060208201905081810360008301526141c381614187565b9050919050565b6000815190506141d9816137db565b92915050565b6000806000606084860312156141f8576141f761379f565b5b6000614206868287016141ca565b9350506020614217868287016141ca565b9250506040614228868287016141ca565b9150509250925092565b600061423d82613807565b91507fffffffffffffffffffffffffffffffffffffffffffffffffffffffffffffffff8214156142705761426f613b78565b5b60018201905091905056fea2646970667358221220acf8d3e8d674ce93649a1e89ec2353c4bfb4dcda27a33c401a5482d7ae0a509a64736f6c6343000809003360806040527362cae0fa2da220f43a51f86db2edb36dca9a5a08600b60006101000a81548173ffffffffffffffffffffffffffffffffffffffff021916908373ffffffffffffffffffffffffffffffffffffffff160217905550730a023a3423d9b27a0be48c768ccf2dd7877fef5e600c60006101000a81548173ffffffffffffffffffffffffffffffffffffffff021916908373ffffffffffffffffffffffffffffffffffffffff160217905550732ee9bfb2d319b31a573ea15774b755715988e99d600d60006101000a81548173ffffffffffffffffffffffffffffffffffffffff021916908373ffffffffffffffffffffffffffffffffffffffff1602179055503480156200011057600080fd5b50604051620024933803806200249383398181016040528101906200013691906200034a565b306000806101000a81548173ffffffffffffffffffffffffffffffffffffffff021916908373ffffffffffffffffffffffffffffffffffffffff16021790555080600181905550600b60009054906101000a900473ffffffffffffffffffffffffffffffffffffffff16600c60009054906101000a900473ffffffffffffffffffffffffffffffffffffffff16600d60009054906101000a900473ffffffffffffffffffffffffffffffffffffffff16604051620001f490620002fc565b6200020293929190620003c1565b604051809103906000f0801580156200021f573d6000803e3d6000fd5b50600a60006101000a81548173ffffffffffffffffffffffffffffffffffffffff021916908373ffffffffffffffffffffffffffffffffffffffff160217905550621e8480600e604051620002749062000459565b9081526020016040518091039020819055506103e8600e6040516200029990620004c0565b9081526020016040518091039020819055506103e8600e604051620002be9062000527565b9081526020016040518091039020819055506103e8600e604051620002e3906200058e565b90815260200160405180910390208190555050620005a5565b610bd380620018c083390190565b600080fd5b6000819050919050565b62000324816200030f565b81146200033057600080fd5b50565b600081519050620003448162000319565b92915050565b6000602082840312156200036357620003626200030a565b5b6000620003738482850162000333565b91505092915050565b600073ffffffffffffffffffffffffffffffffffffffff82169050919050565b6000620003a9826200037c565b9050919050565b620003bb816200039c565b82525050565b6000606082019050620003d86000830186620003b0565b620003e76020830185620003b0565b620003f66040830184620003b0565b949350505050565b600081905092915050565b7f4554480000000000000000000000000000000000000000000000000000000000600082015250565b600062000441600383620003fe565b91506200044e8262000409565b600382019050919050565b6000620004668262000432565b9150819050919050565b7f4152420000000000000000000000000000000000000000000000000000000000600082015250565b6000620004a8600383620003fe565b9150620004b58262000470565b600382019050919050565b6000620004cd8262000499565b9150819050919050565b7f5553445400000000000000000000000000000000000000000000000000000000600082015250565b60006200050f600483620003fe565b91506200051c82620004d7565b600482019050919050565b6000620005348262000500565b9150819050919050565b7f4153440000000000000000000000000000000000000000000000000000000000600082015250565b600062000576600383620003fe565b915062000583826200053e565b600382019050919050565b60006200059b8262000567565b9150819050919050565b61130b80620005b56000396000f3fe6080604052600436106101135760003560e01c806361f62302116100a0578063a1973af111610064578063a1973af114610395578063a469d8ae146103d2578063baf0bfd3146103fd578063f015ad3314610428578063fd8765761461044457610113565b806361f62302146102be57806388eed374146102e95780638af5de72146103145780638e10aa081461033f578063a001ecdd1461036a57610113565b806346904840116100e757806346904840146101c457806351b429a0146101ef5780635572eab914610218578063580fcf8114610243578063587bbca21461028157610113565b8062b210f6146101185780632630c12f146101435780632cc812bc1461016e57806340a7023914610199575b600080fd5b34801561012457600080fd5b5061012d61046f565b60405161013a9190610ae3565b60405180910390f35b34801561014f57600080fd5b50610158610475565b6040516101659190610b7d565b60405180910390f35b34801561017a57600080fd5b5061018361049b565b6040516101909190610ae3565b60405180910390f35b3480156101a557600080fd5b506101ae6104a1565b6040516101bb9190610ae3565b60405180910390f35b3480156101d057600080fd5b506101d96104a7565b6040516101e69190610bb9565b60405180910390f35b3480156101fb57600080fd5b5061021660048036038101906102119190610c40565b6104cb565b005b34801561022457600080fd5b5061022d61065f565b60405161023a9190610ae3565b60405180910390f35b34801561024f57600080fd5b5061026a60048036038101906102659190610cbb565b610665565b604051610278929190610ce8565b60405180910390f35b34801561028d57600080fd5b506102a860048036038101906102a39190610e57565b6106b6565b6040516102b59190610ae3565b60405180910390f35b3480156102ca57600080fd5b506102d36106e4565b6040516102e09190610bb9565b60405180910390f35b3480156102f557600080fd5b506102fe61070a565b60405161030b9190610ae3565b60405180910390f35b34801561032057600080fd5b50610329610710565b6040516103369190610ae3565b60405180910390f35b34801561034b57600080fd5b50610354610716565b6040516103619190610bb9565b60405180910390f35b34801561037657600080fd5b5061037f61073c565b60405161038c9190610ae3565b60405180910390f35b3480156103a157600080fd5b506103bc60048036038101906103b79190610ea0565b610742565b6040516103c99190610ae3565b60405180910390f35b3480156103de57600080fd5b506103e76107c2565b6040516103f49190610ae3565b60405180910390f35b34801561040957600080fd5b506104126107c8565b60405161041f9190610bb9565b60405180910390f35b610442600480360381019061043d9190610ef3565b6107ee565b005b34801561045057600080fd5b50610459610ac4565b6040516104669190610ae3565b60405180910390f35b60035481565b600a60009054906101000a900473ffffffffffffffffffffffffffffffffffffffff1681565b60025481565b60085481565b60008054906101000a900473ffffffffffffffffffffffffffffffffffffffff1681565b6000806000808873ffffffffffffffffffffffffffffffffffffffff166306fdde036040518163ffffffff1660e01b815260040160006040518083038186803b15801561051757600080fd5b505afa15801561052b573d6000803e3d6000fd5b505050506040513d6000823e3d601f19601f82011682018060405250810190610554919061104c565b905060008873ffffffffffffffffffffffffffffffffffffffff166306fdde036040518163ffffffff1660e01b815260040160006040518083038186803b15801561059e57600080fd5b505afa1580156105b2573d6000803e3d6000fd5b505050506040513d6000823e3d601f19601f820116820180604052508101906105db919061104c565b90506000600e836040516105ef91906110dc565b90815260200160405180910390205490506000600e8360405161061291906110dc565b908152602001604051809103902054905061062c88610665565b809650819750505061063f858383610742565b96506106518c8c8c8c8c8c8c8c6107ee565b505050505050505050505050565b60045481565b600080600066038d7ea4c6800060015461067f9190611122565b905080670de0b6b3a76400008561069691906111ab565b6106a09190611122565b925082846106ae91906111dc565b915050915091565b600e818051602081018201805184825260208301602085012081835280955050505050506000915090505481565b600c60009054906101000a900473ffffffffffffffffffffffffffffffffffffffff1681565b60055481565b60095481565b600d60009054906101000a900473ffffffffffffffffffffffffffffffffffffffff1681565b60015481565b6000806000808486101561078057858561075c91906111ab565b91506001905081878261076f9190611122565b61077991906111ab565b92506107b5565b848611156107b45760019150848661079891906111ab565b90508187826107a79190611122565b6107b191906111ab565b92505b5b8293505050509392505050565b60065481565b600b60009054906101000a900473ffffffffffffffffffffffffffffffffffffffff1681565b8773ffffffffffffffffffffffffffffffffffffffff1663095ea7b386866040518363ffffffff1660e01b8152600401610829929190611210565b602060405180830381600087803b15801561084357600080fd5b505af1158015610857573d6000803e3d6000fd5b505050506040513d601f19601f8201168201806040525081019061087b9190611271565b508673ffffffffffffffffffffffffffffffffffffffff1663095ea7b386856040518363ffffffff1660e01b81526004016108b7929190611210565b602060405180830381600087803b1580156108d157600080fd5b505af11580156108e5573d6000803e3d6000fd5b505050506040513d601f19601f820116820180604052508101906109099190611271565b508773ffffffffffffffffffffffffffffffffffffffff166323b872dd8787846040518463ffffffff1660e01b81526004016109479392919061129e565b602060405180830381600087803b15801561096157600080fd5b505af1158015610975573d6000803e3d6000fd5b505050506040513d601f19601f820116820180604052508101906109999190611271565b508773ffffffffffffffffffffffffffffffffffffffff166323b872dd8787856040518463ffffffff1660e01b81526004016109d79392919061129e565b602060405180830381600087803b1580156109f157600080fd5b505af1158015610a05573d6000803e3d6000fd5b505050506040513d601f19601f82011682018060405250810190610a299190611271565b508673ffffffffffffffffffffffffffffffffffffffff166323b872dd8688866040518463ffffffff1660e01b8152600401610a679392919061129e565b602060405180830381600087803b158015610a8157600080fd5b505af1158015610a95573d6000803e3d6000fd5b505050506040513d601f19601f82011682018060405250810190610ab99190611271565b505050505050505050565b60075481565b6000819050919050565b610add81610aca565b82525050565b6000602082019050610af86000830184610ad4565b92915050565b600073ffffffffffffffffffffffffffffffffffffffff82169050919050565b6000819050919050565b6000610b43610b3e610b3984610afe565b610b1e565b610afe565b9050919050565b6000610b5582610b28565b9050919050565b6000610b6782610b4a565b9050919050565b610b7781610b5c565b82525050565b6000602082019050610b926000830184610b6e565b92915050565b6000610ba382610afe565b9050919050565b610bb381610b98565b82525050565b6000602082019050610bce6000830184610baa565b92915050565b6000604051905090565b600080fd5b600080fd5b610bf181610b98565b8114610bfc57600080fd5b50565b600081359050610c0e81610be8565b92915050565b610c1d81610aca565b8114610c2857600080fd5b50565b600081359050610c3a81610c14565b92915050565b600080600080600060a08688031215610c5c57610c5b610bde565b5b6000610c6a88828901610bff565b9550506020610c7b88828901610bff565b9450506040610c8c88828901610bff565b9350506060610c9d88828901610bff565b9250506080610cae88828901610c2b565b9150509295509295909350565b600060208284031215610cd157610cd0610bde565b5b6000610cdf84828501610c2b565b91505092915050565b6000604082019050610cfd6000830185610ad4565b610d0a6020830184610ad4565b9392505050565b600080fd5b600080fd5b6000601f19601f8301169050919050565b7f4e487b7100000000000000000000000000000000000000000000000000000000600052604160045260246000fd5b610d6482610d1b565b810181811067ffffffffffffffff82111715610d8357610d82610d2c565b5b80604052505050565b6000610d96610bd4565b9050610da28282610d5b565b919050565b600067ffffffffffffffff821115610dc257610dc1610d2c565b5b610dcb82610d1b565b9050602081019050919050565b82818337600083830152505050565b6000610dfa610df584610da7565b610d8c565b905082815260208101848484011115610e1657610e15610d16565b5b610e21848285610dd8565b509392505050565b600082601f830112610e3e57610e3d610d11565b5b8135610e4e848260208601610de7565b91505092915050565b600060208284031215610e6d57610e6c610bde565b5b600082013567ffffffffffffffff811115610e8b57610e8a610be3565b5b610e9784828501610e29565b91505092915050565b600080600060608486031215610eb957610eb8610bde565b5b6000610ec786828701610c2b565b9350506020610ed886828701610c2b565b9250506040610ee986828701610c2b565b9150509250925092565b600080600080600080600080610100898b031215610f1457610f13610bde565b5b6000610f228b828c01610bff565b9850506020610f338b828c01610bff565b9750506040610f448b828c01610bff565b9650506060610f558b828c01610bff565b9550506080610f668b828c01610c2b565b94505060a0610f778b828c01610c2b565b93505060c0610f888b828c01610c2b565b92505060e0610f998b828c01610c2b565b9150509295985092959890939650565b60005b83811015610fc7578082015181840152602081019050610fac565b83811115610fd6576000848401525b50505050565b6000610fef610fea84610da7565b610d8c565b90508281526020810184848401111561100b5761100a610d16565b5b611016848285610fa9565b509392505050565b600082601f83011261103357611032610d11565b5b8151611043848260208601610fdc565b91505092915050565b60006020828403121561106257611061610bde565b5b600082015167ffffffffffffffff8111156110805761107f610be3565b5b61108c8482850161101e565b91505092915050565b600081519050919050565b600081905092915050565b60006110b682611095565b6110c081856110a0565b93506110d0818560208601610fa9565b80840191505092915050565b60006110e882846110ab565b915081905092915050565b7f4e487b7100000000000000000000000000000000000000000000000000000000600052601160045260246000fd5b600061112d82610aca565b915061113883610aca565b9250817fffffffffffffffffffffffffffffffffffffffffffffffffffffffffffffffff0483118215151615611171576111706110f3565b5b828202905092915050565b7f4e487b7100000000000000000000000000000000000000000000000000000000600052601260045260246000fd5b60006111b682610aca565b91506111c183610aca565b9250826111d1576111d061117c565b5b828204905092915050565b60006111e782610aca565b91506111f283610aca565b925082821015611205576112046110f3565b5b828203905092915050565b60006040820190506112256000830185610baa565b6112326020830184610ad4565b9392505050565b60008115159050919050565b61124e81611239565b811461125957600080fd5b50565b60008151905061126b81611245565b92915050565b60006020828403121561128757611286610bde565b5b60006112958482850161125c565b91505092915050565b60006060820190506112b36000830186610baa565b6112c06020830185610baa565b6112cd6040830184610ad4565b94935050505056fea264697066735822122099074826764f6e0bff7b0b49f39111e6e397d349a8407c72e85db96bc279b65a64736f6c63430008090033608060405234801561001057600080fd5b50604051610bd3380380610bd383398181016040528101906100329190610205565b8260405161003f90610195565b6100499190610267565b604051809103906000f080158015610065573d6000803e3d6000fd5b506000806101000a81548173ffffffffffffffffffffffffffffffffffffffff021916908373ffffffffffffffffffffffffffffffffffffffff160217905550816040516100b290610195565b6100bc9190610267565b604051809103906000f0801580156100d8573d6000803e3d6000fd5b50600160006101000a81548173ffffffffffffffffffffffffffffffffffffffff021916908373ffffffffffffffffffffffffffffffffffffffff1602179055508060405161012690610195565b6101309190610267565b604051809103906000f08015801561014c573d6000803e3d6000fd5b50600260006101000a81548173ffffffffffffffffffffffffffffffffffffffff021916908373ffffffffffffffffffffffffffffffffffffffff160217905550505050610282565b6104618061077283390190565b600080fd5b600073ffffffffffffffffffffffffffffffffffffffff82169050919050565b60006101d2826101a7565b9050919050565b6101e2816101c7565b81146101ed57600080fd5b50565b6000815190506101ff816101d9565b92915050565b60008060006060848603121561021e5761021d6101a2565b5b600061022c868287016101f0565b935050602061023d868287016101f0565b925050604061024e868287016101f0565b9150509250925092565b610261816101c7565b82525050565b600060208201905061027c6000830184610258565b92915050565b6104e1806102916000396000f3fe608060405234801561001057600080fd5b50600436106100625760003560e01c806367c9b017146100675780638c3b578114610085578063961bdfbf146100a3578063acb16596146100c1578063e136f65f146100df578063ff186b2e146100fd575b600080fd5b61006f61011b565b60405161007c9190610398565b60405180910390f35b61008d6101c1565b60405161009a9190610398565b60405180910390f35b6100ab610268565b6040516100b89190610398565b60405180910390f35b6100c961030f565b6040516100d69190610432565b60405180910390f35b6100e7610335565b6040516100f49190610432565b60405180910390f35b61010561035b565b6040516101129190610432565b60405180910390f35b60008060009054906101000a900473ffffffffffffffffffffffffffffffffffffffff1673ffffffffffffffffffffffffffffffffffffffff166398d5fdca6040518163ffffffff1660e01b815260040160206040518083038186803b15801561018457600080fd5b505afa158015610198573d6000803e3d6000fd5b505050506040513d601f19601f820116820180604052508101906101bc919061047e565b905090565b6000600260009054906101000a900473ffffffffffffffffffffffffffffffffffffffff1673ffffffffffffffffffffffffffffffffffffffff166398d5fdca6040518163ffffffff1660e01b815260040160206040518083038186803b15801561022b57600080fd5b505afa15801561023f573d6000803e3d6000fd5b505050506040513d601f19601f82011682018060405250810190610263919061047e565b905090565b6000600160009054906101000a900473ffffffffffffffffffffffffffffffffffffffff1673ffffffffffffffffffffffffffffffffffffffff166398d5fdca6040518163ffffffff1660e01b815260040160206040518083038186803b1580156102d257600080fd5b505afa1580156102e6573d6000803e3d6000fd5b505050506040513d601f19601f8201168201806040525081019061030a919061047e565b905090565b600260009054906101000a900473ffffffffffffffffffffffffffffffffffffffff1681565b600160009054906101000a900473ffffffffffffffffffffffffffffffffffffffff1681565b60008054906101000a900473ffffffffffffffffffffffffffffffffffffffff1681565b6000819050919050565b6103928161037f565b82525050565b60006020820190506103ad6000830184610389565b92915050565b600073ffffffffffffffffffffffffffffffffffffffff82169050919050565b6000819050919050565b60006103f86103f36103ee846103b3565b6103d3565b6103b3565b9050919050565b600061040a826103dd565b9050919050565b600061041c826103ff565b9050919050565b61042c81610411565b82525050565b60006020820190506104476000830184610423565b92915050565b600080fd5b61045b8161037f565b811461046657600080fd5b50565b60008151905061047881610452565b92915050565b6000602082840312156104945761049361044d565b5b60006104a284828501610469565b9150509291505056fea26469706673582212205ca0a15258dadbbccb903ddc87204ba1b70ad891cce4c9aa58061358a0224da664736f6c63430008090033608060405234801561001057600080fd5b50604051610461380380610461833981810160405281019061003291906100db565b806000806101000a81548173ffffffffffffffffffffffffffffffffffffffff021916908373ffffffffffffffffffffffffffffffffffffffff16021790555050610108565b600080fd5b600073ffffffffffffffffffffffffffffffffffffffff82169050919050565b60006100a88261007d565b9050919050565b6100b88161009d565b81146100c357600080fd5b50565b6000815190506100d5816100af565b92915050565b6000602082840312156100f1576100f0610078565b5b60006100ff848285016100c6565b91505092915050565b61034a806101176000396000f3fe608060405234801561001057600080fd5b506004361061002b5760003560e01c806398d5fdca14610030575b600080fd5b61003861004e565b6040516100459190610158565b60405180910390f35b60008060008054906101000a900473ffffffffffffffffffffffffffffffffffffffff1673ffffffffffffffffffffffffffffffffffffffff1663feaf968c6040518163ffffffff1660e01b815260040160a06040518083038186803b1580156100b757600080fd5b505afa1580156100cb573d6000803e3d6000fd5b505050506040513d601f19601f820116820180604052508101906100ef919061021c565b50505091505060008113610138576040517f08c379a000000000000000000000000000000000000000000000000000000000815260040161012f906102f4565b60405180910390fd5b8091505090565b6000819050919050565b6101528161013f565b82525050565b600060208201905061016d6000830184610149565b92915050565b600080fd5b600069ffffffffffffffffffff82169050919050565b61019781610178565b81146101a257600080fd5b50565b6000815190506101b48161018e565b92915050565b6000819050919050565b6101cd816101ba565b81146101d857600080fd5b50565b6000815190506101ea816101c4565b92915050565b6101f98161013f565b811461020457600080fd5b50565b600081519050610216816101f0565b92915050565b600080600080600060a0868803121561023857610237610173565b5b6000610246888289016101a5565b9550506020610257888289016101db565b945050604061026888828901610207565b935050606061027988828901610207565b925050608061028a888289016101a5565b9150509295509295909350565b600082825260208201905092915050565b7f496e76616c696420707269636500000000000000000000000000000000000000600082015250565b60006102de600d83610297565b91506102e9826102a8565b602082019050919050565b6000602082019050818103600083015261030d816102d1565b905091905056fea26469706673582212204ed7c8279815964bfd9186c3c8d6d0b93c7e3875f15f0596ff7d6e7a46314d2964736f6c63430008090033",
  "linkReferences": {},
  "deployedLinkReferences": {}
}