{
  "_format": "hh-sol-artifact-1",
  "contractName": "Swap",
  "sourceName": "contracts/Swap.sol",
  "abi": [
    {
      "inputs": [
        {
          "internalType": "uint256",
          "name": "_feePercentage",
          "type": "uint256"
        }
      ],
      "stateMutability": "nonpayable",
      "type": "constructor"
    },
    {
      "inputs": [],
      "name": "ASDSwapPercent",
      "outputs": [
        {
          "internalType": "uint256",
          "name": "",
          "type": "uint256"
        }
      ],
      "stateMutability": "view",
      "type": "function"
    },
    {
      "inputs": [],
      "name": "ArbAddress",
      "outputs": [
        {
          "internalType": "address",
          "name": "",
          "type": "address"
        }
      ],
      "stateMutability": "view",
      "type": "function"
    },
    {
      "inputs": [],
      "name": "ArbPrice",
      "outputs": [
        {
          "internalType": "uint256",
          "name": "",
          "type": "uint256"
        }
      ],
      "stateMutability": "view",
      "type": "function"
    },
    {
      "inputs": [],
      "name": "ArbSwapPercent",
      "outputs": [
        {
          "internalType": "uint256",
          "name": "",
          "type": "uint256"
        }
      ],
      "stateMutability": "view",
      "type": "function"
    },
    {
      "inputs": [],
      "name": "EthAddress",
      "outputs": [
        {
          "internalType": "address",
          "name": "",
          "type": "address"
        }
      ],
      "stateMutability": "view",
      "type": "function"
    },
    {
      "inputs": [],
      "name": "EthPrice",
      "outputs": [
        {
          "internalType": "uint256",
          "name": "",
          "type": "uint256"
        }
      ],
      "stateMutability": "view",
      "type": "function"
    },
    {
      "inputs": [],
      "name": "EthSwapPercent",
      "outputs": [
        {
          "internalType": "uint256",
          "name": "",
          "type": "uint256"
        }
      ],
      "stateMutability": "view",
      "type": "function"
    },
    {
      "inputs": [],
      "name": "UsdtAddress",
      "outputs": [
        {
          "internalType": "address",
          "name": "",
          "type": "address"
        }
      ],
      "stateMutability": "view",
      "type": "function"
    },
    {
      "inputs": [],
      "name": "UsdtPrice",
      "outputs": [
        {
          "internalType": "uint256",
          "name": "",
          "type": "uint256"
        }
      ],
      "stateMutability": "view",
      "type": "function"
    },
    {
      "inputs": [],
      "name": "UsdtSwapPercent",
      "outputs": [
        {
          "internalType": "uint256",
          "name": "",
          "type": "uint256"
        }
      ],
      "stateMutability": "view",
      "type": "function"
    },
    {
      "inputs": [
        {
          "internalType": "uint256",
          "name": "_amountToSwap",
          "type": "uint256"
        },
        {
          "internalType": "uint256",
          "name": "_valueA",
          "type": "uint256"
        },
        {
          "internalType": "uint256",
          "name": "_valueB",
          "type": "uint256"
        }
      ],
      "name": "calculateAmountB",
      "outputs": [
        {
          "internalType": "uint256",
          "name": "",
          "type": "uint256"
        }
      ],
      "stateMutability": "pure",
      "type": "function"
    },
    {
      "inputs": [
        {
          "internalType": "uint256",
          "name": "amountA",
          "type": "uint256"
        }
      ],
      "name": "calculateFeesAndAmountToSwap",
      "outputs": [
        {
          "internalType": "uint256",
          "name": "feeAmount",
          "type": "uint256"
        },
        {
          "internalType": "uint256",
          "name": "amountToSwap",
          "type": "uint256"
        }
      ],
      "stateMutability": "view",
      "type": "function"
    },
    {
      "inputs": [
        {
          "internalType": "address",
          "name": "tokenA",
          "type": "address"
        },
        {
          "internalType": "address",
          "name": "tokenB",
          "type": "address"
        },
        {
          "internalType": "address",
          "name": "_userAccount",
          "type": "address"
        },
        {
          "internalType": "address",
          "name": "_contractAddress",
          "type": "address"
        },
        {
          "internalType": "uint256",
          "name": "amountA",
          "type": "uint256"
        },
        {
          "internalType": "uint256",
          "name": "amountB",
          "type": "uint256"
        },
        {
          "internalType": "uint256",
          "name": "feeAmount",
          "type": "uint256"
        },
        {
          "internalType": "uint256",
          "name": "amountToSwap",
          "type": "uint256"
        }
      ],
      "name": "conductTransfer",
      "outputs": [],
      "stateMutability": "payable",
      "type": "function"
    },
    {
      "inputs": [
        {
          "internalType": "address",
          "name": "tokenA",
          "type": "address"
        },
        {
          "internalType": "address",
          "name": "tokenB",
          "type": "address"
        },
        {
          "internalType": "address",
          "name": "_userAccount",
          "type": "address"
        },
        {
          "internalType": "address",
          "name": "_contractAddress",
          "type": "address"
        },
        {
          "internalType": "uint256",
          "name": "amountA",
          "type": "uint256"
        }
      ],
      "name": "differTokenSwap",
      "outputs": [],
      "stateMutability": "nonpayable",
      "type": "function"
    },
    {
      "inputs": [],
      "name": "feePercentage",
      "outputs": [
        {
          "internalType": "uint256",
          "name": "",
          "type": "uint256"
        }
      ],
      "stateMutability": "view",
      "type": "function"
    },
    {
      "inputs": [],
      "name": "feeRecipient",
      "outputs": [
        {
          "internalType": "address",
          "name": "",
          "type": "address"
        }
      ],
      "stateMutability": "view",
      "type": "function"
    },
    {
      "inputs": [],
      "name": "priceOracle",
      "outputs": [
        {
          "internalType": "contract TokenPriceOracle",
          "name": "",
          "type": "address"
        }
      ],
      "stateMutability": "view",
      "type": "function"
    },
    {
      "inputs": [],
      "name": "testValue",
      "outputs": [
        {
          "internalType": "uint256",
          "name": "",
          "type": "uint256"
        }
      ],
      "stateMutability": "view",
      "type": "function"
    },
    {
      "inputs": [
        {
          "internalType": "string",
          "name": "",
          "type": "string"
        }
      ],
      "name": "tokenInfo",
      "outputs": [
        {
          "internalType": "uint256",
          "name": "",
          "type": "uint256"
        }
      ],
      "stateMutability": "view",
      "type": "function"
    }
  ],
  "bytecode": "0x60806040527362cae0fa2da220f43a51f86db2edb36dca9a5a08600b60006101000a81548173ffffffffffffffffffffffffffffffffffffffff021916908373ffffffffffffffffffffffffffffffffffffffff160217905550730a023a3423d9b27a0be48c768ccf2dd7877fef5e600c60006101000a81548173ffffffffffffffffffffffffffffffffffffffff021916908373ffffffffffffffffffffffffffffffffffffffff160217905550732ee9bfb2d319b31a573ea15774b755715988e99d600d60006101000a81548173ffffffffffffffffffffffffffffffffffffffff021916908373ffffffffffffffffffffffffffffffffffffffff1602179055503480156200011057600080fd5b50604051620024933803806200249383398181016040528101906200013691906200034a565b306000806101000a81548173ffffffffffffffffffffffffffffffffffffffff021916908373ffffffffffffffffffffffffffffffffffffffff16021790555080600181905550600b60009054906101000a900473ffffffffffffffffffffffffffffffffffffffff16600c60009054906101000a900473ffffffffffffffffffffffffffffffffffffffff16600d60009054906101000a900473ffffffffffffffffffffffffffffffffffffffff16604051620001f490620002fc565b6200020293929190620003c1565b604051809103906000f0801580156200021f573d6000803e3d6000fd5b50600a60006101000a81548173ffffffffffffffffffffffffffffffffffffffff021916908373ffffffffffffffffffffffffffffffffffffffff160217905550621e8480600e604051620002749062000459565b9081526020016040518091039020819055506103e8600e6040516200029990620004c0565b9081526020016040518091039020819055506103e8600e604051620002be9062000527565b9081526020016040518091039020819055506103e8600e604051620002e3906200058e565b90815260200160405180910390208190555050620005a5565b610bd380620018c083390190565b600080fd5b6000819050919050565b62000324816200030f565b81146200033057600080fd5b50565b600081519050620003448162000319565b92915050565b6000602082840312156200036357620003626200030a565b5b6000620003738482850162000333565b91505092915050565b600073ffffffffffffffffffffffffffffffffffffffff82169050919050565b6000620003a9826200037c565b9050919050565b620003bb816200039c565b82525050565b6000606082019050620003d86000830186620003b0565b620003e76020830185620003b0565b620003f66040830184620003b0565b949350505050565b600081905092915050565b7f4554480000000000000000000000000000000000000000000000000000000000600082015250565b600062000441600383620003fe565b91506200044e8262000409565b600382019050919050565b6000620004668262000432565b9150819050919050565b7f4152420000000000000000000000000000000000000000000000000000000000600082015250565b6000620004a8600383620003fe565b9150620004b58262000470565b600382019050919050565b6000620004cd8262000499565b9150819050919050565b7f5553445400000000000000000000000000000000000000000000000000000000600082015250565b60006200050f600483620003fe565b91506200051c82620004d7565b600482019050919050565b6000620005348262000500565b9150819050919050565b7f4153440000000000000000000000000000000000000000000000000000000000600082015250565b600062000576600383620003fe565b915062000583826200053e565b600382019050919050565b60006200059b8262000567565b9150819050919050565b61130b80620005b56000396000f3fe6080604052600436106101135760003560e01c806361f62302116100a0578063a1973af111610064578063a1973af114610395578063a469d8ae146103d2578063baf0bfd3146103fd578063f015ad3314610428578063fd8765761461044457610113565b806361f62302146102be57806388eed374146102e95780638af5de72146103145780638e10aa081461033f578063a001ecdd1461036a57610113565b806346904840116100e757806346904840146101c457806351b429a0146101ef5780635572eab914610218578063580fcf8114610243578063587bbca21461028157610113565b8062b210f6146101185780632630c12f146101435780632cc812bc1461016e57806340a7023914610199575b600080fd5b34801561012457600080fd5b5061012d61046f565b60405161013a9190610ae3565b60405180910390f35b34801561014f57600080fd5b50610158610475565b6040516101659190610b7d565b60405180910390f35b34801561017a57600080fd5b5061018361049b565b6040516101909190610ae3565b60405180910390f35b3480156101a557600080fd5b506101ae6104a1565b6040516101bb9190610ae3565b60405180910390f35b3480156101d057600080fd5b506101d96104a7565b6040516101e69190610bb9565b60405180910390f35b3480156101fb57600080fd5b5061021660048036038101906102119190610c40565b6104cb565b005b34801561022457600080fd5b5061022d61065f565b60405161023a9190610ae3565b60405180910390f35b34801561024f57600080fd5b5061026a60048036038101906102659190610cbb565b610665565b604051610278929190610ce8565b60405180910390f35b34801561028d57600080fd5b506102a860048036038101906102a39190610e57565b6106b6565b6040516102b59190610ae3565b60405180910390f35b3480156102ca57600080fd5b506102d36106e4565b6040516102e09190610bb9565b60405180910390f35b3480156102f557600080fd5b506102fe61070a565b60405161030b9190610ae3565b60405180910390f35b34801561032057600080fd5b50610329610710565b6040516103369190610ae3565b60405180910390f35b34801561034b57600080fd5b50610354610716565b6040516103619190610bb9565b60405180910390f35b34801561037657600080fd5b5061037f61073c565b60405161038c9190610ae3565b60405180910390f35b3480156103a157600080fd5b506103bc60048036038101906103b79190610ea0565b610742565b6040516103c99190610ae3565b60405180910390f35b3480156103de57600080fd5b506103e76107c2565b6040516103f49190610ae3565b60405180910390f35b34801561040957600080fd5b506104126107c8565b60405161041f9190610bb9565b60405180910390f35b610442600480360381019061043d9190610ef3565b6107ee565b005b34801561045057600080fd5b50610459610ac4565b6040516104669190610ae3565b60405180910390f35b60035481565b600a60009054906101000a900473ffffffffffffffffffffffffffffffffffffffff1681565b60025481565b60085481565b60008054906101000a900473ffffffffffffffffffffffffffffffffffffffff1681565b6000806000808873ffffffffffffffffffffffffffffffffffffffff166306fdde036040518163ffffffff1660e01b815260040160006040518083038186803b15801561051757600080fd5b505afa15801561052b573d6000803e3d6000fd5b505050506040513d6000823e3d601f19601f82011682018060405250810190610554919061104c565b905060008873ffffffffffffffffffffffffffffffffffffffff166306fdde036040518163ffffffff1660e01b815260040160006040518083038186803b15801561059e57600080fd5b505afa1580156105b2573d6000803e3d6000fd5b505050506040513d6000823e3d601f19601f820116820180604052508101906105db919061104c565b90506000600e836040516105ef91906110dc565b90815260200160405180910390205490506000600e8360405161061291906110dc565b908152602001604051809103902054905061062c88610665565b809650819750505061063f858383610742565b96506106518c8c8c8c8c8c8c8c6107ee565b505050505050505050505050565b60045481565b600080600066038d7ea4c6800060015461067f9190611122565b905080670de0b6b3a76400008561069691906111ab565b6106a09190611122565b925082846106ae91906111dc565b915050915091565b600e818051602081018201805184825260208301602085012081835280955050505050506000915090505481565b600c60009054906101000a900473ffffffffffffffffffffffffffffffffffffffff1681565b60055481565b60095481565b600d60009054906101000a900473ffffffffffffffffffffffffffffffffffffffff1681565b60015481565b6000806000808486101561078057858561075c91906111ab565b91506001905081878261076f9190611122565b61077991906111ab565b92506107b5565b848611156107b45760019150848661079891906111ab565b90508187826107a79190611122565b6107b191906111ab565b92505b5b8293505050509392505050565b60065481565b600b60009054906101000a900473ffffffffffffffffffffffffffffffffffffffff1681565b8773ffffffffffffffffffffffffffffffffffffffff1663095ea7b386866040518363ffffffff1660e01b8152600401610829929190611210565b602060405180830381600087803b15801561084357600080fd5b505af1158015610857573d6000803e3d6000fd5b505050506040513d601f19601f8201168201806040525081019061087b9190611271565b508673ffffffffffffffffffffffffffffffffffffffff1663095ea7b386856040518363ffffffff1660e01b81526004016108b7929190611210565b602060405180830381600087803b1580156108d157600080fd5b505af11580156108e5573d6000803e3d6000fd5b505050506040513d601f19601f820116820180604052508101906109099190611271565b508773ffffffffffffffffffffffffffffffffffffffff166323b872dd8787846040518463ffffffff1660e01b81526004016109479392919061129e565b602060405180830381600087803b15801561096157600080fd5b505af1158015610975573d6000803e3d6000fd5b505050506040513d601f19601f820116820180604052508101906109999190611271565b508773ffffffffffffffffffffffffffffffffffffffff166323b872dd8787856040518463ffffffff1660e01b81526004016109d79392919061129e565b602060405180830381600087803b1580156109f157600080fd5b505af1158015610a05573d6000803e3d6000fd5b505050506040513d601f19601f82011682018060405250810190610a299190611271565b508673ffffffffffffffffffffffffffffffffffffffff166323b872dd8688866040518463ffffffff1660e01b8152600401610a679392919061129e565b602060405180830381600087803b158015610a8157600080fd5b505af1158015610a95573d6000803e3d6000fd5b505050506040513d601f19601f82011682018060405250810190610ab99190611271565b505050505050505050565b60075481565b6000819050919050565b610add81610aca565b82525050565b6000602082019050610af86000830184610ad4565b92915050565b600073ffffffffffffffffffffffffffffffffffffffff82169050919050565b6000819050919050565b6000610b43610b3e610b3984610afe565b610b1e565b610afe565b9050919050565b6000610b5582610b28565b9050919050565b6000610b6782610b4a565b9050919050565b610b7781610b5c565b82525050565b6000602082019050610b926000830184610b6e565b92915050565b6000610ba382610afe565b9050919050565b610bb381610b98565b82525050565b6000602082019050610bce6000830184610baa565b92915050565b6000604051905090565b600080fd5b600080fd5b610bf181610b98565b8114610bfc57600080fd5b50565b600081359050610c0e81610be8565b92915050565b610c1d81610aca565b8114610c2857600080fd5b50565b600081359050610c3a81610c14565b92915050565b600080600080600060a08688031215610c5c57610c5b610bde565b5b6000610c6a88828901610bff565b9550506020610c7b88828901610bff565b9450506040610c8c88828901610bff565b9350506060610c9d88828901610bff565b9250506080610cae88828901610c2b565b9150509295509295909350565b600060208284031215610cd157610cd0610bde565b5b6000610cdf84828501610c2b565b91505092915050565b6000604082019050610cfd6000830185610ad4565b610d0a6020830184610ad4565b9392505050565b600080fd5b600080fd5b6000601f19601f8301169050919050565b7f4e487b7100000000000000000000000000000000000000000000000000000000600052604160045260246000fd5b610d6482610d1b565b810181811067ffffffffffffffff82111715610d8357610d82610d2c565b5b80604052505050565b6000610d96610bd4565b9050610da28282610d5b565b919050565b600067ffffffffffffffff821115610dc257610dc1610d2c565b5b610dcb82610d1b565b9050602081019050919050565b82818337600083830152505050565b6000610dfa610df584610da7565b610d8c565b905082815260208101848484011115610e1657610e15610d16565b5b610e21848285610dd8565b509392505050565b600082601f830112610e3e57610e3d610d11565b5b8135610e4e848260208601610de7565b91505092915050565b600060208284031215610e6d57610e6c610bde565b5b600082013567ffffffffffffffff811115610e8b57610e8a610be3565b5b610e9784828501610e29565b91505092915050565b600080600060608486031215610eb957610eb8610bde565b5b6000610ec786828701610c2b565b9350506020610ed886828701610c2b565b9250506040610ee986828701610c2b565b9150509250925092565b600080600080600080600080610100898b031215610f1457610f13610bde565b5b6000610f228b828c01610bff565b9850506020610f338b828c01610bff565b9750506040610f448b828c01610bff565b9650506060610f558b828c01610bff565b9550506080610f668b828c01610c2b565b94505060a0610f778b828c01610c2b565b93505060c0610f888b828c01610c2b565b92505060e0610f998b828c01610c2b565b9150509295985092959890939650565b60005b83811015610fc7578082015181840152602081019050610fac565b83811115610fd6576000848401525b50505050565b6000610fef610fea84610da7565b610d8c565b90508281526020810184848401111561100b5761100a610d16565b5b611016848285610fa9565b509392505050565b600082601f83011261103357611032610d11565b5b8151611043848260208601610fdc565b91505092915050565b60006020828403121561106257611061610bde565b5b600082015167ffffffffffffffff8111156110805761107f610be3565b5b61108c8482850161101e565b91505092915050565b600081519050919050565b600081905092915050565b60006110b682611095565b6110c081856110a0565b93506110d0818560208601610fa9565b80840191505092915050565b60006110e882846110ab565b915081905092915050565b7f4e487b7100000000000000000000000000000000000000000000000000000000600052601160045260246000fd5b600061112d82610aca565b915061113883610aca565b9250817fffffffffffffffffffffffffffffffffffffffffffffffffffffffffffffffff0483118215151615611171576111706110f3565b5b828202905092915050565b7f4e487b7100000000000000000000000000000000000000000000000000000000600052601260045260246000fd5b60006111b682610aca565b91506111c183610aca565b9250826111d1576111d061117c565b5b828204905092915050565b60006111e782610aca565b91506111f283610aca565b925082821015611205576112046110f3565b5b828203905092915050565b60006040820190506112256000830185610baa565b6112326020830184610ad4565b9392505050565b60008115159050919050565b61124e81611239565b811461125957600080fd5b50565b60008151905061126b81611245565b92915050565b60006020828403121561128757611286610bde565b5b60006112958482850161125c565b91505092915050565b60006060820190506112b36000830186610baa565b6112c06020830185610baa565b6112cd6040830184610ad4565b94935050505056fea264697066735822122099074826764f6e0bff7b0b49f39111e6e397d349a8407c72e85db96bc279b65a64736f6c63430008090033608060405234801561001057600080fd5b50604051610bd3380380610bd383398181016040528101906100329190610205565b8260405161003f90610195565b6100499190610267565b604051809103906000f080158015610065573d6000803e3d6000fd5b506000806101000a81548173ffffffffffffffffffffffffffffffffffffffff021916908373ffffffffffffffffffffffffffffffffffffffff160217905550816040516100b290610195565b6100bc9190610267565b604051809103906000f0801580156100d8573d6000803e3d6000fd5b50600160006101000a81548173ffffffffffffffffffffffffffffffffffffffff021916908373ffffffffffffffffffffffffffffffffffffffff1602179055508060405161012690610195565b6101309190610267565b604051809103906000f08015801561014c573d6000803e3d6000fd5b50600260006101000a81548173ffffffffffffffffffffffffffffffffffffffff021916908373ffffffffffffffffffffffffffffffffffffffff160217905550505050610282565b6104618061077283390190565b600080fd5b600073ffffffffffffffffffffffffffffffffffffffff82169050919050565b60006101d2826101a7565b9050919050565b6101e2816101c7565b81146101ed57600080fd5b50565b6000815190506101ff816101d9565b92915050565b60008060006060848603121561021e5761021d6101a2565b5b600061022c868287016101f0565b935050602061023d868287016101f0565b925050604061024e868287016101f0565b9150509250925092565b610261816101c7565b82525050565b600060208201905061027c6000830184610258565b92915050565b6104e1806102916000396000f3fe608060405234801561001057600080fd5b50600436106100625760003560e01c806367c9b017146100675780638c3b578114610085578063961bdfbf146100a3578063acb16596146100c1578063e136f65f146100df578063ff186b2e146100fd575b600080fd5b61006f61011b565b60405161007c9190610398565b60405180910390f35b61008d6101c1565b60405161009a9190610398565b60405180910390f35b6100ab610268565b6040516100b89190610398565b60405180910390f35b6100c961030f565b6040516100d69190610432565b60405180910390f35b6100e7610335565b6040516100f49190610432565b60405180910390f35b61010561035b565b6040516101129190610432565b60405180910390f35b60008060009054906101000a900473ffffffffffffffffffffffffffffffffffffffff1673ffffffffffffffffffffffffffffffffffffffff166398d5fdca6040518163ffffffff1660e01b815260040160206040518083038186803b15801561018457600080fd5b505afa158015610198573d6000803e3d6000fd5b505050506040513d601f19601f820116820180604052508101906101bc919061047e565b905090565b6000600260009054906101000a900473ffffffffffffffffffffffffffffffffffffffff1673ffffffffffffffffffffffffffffffffffffffff166398d5fdca6040518163ffffffff1660e01b815260040160206040518083038186803b15801561022b57600080fd5b505afa15801561023f573d6000803e3d6000fd5b505050506040513d601f19601f82011682018060405250810190610263919061047e565b905090565b6000600160009054906101000a900473ffffffffffffffffffffffffffffffffffffffff1673ffffffffffffffffffffffffffffffffffffffff166398d5fdca6040518163ffffffff1660e01b815260040160206040518083038186803b1580156102d257600080fd5b505afa1580156102e6573d6000803e3d6000fd5b505050506040513d601f19601f8201168201806040525081019061030a919061047e565b905090565b600260009054906101000a900473ffffffffffffffffffffffffffffffffffffffff1681565b600160009054906101000a900473ffffffffffffffffffffffffffffffffffffffff1681565b60008054906101000a900473ffffffffffffffffffffffffffffffffffffffff1681565b6000819050919050565b6103928161037f565b82525050565b60006020820190506103ad6000830184610389565b92915050565b600073ffffffffffffffffffffffffffffffffffffffff82169050919050565b6000819050919050565b60006103f86103f36103ee846103b3565b6103d3565b6103b3565b9050919050565b600061040a826103dd565b9050919050565b600061041c826103ff565b9050919050565b61042c81610411565b82525050565b60006020820190506104476000830184610423565b92915050565b600080fd5b61045b8161037f565b811461046657600080fd5b50565b60008151905061047881610452565b92915050565b6000602082840312156104945761049361044d565b5b60006104a284828501610469565b9150509291505056fea26469706673582212205ca0a15258dadbbccb903ddc87204ba1b70ad891cce4c9aa58061358a0224da664736f6c63430008090033608060405234801561001057600080fd5b50604051610461380380610461833981810160405281019061003291906100db565b806000806101000a81548173ffffffffffffffffffffffffffffffffffffffff021916908373ffffffffffffffffffffffffffffffffffffffff16021790555050610108565b600080fd5b600073ffffffffffffffffffffffffffffffffffffffff82169050919050565b60006100a88261007d565b9050919050565b6100b88161009d565b81146100c357600080fd5b50565b6000815190506100d5816100af565b92915050565b6000602082840312156100f1576100f0610078565b5b60006100ff848285016100c6565b91505092915050565b61034a806101176000396000f3fe608060405234801561001057600080fd5b506004361061002b5760003560e01c806398d5fdca14610030575b600080fd5b61003861004e565b6040516100459190610158565b60405180910390f35b60008060008054906101000a900473ffffffffffffffffffffffffffffffffffffffff1673ffffffffffffffffffffffffffffffffffffffff1663feaf968c6040518163ffffffff1660e01b815260040160a06040518083038186803b1580156100b757600080fd5b505afa1580156100cb573d6000803e3d6000fd5b505050506040513d601f19601f820116820180604052508101906100ef919061021c565b50505091505060008113610138576040517f08c379a000000000000000000000000000000000000000000000000000000000815260040161012f906102f4565b60405180910390fd5b8091505090565b6000819050919050565b6101528161013f565b82525050565b600060208201905061016d6000830184610149565b92915050565b600080fd5b600069ffffffffffffffffffff82169050919050565b61019781610178565b81146101a257600080fd5b50565b6000815190506101b48161018e565b92915050565b6000819050919050565b6101cd816101ba565b81146101d857600080fd5b50565b6000815190506101ea816101c4565b92915050565b6101f98161013f565b811461020457600080fd5b50565b600081519050610216816101f0565b92915050565b600080600080600060a0868803121561023857610237610173565b5b6000610246888289016101a5565b9550506020610257888289016101db565b945050604061026888828901610207565b935050606061027988828901610207565b925050608061028a888289016101a5565b9150509295509295909350565b600082825260208201905092915050565b7f496e76616c696420707269636500000000000000000000000000000000000000600082015250565b60006102de600d83610297565b91506102e9826102a8565b602082019050919050565b6000602082019050818103600083015261030d816102d1565b905091905056fea26469706673582212204ed7c8279815964bfd9186c3c8d6d0b93c7e3875f15f0596ff7d6e7a46314d2964736f6c63430008090033",
  "linkReferences": {},
  "deployedLinkReferences": {}
}