{
  "_format": "hh-sol-artifact-1",
  "contractName": "Pair",
  "sourceName": "contracts/Pair.sol",
  "abi": [
    {
      "inputs": [],
      "stateMutability": "nonpayable",
      "type": "constructor"
    },
    {
      "inputs": [
        {
          "internalType": "address",
          "name": "_lptoken",
          "type": "address"
        },
        {
          "internalType": "uint256",
          "name": "_level",
          "type": "uint256"
        }
      ],
      "name": "LptokenLvManagement",
      "outputs": [],
      "stateMutability": "nonpayable",
      "type": "function"
    },
    {
      "inputs": [],
      "name": "getLpAddress",
      "outputs": [
        {
          "internalType": "address",
          "name": "arblp",
          "type": "address"
        },
        {
          "internalType": "address",
          "name": "usdtlp",
          "type": "address"
        },
        {
          "internalType": "address",
          "name": "ethlp",
          "type": "address"
        }
      ],
      "stateMutability": "view",
      "type": "function"
    },
    {
      "inputs": [],
      "name": "getLpLv",
      "outputs": [
        {
          "internalType": "uint256",
          "name": "_ArbpoolLv",
          "type": "uint256"
        },
        {
          "internalType": "uint256",
          "name": "_ArbLpLv",
          "type": "uint256"
        },
        {
          "internalType": "uint256",
          "name": "_UsdtpoolLv",
          "type": "uint256"
        },
        {
          "internalType": "uint256",
          "name": "_UsdtLpLv",
          "type": "uint256"
        },
        {
          "internalType": "uint256",
          "name": "_EthpoolLv",
          "type": "uint256"
        },
        {
          "internalType": "uint256",
          "name": "_EthLpLv",
          "type": "uint256"
        }
      ],
      "stateMutability": "view",
      "type": "function"
    },
    {
      "inputs": [
        {
          "internalType": "address",
          "name": "_token1",
          "type": "address"
        },
        {
          "internalType": "address",
          "name": "_token2",
          "type": "address"
        },
        {
          "internalType": "address",
          "name": "_contractAddress",
          "type": "address"
        },
        {
          "internalType": "string",
          "name": "_tokenName",
          "type": "string"
        }
      ],
      "name": "makeLpPool",
      "outputs": [],
      "stateMutability": "nonpayable",
      "type": "function"
    },
    {
      "inputs": [
        {
          "internalType": "address",
          "name": "",
          "type": "address"
        },
        {
          "internalType": "uint256",
          "name": "",
          "type": "uint256"
        }
      ],
      "name": "poolData",
      "outputs": [
        {
          "internalType": "address",
          "name": "token1",
          "type": "address"
        },
        {
          "internalType": "address",
          "name": "token2",
          "type": "address"
        }
      ],
      "stateMutability": "view",
      "type": "function"
    },
    {
      "inputs": [
        {
          "internalType": "uint256",
          "name": "",
          "type": "uint256"
        }
      ],
      "name": "poolDataNum",
      "outputs": [
        {
          "internalType": "uint256",
          "name": "",
          "type": "uint256"
        }
      ],
      "stateMutability": "view",
      "type": "function"
    },
    {
      "inputs": [],
      "name": "poolIndex",
      "outputs": [
        {
          "internalType": "uint256",
          "name": "",
          "type": "uint256"
        }
      ],
      "stateMutability": "view",
      "type": "function"
    },
    {
      "inputs": [
        {
          "internalType": "address",
          "name": "_lptoken",
          "type": "address"
        },
        {
          "internalType": "uint256",
          "name": "_level",
          "type": "uint256"
        }
      ],
      "name": "poolLvManagement",
      "outputs": [],
      "stateMutability": "nonpayable",
      "type": "function"
    }
  ],
  "bytecode": "0x608060405260016006556001600755600160085560016009556001600a556001600b5534801561002e57600080fd5b5061382e8061003e6000396000f3fe60806040523480156200001157600080fd5b5060043610620000945760003560e01c8063c41a2e1f1162000063578063c41a2e1f146200014f578063d1e9a5fd146200016f578063eafaef511462000193578063f9d284c214620001b35762000094565b806310f2272814620000995780634ce272ee14620000d05780639a0b711814620000f2578063ab73bb171462000119575b600080fd5b620000b76004803603810190620000b1919062000e64565b620001d3565b604051620000c792919062000ebc565b60405180910390f35b620000da62000244565b604051620000e9919062000efa565b60405180910390f35b620000fc6200024a565b604051620001109695949392919062000f17565b60405180910390f35b62000137600480360381019062000131919062000f84565b62000279565b60405162000146919062000efa565b60405180910390f35b6200016d600480360381019062000167919062000e64565b6200029e565b005b6200017962000427565b6040516200018a9392919062000fb6565b60405180910390f35b620001b16004803603810190620001ab919062000e64565b620004a0565b005b620001d16004803603810190620001cb919062001155565b62000629565b005b600c602052816000526040600020602052806000526040600020600091509150508060000160009054906101000a900473ffffffffffffffffffffffffffffffffffffffff16908060010160009054906101000a900473ffffffffffffffffffffffffffffffffffffffff16905082565b600e5481565b600080600080600080600654600954600754600a54600854600b54955095509550955095509550909192939495565b600d81815481106200028a57600080fd5b906000526020600020016000915090505481565b60008273ffffffffffffffffffffffffffffffffffffffff166306fdde036040518163ffffffff1660e01b815260040160006040518083038186803b158015620002e757600080fd5b505afa158015620002fc573d6000803e3d6000fd5b505050506040513d6000823e3d601f19601f820116820180604052508101906200032791906200129a565b90506200036a816040518060400160405280600581526020017f4152424c5000000000000000000000000000000000000000000000000000000081525062000d87565b156200037d578160068190555062000422565b620003be816040518060400160405280600681526020017f555344544c50000000000000000000000000000000000000000000000000000081525062000d87565b15620003d1578160078190555062000421565b62000412816040518060400160405280600581526020017f4554484c5000000000000000000000000000000000000000000000000000000081525062000d87565b156200042057816008819055505b5b5b505050565b6000806000600360009054906101000a900473ffffffffffffffffffffffffffffffffffffffff16600460009054906101000a900473ffffffffffffffffffffffffffffffffffffffff16600560009054906101000a900473ffffffffffffffffffffffffffffffffffffffff16925092509250909192565b60008273ffffffffffffffffffffffffffffffffffffffff166306fdde036040518163ffffffff1660e01b815260040160006040518083038186803b158015620004e957600080fd5b505afa158015620004fe573d6000803e3d6000fd5b505050506040513d6000823e3d601f19601f820116820180604052508101906200052991906200129a565b90506200056c816040518060400160405280600581526020017f4152424c5000000000000000000000000000000000000000000000000000000081525062000d87565b156200057f578160098190555062000624565b620005c0816040518060400160405280600681526020017f555344544c50000000000000000000000000000000000000000000000000000081525062000d87565b15620005d35781600a8190555062000623565b62000614816040518060400160405280600581526020017f4554484c5000000000000000000000000000000000000000000000000000000081525062000d87565b15620006225781600b819055505b5b5b505050565b6000805b600d8054905081101562000854576000600c60008673ffffffffffffffffffffffffffffffffffffffff1673ffffffffffffffffffffffffffffffffffffffff16815260200190815260200160002060008381526020019081526020016000206040518060400160405290816000820160009054906101000a900473ffffffffffffffffffffffffffffffffffffffff1673ffffffffffffffffffffffffffffffffffffffff1673ffffffffffffffffffffffffffffffffffffffff1681526020016001820160009054906101000a900473ffffffffffffffffffffffffffffffffffffffff1673ffffffffffffffffffffffffffffffffffffffff1673ffffffffffffffffffffffffffffffffffffffff168152505090508673ffffffffffffffffffffffffffffffffffffffff16816000015173ffffffffffffffffffffffffffffffffffffffff16148015620007b557508573ffffffffffffffffffffffffffffffffffffffff16816020015173ffffffffffffffffffffffffffffffffffffffff16145b806200082c57508573ffffffffffffffffffffffffffffffffffffffff16816000015173ffffffffffffffffffffffffffffffffffffffff161480156200082b57508673ffffffffffffffffffffffffffffffffffffffff16816020015173ffffffffffffffffffffffffffffffffffffffff16145b5b156200083d57600192505062000854565b5080806200084b906200131a565b9150506200062d565b50801562000899576040517f08c379a00000000000000000000000000000000000000000000000000000000081526004016200089090620013c9565b60405180910390fd5b8062000d8057600060405180604001604052808773ffffffffffffffffffffffffffffffffffffffff1681526020018673ffffffffffffffffffffffffffffffffffffffff16815250905080600c60008673ffffffffffffffffffffffffffffffffffffffff1673ffffffffffffffffffffffffffffffffffffffff1681526020019081526020016000206000600e54815260200190815260200160002060008201518160000160006101000a81548173ffffffffffffffffffffffffffffffffffffffff021916908373ffffffffffffffffffffffffffffffffffffffff16021790555060208201518160010160006101000a81548173ffffffffffffffffffffffffffffffffffffffff021916908373ffffffffffffffffffffffffffffffffffffffff160217905550905050600d600e5490806001815401808255809150506001900390600052602060002001600090919091909150556001600e600082825462000a089190620013eb565b9250508190555062000a50836040518060400160405280600381526020017f415242000000000000000000000000000000000000000000000000000000000081525062000d87565b1562000b335760405162000a649062000da2565b62000a6f90620014e8565b604051809103906000f08015801562000a8c573d6000803e3d6000fd5b506000806101000a81548173ffffffffffffffffffffffffffffffffffffffff021916908373ffffffffffffffffffffffffffffffffffffffff16021790555060008054906101000a900473ffffffffffffffffffffffffffffffffffffffff16600360006101000a81548173ffffffffffffffffffffffffffffffffffffffff021916908373ffffffffffffffffffffffffffffffffffffffff16021790555062000d7e565b62000b74836040518060400160405280600481526020017f555344540000000000000000000000000000000000000000000000000000000081525062000d87565b1562000c5a5760405162000b889062000da2565b62000b93906200156f565b604051809103906000f08015801562000bb0573d6000803e3d6000fd5b50600160006101000a81548173ffffffffffffffffffffffffffffffffffffffff021916908373ffffffffffffffffffffffffffffffffffffffff160217905550600160009054906101000a900473ffffffffffffffffffffffffffffffffffffffff16600460006101000a81548173ffffffffffffffffffffffffffffffffffffffff021916908373ffffffffffffffffffffffffffffffffffffffff16021790555062000d7d565b62000c9b836040518060400160405280600381526020017f455448000000000000000000000000000000000000000000000000000000000081525062000d87565b1562000d7c5760405162000caf9062000da2565b62000cba90620015f6565b604051809103906000f08015801562000cd7573d6000803e3d6000fd5b50600260006101000a81548173ffffffffffffffffffffffffffffffffffffffff021916908373ffffffffffffffffffffffffffffffffffffffff160217905550600160009054906101000a900473ffffffffffffffffffffffffffffffffffffffff16600560006101000a81548173ffffffffffffffffffffffffffffffffffffffff021916908373ffffffffffffffffffffffffffffffffffffffff1602179055505b5b5b505b5050505050565b60008180519060200120838051906020012014905092915050565b6121cb806200162e83390190565b6000604051905090565b600080fd5b600080fd5b600073ffffffffffffffffffffffffffffffffffffffff82169050919050565b600062000df18262000dc4565b9050919050565b62000e038162000de4565b811462000e0f57600080fd5b50565b60008135905062000e238162000df8565b92915050565b6000819050919050565b62000e3e8162000e29565b811462000e4a57600080fd5b50565b60008135905062000e5e8162000e33565b92915050565b6000806040838503121562000e7e5762000e7d62000dba565b5b600062000e8e8582860162000e12565b925050602062000ea18582860162000e4d565b9150509250929050565b62000eb68162000de4565b82525050565b600060408201905062000ed3600083018562000eab565b62000ee2602083018462000eab565b9392505050565b62000ef48162000e29565b82525050565b600060208201905062000f11600083018462000ee9565b92915050565b600060c08201905062000f2e600083018962000ee9565b62000f3d602083018862000ee9565b62000f4c604083018762000ee9565b62000f5b606083018662000ee9565b62000f6a608083018562000ee9565b62000f7960a083018462000ee9565b979650505050505050565b60006020828403121562000f9d5762000f9c62000dba565b5b600062000fad8482850162000e4d565b91505092915050565b600060608201905062000fcd600083018662000eab565b62000fdc602083018562000eab565b62000feb604083018462000eab565b949350505050565b600080fd5b600080fd5b6000601f19601f8301169050919050565b7f4e487b7100000000000000000000000000000000000000000000000000000000600052604160045260246000fd5b620010488262000ffd565b810181811067ffffffffffffffff821117156200106a57620010696200100e565b5b80604052505050565b60006200107f62000db0565b90506200108d82826200103d565b919050565b600067ffffffffffffffff821115620010b057620010af6200100e565b5b620010bb8262000ffd565b9050602081019050919050565b82818337600083830152505050565b6000620010ee620010e88462001092565b62001073565b9050828152602081018484840111156200110d576200110c62000ff8565b5b6200111a848285620010c8565b509392505050565b600082601f8301126200113a576200113962000ff3565b5b81356200114c848260208601620010d7565b91505092915050565b6000806000806080858703121562001172576200117162000dba565b5b6000620011828782880162000e12565b9450506020620011958782880162000e12565b9350506040620011a88782880162000e12565b925050606085013567ffffffffffffffff811115620011cc57620011cb62000dbf565b5b620011da8782880162001122565b91505092959194509250565b60005b8381101562001206578082015181840152602081019050620011e9565b8381111562001216576000848401525b50505050565b6000620012336200122d8462001092565b62001073565b90508281526020810184848401111562001252576200125162000ff8565b5b6200125f848285620011e6565b509392505050565b600082601f8301126200127f576200127e62000ff3565b5b8151620012918482602086016200121c565b91505092915050565b600060208284031215620012b357620012b262000dba565b5b600082015167ffffffffffffffff811115620012d457620012d362000dbf565b5b620012e28482850162001267565b91505092915050565b7f4e487b7100000000000000000000000000000000000000000000000000000000600052601160045260246000fd5b6000620013278262000e29565b91507fffffffffffffffffffffffffffffffffffffffffffffffffffffffffffffffff8214156200135d576200135c620012eb565b5b600182019050919050565b600082825260208201905092915050565b7f54686520706f6f6c20616c7265616479206578697374732e0000000000000000600082015250565b6000620013b160188362001368565b9150620013be8262001379565b602082019050919050565b60006020820190508181036000830152620013e481620013a2565b9050919050565b6000620013f88262000e29565b9150620014058362000e29565b9250827fffffffffffffffffffffffffffffffffffffffffffffffffffffffffffffffff038211156200143d576200143c620012eb565b5b828201905092915050565b7f4152424c50000000000000000000000000000000000000000000000000000000600082015250565b60006200148060058362001368565b91506200148d8262001448565b602082019050919050565b7f4c50000000000000000000000000000000000000000000000000000000000000600082015250565b6000620014d060028362001368565b9150620014dd8262001498565b602082019050919050565b60006040820190508181036000830152620015038162001471565b905081810360208301526200151881620014c1565b9050919050565b7f555344544c500000000000000000000000000000000000000000000000000000600082015250565b60006200155760068362001368565b915062001564826200151f565b602082019050919050565b600060408201905081810360008301526200158a8162001548565b905081810360208301526200159f81620014c1565b9050919050565b7f4554484c50000000000000000000000000000000000000000000000000000000600082015250565b6000620015de60058362001368565b9150620015eb82620015a6565b602082019050919050565b600060408201905081810360008301526200161181620015cf565b905081810360208301526200162681620014c1565b905091905056fe60806040523480156200001157600080fd5b50604051620021cb380380620021cb833981810160405281019062000037919062000344565b8181816005908051906020019062000051929190620000f7565b5080600690805190602001906200006a929190620000f7565b50505030600760006101000a81548173ffffffffffffffffffffffffffffffffffffffff021916908373ffffffffffffffffffffffffffffffffffffffff16021790555030600860006101000a81548173ffffffffffffffffffffffffffffffffffffffff021916908373ffffffffffffffffffffffffffffffffffffffff16021790555050506200042e565b8280546200010590620003f8565b90600052602060002090601f01602090048101928262000129576000855562000175565b82601f106200014457805160ff191683800117855562000175565b8280016001018555821562000175579182015b828111156200017457825182559160200191906001019062000157565b5b50905062000184919062000188565b5090565b5b80821115620001a357600081600090555060010162000189565b5090565b6000604051905090565b600080fd5b600080fd5b600080fd5b600080fd5b6000601f19601f8301169050919050565b7f4e487b7100000000000000000000000000000000000000000000000000000000600052604160045260246000fd5b6200021082620001c5565b810181811067ffffffffffffffff82111715620002325762000231620001d6565b5b80604052505050565b600062000247620001a7565b905062000255828262000205565b919050565b600067ffffffffffffffff821115620002785762000277620001d6565b5b6200028382620001c5565b9050602081019050919050565b60005b83811015620002b057808201518184015260208101905062000293565b83811115620002c0576000848401525b50505050565b6000620002dd620002d7846200025a565b6200023b565b905082815260208101848484011115620002fc57620002fb620001c0565b5b6200030984828562000290565b509392505050565b600082601f830112620003295762000328620001bb565b5b81516200033b848260208601620002c6565b91505092915050565b600080604083850312156200035e576200035d620001b1565b5b600083015167ffffffffffffffff8111156200037f576200037e620001b6565b5b6200038d8582860162000311565b925050602083015167ffffffffffffffff811115620003b157620003b0620001b6565b5b620003bf8582860162000311565b9150509250929050565b7f4e487b7100000000000000000000000000000000000000000000000000000000600052602260045260246000fd5b600060028204905060018216806200041157607f821691505b60208210811415620004285762000427620003c9565b5b50919050565b611d8d806200043e6000396000f3fe608060405234801561001057600080fd5b506004361061010b5760003560e01c806395d89b41116100a2578063a0712d6811610071578063a0712d68146102d0578063a457c2d7146102ec578063a9059cbb1461031c578063dd62ed3e1461034c578063e23449631461037c5761010b565b806395d89b4114610246578063993a86bd146102645780639c53f267146102825780639d76ea58146102b25761010b565b8063313ce567116100de578063313ce567146101ac57806339509351146101ca5780636161eb18146101fa57806370a08231146102165761010b565b806306fdde0314610110578063095ea7b31461012e57806318160ddd1461015e57806323b872dd1461017c575b600080fd5b610118610398565b6040516101259190611248565b60405180910390f35b61014860048036038101906101439190611303565b61042a565b604051610155919061135e565b60405180910390f35b610166610468565b6040516101739190611388565b60405180910390f35b610196600480360381019061019191906113a3565b610472565b6040516101a3919061135e565b60405180910390f35b6101b4610495565b6040516101c19190611412565b60405180910390f35b6101e460048036038101906101df9190611303565b61049e565b6040516101f1919061135e565b60405180910390f35b610214600480360381019061020f9190611303565b6104f0565b005b610230600480360381019061022b919061142d565b6106c0565b60405161023d9190611388565b60405180910390f35b61024e610709565b60405161025b9190611248565b60405180910390f35b61026c61079b565b6040516102799190611469565b60405180910390f35b61029c6004803603810190610297919061142d565b6107c1565b6040516102a99190611388565b60405180910390f35b6102ba6107d9565b6040516102c79190611469565b60405180910390f35b6102ea60048036038101906102e59190611484565b6107ff565b005b61030660048036038101906103019190611303565b6108e8565b604051610313919061135e565b60405180910390f35b61033660048036038101906103319190611303565b61097a565b604051610343919061135e565b60405180910390f35b610366600480360381019061036191906114b1565b610996565b6040516103739190611388565b60405180910390f35b610396600480360381019061039191906114f1565b610a1d565b005b6060600580546103a790611560565b80601f01602080910402602001604051908101604052809291908181526020018280546103d390611560565b80156104205780601f106103f557610100808354040283529160200191610420565b820191906000526020600020905b81548152906001019060200180831161040357829003601f168201915b5050505050905090565b600080600860009054906101000a900473ffffffffffffffffffffffffffffffffffffffff16905061045d818585610b0a565b600191505092915050565b6000600c54905090565b600061047f848484610cd5565b61048a848484610f50565b600190509392505050565b60006012905090565b600080600860009054906101000a900473ffffffffffffffffffffffffffffffffffffffff1690506104e58185856104d68589610996565b6104e091906115c1565b610b0a565b600191505092915050565b600073ffffffffffffffffffffffffffffffffffffffff168273ffffffffffffffffffffffffffffffffffffffff161415610560576040517f08c379a000000000000000000000000000000000000000000000000000000000815260040161055790611689565b60405180910390fd5b61056c8260008361104d565b6000600960008473ffffffffffffffffffffffffffffffffffffffff1673ffffffffffffffffffffffffffffffffffffffff168152602001908152602001600020549050818110156105f3576040517f08c379a00000000000000000000000000000000000000000000000000000000081526004016105ea9061171b565b60405180910390fd5b818103600960008573ffffffffffffffffffffffffffffffffffffffff1673ffffffffffffffffffffffffffffffffffffffff1681526020019081526020016000208190555081600c60008282540392505081905550600073ffffffffffffffffffffffffffffffffffffffff168373ffffffffffffffffffffffffffffffffffffffff167fddf252ad1be2c89b69c2b068fc378daa952ba7f163c4a11628f55a4df523b3ef846040516106a79190611388565b60405180910390a36106bb83600084611052565b505050565b6000600960008373ffffffffffffffffffffffffffffffffffffffff1673ffffffffffffffffffffffffffffffffffffffff168152602001908152602001600020549050919050565b60606006805461071890611560565b80601f016020809104026020016040519081016040528092919081815260200182805461074490611560565b80156107915780601f1061076657610100808354040283529160200191610791565b820191906000526020600020905b81548152906001019060200180831161077457829003601f168201915b5050505050905090565b600860009054906101000a900473ffffffffffffffffffffffffffffffffffffffff1681565b600b6020528060005260406000206000915090505481565b600760009054906101000a900473ffffffffffffffffffffffffffffffffffffffff1681565b61083e600860009054906101000a900473ffffffffffffffffffffffffffffffffffffffff16670de0b6b3a764000083610839919061173b565b611057565b61087d600860009054906101000a900473ffffffffffffffffffffffffffffffffffffffff16670de0b6b3a764000083610878919061173b565b61042a565b506001600b6000600860009054906101000a900473ffffffffffffffffffffffffffffffffffffffff1673ffffffffffffffffffffffffffffffffffffffff1673ffffffffffffffffffffffffffffffffffffffff1681526020019081526020016000208190555050565b600080600860009054906101000a900473ffffffffffffffffffffffffffffffffffffffff169050600061091c8286610996565b905083811015610961576040517f08c379a000000000000000000000000000000000000000000000000000000000815260040161095890611807565b60405180910390fd5b61096e8286868403610b0a565b60019250505092915050565b60008030905061098b818585610cd5565b600191505092915050565b6000600a60008473ffffffffffffffffffffffffffffffffffffffff1673ffffffffffffffffffffffffffffffffffffffff16815260200190815260200160002060008373ffffffffffffffffffffffffffffffffffffffff1673ffffffffffffffffffffffffffffffffffffffff16815260200190815260200160002054905092915050565b610a60600860009054906101000a900473ffffffffffffffffffffffffffffffffffffffff1682600a610a50919061195a565b84610a5b919061173b565b611057565b610aa3600860009054906101000a900473ffffffffffffffffffffffffffffffffffffffff1682600a610a93919061195a565b84610a9e919061173b565b61042a565b50600b6000600860009054906101000a900473ffffffffffffffffffffffffffffffffffffffff1673ffffffffffffffffffffffffffffffffffffffff1673ffffffffffffffffffffffffffffffffffffffff168152602001908152602001600020505050565b600073ffffffffffffffffffffffffffffffffffffffff168373ffffffffffffffffffffffffffffffffffffffff161415610b7a576040517f08c379a0000000000000000000000000000000000000000000000000000000008152600401610b7190611a17565b60405180910390fd5b600073ffffffffffffffffffffffffffffffffffffffff168273ffffffffffffffffffffffffffffffffffffffff161415610bea576040517f08c379a0000000000000000000000000000000000000000000000000000000008152600401610be190611aa9565b60405180910390fd5b80600a60008573ffffffffffffffffffffffffffffffffffffffff1673ffffffffffffffffffffffffffffffffffffffff16815260200190815260200160002060008473ffffffffffffffffffffffffffffffffffffffff1673ffffffffffffffffffffffffffffffffffffffff168152602001908152602001600020819055508173ffffffffffffffffffffffffffffffffffffffff168373ffffffffffffffffffffffffffffffffffffffff167f8c5be1e5ebec7d5bd14f71427d1e84f3dd0314c0f7b2291e5b200ac8c7c3b92583604051610cc89190611388565b60405180910390a3505050565b600073ffffffffffffffffffffffffffffffffffffffff168373ffffffffffffffffffffffffffffffffffffffff161415610d45576040517f08c379a0000000000000000000000000000000000000000000000000000000008152600401610d3c90611b3b565b60405180910390fd5b600073ffffffffffffffffffffffffffffffffffffffff168273ffffffffffffffffffffffffffffffffffffffff161415610db5576040517f08c379a0000000000000000000000000000000000000000000000000000000008152600401610dac90611bcd565b60405180910390fd5b610dc083838361104d565b6000600960008573ffffffffffffffffffffffffffffffffffffffff1673ffffffffffffffffffffffffffffffffffffffff16815260200190815260200160002054905081811015610e47576040517f08c379a0000000000000000000000000000000000000000000000000000000008152600401610e3e90611c5f565b60405180910390fd5b818103600960008673ffffffffffffffffffffffffffffffffffffffff1673ffffffffffffffffffffffffffffffffffffffff1681526020019081526020016000208190555081600960008573ffffffffffffffffffffffffffffffffffffffff1673ffffffffffffffffffffffffffffffffffffffff168152602001908152602001600020600082825401925050819055508273ffffffffffffffffffffffffffffffffffffffff168473ffffffffffffffffffffffffffffffffffffffff167fddf252ad1be2c89b69c2b068fc378daa952ba7f163c4a11628f55a4df523b3ef84604051610f379190611388565b60405180910390a3610f4a848484611052565b50505050565b6000610f7e600860009054906101000a900473ffffffffffffffffffffffffffffffffffffffff1685610996565b90507fffffffffffffffffffffffffffffffffffffffffffffffffffffffffffffffff81146110475781811015610fea576040517f08c379a0000000000000000000000000000000000000000000000000000000008152600401610fe190611ccb565b60405180910390fd5b611019600860009054906101000a900473ffffffffffffffffffffffffffffffffffffffff1685848403610b0a565b611046600860009054906101000a900473ffffffffffffffffffffffffffffffffffffffff168484610b0a565b5b50505050565b505050565b505050565b600073ffffffffffffffffffffffffffffffffffffffff168273ffffffffffffffffffffffffffffffffffffffff1614156110c7576040517f08c379a00000000000000000000000000000000000000000000000000000000081526004016110be90611d37565b60405180910390fd5b6110d36000838361104d565b80600c60008282546110e591906115c1565b9250508190555080600960008473ffffffffffffffffffffffffffffffffffffffff1673ffffffffffffffffffffffffffffffffffffffff168152602001908152602001600020600082825401925050819055508173ffffffffffffffffffffffffffffffffffffffff16600073ffffffffffffffffffffffffffffffffffffffff167fddf252ad1be2c89b69c2b068fc378daa952ba7f163c4a11628f55a4df523b3ef836040516111979190611388565b60405180910390a36111ab60008383611052565b5050565b600081519050919050565b600082825260208201905092915050565b60005b838110156111e95780820151818401526020810190506111ce565b838111156111f8576000848401525b50505050565b6000601f19601f8301169050919050565b600061121a826111af565b61122481856111ba565b93506112348185602086016111cb565b61123d816111fe565b840191505092915050565b60006020820190508181036000830152611262818461120f565b905092915050565b600080fd5b600073ffffffffffffffffffffffffffffffffffffffff82169050919050565b600061129a8261126f565b9050919050565b6112aa8161128f565b81146112b557600080fd5b50565b6000813590506112c7816112a1565b92915050565b6000819050919050565b6112e0816112cd565b81146112eb57600080fd5b50565b6000813590506112fd816112d7565b92915050565b6000806040838503121561131a5761131961126a565b5b6000611328858286016112b8565b9250506020611339858286016112ee565b9150509250929050565b60008115159050919050565b61135881611343565b82525050565b6000602082019050611373600083018461134f565b92915050565b611382816112cd565b82525050565b600060208201905061139d6000830184611379565b92915050565b6000806000606084860312156113bc576113bb61126a565b5b60006113ca868287016112b8565b93505060206113db868287016112b8565b92505060406113ec868287016112ee565b9150509250925092565b600060ff82169050919050565b61140c816113f6565b82525050565b60006020820190506114276000830184611403565b92915050565b6000602082840312156114435761144261126a565b5b6000611451848285016112b8565b91505092915050565b6114638161128f565b82525050565b600060208201905061147e600083018461145a565b92915050565b60006020828403121561149a5761149961126a565b5b60006114a8848285016112ee565b91505092915050565b600080604083850312156114c8576114c761126a565b5b60006114d6858286016112b8565b92505060206114e7858286016112b8565b9150509250929050565b600080604083850312156115085761150761126a565b5b6000611516858286016112ee565b9250506020611527858286016112ee565b9150509250929050565b7f4e487b7100000000000000000000000000000000000000000000000000000000600052602260045260246000fd5b6000600282049050600182168061157857607f821691505b6020821081141561158c5761158b611531565b5b50919050565b7f4e487b7100000000000000000000000000000000000000000000000000000000600052601160045260246000fd5b60006115cc826112cd565b91506115d7836112cd565b9250827fffffffffffffffffffffffffffffffffffffffffffffffffffffffffffffffff0382111561160c5761160b611592565b5b828201905092915050565b7f45524332303a206275726e2066726f6d20746865207a65726f2061646472657360008201527f7300000000000000000000000000000000000000000000000000000000000000602082015250565b60006116736021836111ba565b915061167e82611617565b604082019050919050565b600060208201905081810360008301526116a281611666565b9050919050565b7f45524332303a206275726e20616d6f756e7420657863656564732062616c616e60008201527f6365000000000000000000000000000000000000000000000000000000000000602082015250565b60006117056022836111ba565b9150611710826116a9565b604082019050919050565b60006020820190508181036000830152611734816116f8565b9050919050565b6000611746826112cd565b9150611751836112cd565b9250817fffffffffffffffffffffffffffffffffffffffffffffffffffffffffffffffff048311821515161561178a57611789611592565b5b828202905092915050565b7f45524332303a2064656372656173656420616c6c6f77616e63652062656c6f7760008201527f207a65726f000000000000000000000000000000000000000000000000000000602082015250565b60006117f16025836111ba565b91506117fc82611795565b604082019050919050565b60006020820190508181036000830152611820816117e4565b9050919050565b60008160011c9050919050565b6000808291508390505b600185111561187e5780860481111561185a57611859611592565b5b60018516156118695780820291505b808102905061187785611827565b945061183e565b94509492505050565b6000826118975760019050611953565b816118a55760009050611953565b81600181146118bb57600281146118c5576118f4565b6001915050611953565b60ff8411156118d7576118d6611592565b5b8360020a9150848211156118ee576118ed611592565b5b50611953565b5060208310610133831016604e8410600b84101617156119295782820a90508381111561192457611923611592565b5b611953565b6119368484846001611834565b9250905081840481111561194d5761194c611592565b5b81810290505b9392505050565b6000611965826112cd565b9150611970836112cd565b925061199d7fffffffffffffffffffffffffffffffffffffffffffffffffffffffffffffffff8484611887565b905092915050565b7f45524332303a20617070726f76652066726f6d20746865207a65726f2061646460008201527f7265737300000000000000000000000000000000000000000000000000000000602082015250565b6000611a016024836111ba565b9150611a0c826119a5565b604082019050919050565b60006020820190508181036000830152611a30816119f4565b9050919050565b7f45524332303a20617070726f766520746f20746865207a65726f20616464726560008201527f7373000000000000000000000000000000000000000000000000000000000000602082015250565b6000611a936022836111ba565b9150611a9e82611a37565b604082019050919050565b60006020820190508181036000830152611ac281611a86565b9050919050565b7f45524332303a207472616e736665722066726f6d20746865207a65726f20616460008201527f6472657373000000000000000000000000000000000000000000000000000000602082015250565b6000611b256025836111ba565b9150611b3082611ac9565b604082019050919050565b60006020820190508181036000830152611b5481611b18565b9050919050565b7f45524332303a207472616e7366657220746f20746865207a65726f206164647260008201527f6573730000000000000000000000000000000000000000000000000000000000602082015250565b6000611bb76023836111ba565b9150611bc282611b5b565b604082019050919050565b60006020820190508181036000830152611be681611baa565b9050919050565b7f45524332303a207472616e7366657220616d6f756e742065786365656473206260008201527f616c616e63650000000000000000000000000000000000000000000000000000602082015250565b6000611c496026836111ba565b9150611c5482611bed565b604082019050919050565b60006020820190508181036000830152611c7881611c3c565b9050919050565b7f45524332303a20696e73756666696369656e7420616c6c6f77616e6365000000600082015250565b6000611cb5601d836111ba565b9150611cc082611c7f565b602082019050919050565b60006020820190508181036000830152611ce481611ca8565b9050919050565b7f45524332303a206d696e7420746f20746865207a65726f206164647265737300600082015250565b6000611d21601f836111ba565b9150611d2c82611ceb565b602082019050919050565b60006020820190508181036000830152611d5081611d14565b905091905056fea26469706673582212207c5fb4772027631276438e0ac92e0d34b924d6f91b0facfcf9bf4406934202fd64736f6c63430008090033a2646970667358221220ed5614def1f2d40c3435d4c725015d8360c4f048d69faa1e36e61530ee3e36d664736f6c63430008090033",
  "linkReferences": {},
  "deployedLinkReferences": {}
}