{
  "_format": "hh-sol-artifact-1",
  "contractName": "Governance",
  "sourceName": "contracts/governance.sol",
  "abi": [
    {
      "inputs": [
        {
          "internalType": "address",
          "name": "_owner",
          "type": "address"
        }
      ],
      "stateMutability": "nonpayable",
      "type": "constructor"
    },
    {
      "inputs": [
        {
          "internalType": "address",
          "name": "token",
          "type": "address"
        }
      ],
      "name": "changeLevel",
      "outputs": [],
      "stateMutability": "nonpayable",
      "type": "function"
    },
    {
      "inputs": [
        {
          "internalType": "uint256",
          "name": "_proposal",
          "type": "uint256"
        }
      ],
      "name": "getCallData",
      "outputs": [
        {
          "internalType": "bytes",
          "name": "",
          "type": "bytes"
        }
      ],
      "stateMutability": "view",
      "type": "function"
    },
    {
      "inputs": [
        {
          "internalType": "uint256",
          "name": "_idx",
          "type": "uint256"
        }
      ],
      "name": "getProposal",
      "outputs": [
        {
          "internalType": "address",
          "name": "",
          "type": "address"
        },
        {
          "internalType": "uint256",
          "name": "",
          "type": "uint256"
        },
        {
          "internalType": "uint256",
          "name": "",
          "type": "uint256"
        },
        {
          "internalType": "bytes",
          "name": "",
          "type": "bytes"
        },
        {
          "internalType": "bool",
          "name": "",
          "type": "bool"
        },
        {
          "internalType": "bool",
          "name": "",
          "type": "bool"
        },
        {
          "internalType": "uint256",
          "name": "",
          "type": "uint256"
        }
      ],
      "stateMutability": "view",
      "type": "function"
    },
    {
      "inputs": [
        {
          "internalType": "uint256",
          "name": "",
          "type": "uint256"
        }
      ],
      "name": "participants",
      "outputs": [
        {
          "internalType": "address",
          "name": "",
          "type": "address"
        }
      ],
      "stateMutability": "view",
      "type": "function"
    },
    {
      "inputs": [
        {
          "internalType": "uint256",
          "name": "_proposal",
          "type": "uint256"
        }
      ],
      "name": "proposalExecute",
      "outputs": [
        {
          "internalType": "bool",
          "name": "",
          "type": "bool"
        }
      ],
      "stateMutability": "nonpayable",
      "type": "function"
    },
    {
      "inputs": [
        {
          "internalType": "address",
          "name": "_proposer",
          "type": "address"
        },
        {
          "internalType": "bytes",
          "name": "_callData",
          "type": "bytes"
        }
      ],
      "name": "propose",
      "outputs": [],
      "stateMutability": "nonpayable",
      "type": "function"
    },
    {
      "inputs": [
        {
          "internalType": "address",
          "name": "_timelock",
          "type": "address"
        }
      ],
      "name": "setTimelockAddress",
      "outputs": [],
      "stateMutability": "nonpayable",
      "type": "function"
    },
    {
      "inputs": [
        {
          "internalType": "address",
          "name": "_token",
          "type": "address"
        }
      ],
      "name": "setTokenAddress",
      "outputs": [],
      "stateMutability": "nonpayable",
      "type": "function"
    },
    {
      "inputs": [
        {
          "internalType": "uint256",
          "name": "_proposal",
          "type": "uint256"
        }
      ],
      "name": "timelockExecute",
      "outputs": [
        {
          "internalType": "bool",
          "name": "",
          "type": "bool"
        }
      ],
      "stateMutability": "nonpayable",
      "type": "function"
    },
    {
      "inputs": [
        {
          "internalType": "address",
          "name": "_participant",
          "type": "address"
        },
        {
          "internalType": "uint256",
          "name": "_proposal",
          "type": "uint256"
        },
        {
          "internalType": "bool",
          "name": "_agree",
          "type": "bool"
        }
      ],
      "name": "voting",
      "outputs": [],
      "stateMutability": "nonpayable",
      "type": "function"
    }
  ],
  "bytecode": "0x60806040523480156200001157600080fd5b506040516200218238038062002182833981810160405281019062000037919062000129565b806000806101000a81548173ffffffffffffffffffffffffffffffffffffffff021916908373ffffffffffffffffffffffffffffffffffffffff16021790555030600360006101000a81548173ffffffffffffffffffffffffffffffffffffffff021916908373ffffffffffffffffffffffffffffffffffffffff160217905550506200015b565b600080fd5b600073ffffffffffffffffffffffffffffffffffffffff82169050919050565b6000620000f182620000c4565b9050919050565b6200010381620000e4565b81146200010f57600080fd5b50565b6000815190506200012381620000f8565b92915050565b600060208284031215620001425762000141620000bf565b5b6000620001528482850162000112565b91505092915050565b612017806200016b6000396000f3fe608060405234801561001057600080fd5b506004361061009e5760003560e01c8063904f289c11610066578063904f289c1461016b5780639d4818481461019b578063c7f758a8146101b7578063e32d90b9146101ed578063fca79ca2146102095761009e565b806320a477b0146100a357806326a4e8d2146100d357806335c1d349146100ef578063646f1a0c1461011f5780636782b52d1461014f575b600080fd5b6100bd60048036038101906100b891906113a3565b610225565b6040516100ca91906113eb565b60405180910390f35b6100ed60048036038101906100e89190611464565b610524565b005b610109600480360381019061010491906113a3565b6105c0565b60405161011691906114a0565b60405180910390f35b610139600480360381019061013491906113a3565b6105ff565b60405161014691906113eb565b60405180910390f35b61016960048036038101906101649190611464565b6108cc565b005b610185600480360381019061018091906113a3565b6108cf565b6040516101929190611554565b60405180910390f35b6101b560048036038101906101b091906116ab565b610977565b005b6101d160048036038101906101cc91906113a3565b610ca2565b6040516101e49796959493929190611716565b60405180910390f35b610207600480360381019061020291906117b8565b610dc6565b005b610223600480360381019061021e9190611464565b61121a565b005b60008060009054906101000a900473ffffffffffffffffffffffffffffffffffffffff1673ffffffffffffffffffffffffffffffffffffffff163373ffffffffffffffffffffffffffffffffffffffff16146102b6576040517f08c379a00000000000000000000000000000000000000000000000000000000081526004016102ad90611868565b60405180910390fd5b670713e24c43730000600760008481526020019081526020016000206005015411156104eb5760016007600084815260200190815260200160002060040160016101000a81548160ff02191690831515021790555060006002600760008581526020019081526020016000206003018054610330906118b7565b905061033c9190611918565b1461043e5760006007600084815260200190815260200160002060030160405160200161036991906119e8565b6040516020818303038152906040529050806007600085815260200190815260200160002060030190805190602001906103a49291906112b6565b50600460009054906101000a900473ffffffffffffffffffffffffffffffffffffffff1673ffffffffffffffffffffffffffffffffffffffff16632c4076b682426040518363ffffffff1660e01b81526004016104029291906119ff565b600060405180830381600087803b15801561041c57600080fd5b505af1158015610430573d6000803e3d6000fd5b50505050600191505061051f565b600460009054906101000a900473ffffffffffffffffffffffffffffffffffffffff1673ffffffffffffffffffffffffffffffffffffffff16632c4076b660076000858152602001908152602001600020600301426040518363ffffffff1660e01b81526004016104b0929190611aaf565b600060405180830381600087803b1580156104ca57600080fd5b505af11580156104de573d6000803e3d6000fd5b505050506001905061051f565b60016007600084815260200190815260200160002060040160006101000a81548160ff021916908315150217905550600090505b919050565b3373ffffffffffffffffffffffffffffffffffffffff1660008054906101000a900473ffffffffffffffffffffffffffffffffffffffff1673ffffffffffffffffffffffffffffffffffffffff161461057c57600080fd5b80600160006101000a81548173ffffffffffffffffffffffffffffffffffffffff021916908373ffffffffffffffffffffffffffffffffffffffff16021790555050565b600681815481106105d057600080fd5b906000526020600020016000915054906101000a900473ffffffffffffffffffffffffffffffffffffffff1681565b60008060009054906101000a900473ffffffffffffffffffffffffffffffffffffffff1673ffffffffffffffffffffffffffffffffffffffff163373ffffffffffffffffffffffffffffffffffffffff1614610690576040517f08c379a000000000000000000000000000000000000000000000000000000000815260040161068790611868565b60405180910390fd5b6007600083815260200190815260200160002060040160019054906101000a900460ff166106f3576040517f08c379a00000000000000000000000000000000000000000000000000000000081526004016106ea90611b51565b60405180910390fd5b600460009054906101000a900473ffffffffffffffffffffffffffffffffffffffff1673ffffffffffffffffffffffffffffffffffffffff166392e876cd60076000858152602001908152602001600020600301426040518363ffffffff1660e01b8152600401610765929190611aaf565b602060405180830381600087803b15801561077f57600080fd5b505af1158015610793573d6000803e3d6000fd5b505050506040513d601f19601f820116820180604052508101906107b79190611b86565b6107f6576040517f08c379a00000000000000000000000000000000000000000000000000000000081526004016107ed90611c25565b60405180910390fd5b600460009054906101000a900473ffffffffffffffffffffffffffffffffffffffff1673ffffffffffffffffffffffffffffffffffffffff1663faa9e569600760008581526020019081526020016000206003016040518263ffffffff1660e01b81526004016108669190611c45565b60606040518083038186803b15801561087e57600080fd5b505afa158015610892573d6000803e3d6000fd5b505050506040513d601f19601f820116820180604052508101906108b69190611ce5565b600001516108c357600080fd5b60019050919050565b50565b60606007600083815260200190815260200160002060030180546108f2906118b7565b80601f016020809104026020016040519081016040528092919081815260200182805461091e906118b7565b801561096b5780601f106109405761010080835404028352916020019161096b565b820191906000526020600020905b81548152906001019060200180831161094e57829003601f168201915b50505050509050919050565b6000600160009054906101000a900473ffffffffffffffffffffffffffffffffffffffff1673ffffffffffffffffffffffffffffffffffffffff166370a08231846040518263ffffffff1660e01b81526004016109d491906114a0565b60206040518083038186803b1580156109ec57600080fd5b505afa158015610a00573d6000803e3d6000fd5b505050506040513d601f19601f82011682018060405250810190610a249190611d12565b11610a64576040517f08c379a0000000000000000000000000000000000000000000000000000000008152600401610a5b90611db1565b60405180910390fd5b6000439050600061438043610a799190611e00565b90506000600760006001600254610a909190611e00565b81526020019081526020016000209050848160000160006101000a81548173ffffffffffffffffffffffffffffffffffffffff021916908373ffffffffffffffffffffffffffffffffffffffff16021790555082816001018190555081816002018190555083816003019080519060200190610b0d9291906112b6565b5060008160040160006101000a81548160ff02191690831515021790555060008160040160016101000a81548160ff021916908315150217905550600081600501819055506040518060400160405280600115158152602001600115158152508160060160008773ffffffffffffffffffffffffffffffffffffffff1673ffffffffffffffffffffffffffffffffffffffff16815260200190815260200160002060008201518160000160006101000a81548160ff02191690831515021790555060208201518160000160016101000a81548160ff021916908315150217905550905050600160026000828254610c049190611e00565b92505081905550600160009054906101000a900473ffffffffffffffffffffffffffffffffffffffff1673ffffffffffffffffffffffffffffffffffffffff16636161eb188660016040518363ffffffff1660e01b8152600401610c69929190611e9b565b600060405180830381600087803b158015610c8357600080fd5b505af1158015610c97573d6000803e3d6000fd5b505050505050505050565b60008060006060600080600080600760008a815260200190815260200160002090508060000160009054906101000a900473ffffffffffffffffffffffffffffffffffffffff1681600101548260020154836003018460040160009054906101000a900460ff168560040160019054906101000a900460ff168660050154838054610d2c906118b7565b80601f0160208091040260200160405190810160405280929190818152602001828054610d58906118b7565b8015610da55780601f10610d7a57610100808354040283529160200191610da5565b820191906000526020600020905b815481529060010190602001808311610d8857829003601f168201915b50505050509350975097509750975097509750975050919395979092949650565b6000600160009054906101000a900473ffffffffffffffffffffffffffffffffffffffff1673ffffffffffffffffffffffffffffffffffffffff166370a08231856040518263ffffffff1660e01b8152600401610e2391906114a0565b60206040518083038186803b158015610e3b57600080fd5b505afa158015610e4f573d6000803e3d6000fd5b505050506040513d601f19601f82011682018060405250810190610e739190611d12565b11610eb3576040517f08c379a0000000000000000000000000000000000000000000000000000000008152600401610eaa90611db1565b60405180910390fd5b600015156007600084815260200190815260200160002060060160008573ffffffffffffffffffffffffffffffffffffffff1673ffffffffffffffffffffffffffffffffffffffff16815260200190815260200160002060000160009054906101000a900460ff16151514610f5d576040517f08c379a0000000000000000000000000000000000000000000000000000000008152600401610f5490611f36565b60405180910390fd5b60405180604001604052806001151581526020018215158152506007600084815260200190815260200160002060060160008573ffffffffffffffffffffffffffffffffffffffff1673ffffffffffffffffffffffffffffffffffffffff16815260200190815260200160002060008201518160000160006101000a81548160ff02191690831515021790555060208201518160000160016101000a81548160ff02191690831515021790555090505060086000838152602001908152602001600020839080600181540180825580915050600190039060005260206000200160009091909190916101000a81548173ffffffffffffffffffffffffffffffffffffffff021916908373ffffffffffffffffffffffffffffffffffffffff160217905550600160009054906101000a900473ffffffffffffffffffffffffffffffffffffffff1673ffffffffffffffffffffffffffffffffffffffff166318160ddd6040518163ffffffff1660e01b815260040160206040518083038186803b1580156110e957600080fd5b505afa1580156110fd573d6000803e3d6000fd5b505050506040513d601f19601f820116820180604052508101906111219190611d12565b670de0b6b3a7640000600160009054906101000a900473ffffffffffffffffffffffffffffffffffffffff1673ffffffffffffffffffffffffffffffffffffffff166370a08231866040518263ffffffff1660e01b815260040161118591906114a0565b60206040518083038186803b15801561119d57600080fd5b505afa1580156111b1573d6000803e3d6000fd5b505050506040513d601f19601f820116820180604052508101906111d59190611d12565b6111df9190611f56565b6111e99190611fb0565b60076000848152602001908152602001600020600501600082825461120e9190611e00565b92505081905550505050565b3373ffffffffffffffffffffffffffffffffffffffff1660008054906101000a900473ffffffffffffffffffffffffffffffffffffffff1673ffffffffffffffffffffffffffffffffffffffff161461127257600080fd5b80600460006101000a81548173ffffffffffffffffffffffffffffffffffffffff021916908373ffffffffffffffffffffffffffffffffffffffff16021790555050565b8280546112c2906118b7565b90600052602060002090601f0160209004810192826112e4576000855561132b565b82601f106112fd57805160ff191683800117855561132b565b8280016001018555821561132b579182015b8281111561132a57825182559160200191906001019061130f565b5b509050611338919061133c565b5090565b5b8082111561135557600081600090555060010161133d565b5090565b6000604051905090565b600080fd5b600080fd5b6000819050919050565b6113808161136d565b811461138b57600080fd5b50565b60008135905061139d81611377565b92915050565b6000602082840312156113b9576113b8611363565b5b60006113c78482850161138e565b91505092915050565b60008115159050919050565b6113e5816113d0565b82525050565b600060208201905061140060008301846113dc565b92915050565b600073ffffffffffffffffffffffffffffffffffffffff82169050919050565b600061143182611406565b9050919050565b61144181611426565b811461144c57600080fd5b50565b60008135905061145e81611438565b92915050565b60006020828403121561147a57611479611363565b5b60006114888482850161144f565b91505092915050565b61149a81611426565b82525050565b60006020820190506114b56000830184611491565b92915050565b600081519050919050565b600082825260208201905092915050565b60005b838110156114f55780820151818401526020810190506114da565b83811115611504576000848401525b50505050565b6000601f19601f8301169050919050565b6000611526826114bb565b61153081856114c6565b93506115408185602086016114d7565b6115498161150a565b840191505092915050565b6000602082019050818103600083015261156e818461151b565b905092915050565b600080fd5b600080fd5b7f4e487b7100000000000000000000000000000000000000000000000000000000600052604160045260246000fd5b6115b88261150a565b810181811067ffffffffffffffff821117156115d7576115d6611580565b5b80604052505050565b60006115ea611359565b90506115f682826115af565b919050565b600067ffffffffffffffff82111561161657611615611580565b5b61161f8261150a565b9050602081019050919050565b82818337600083830152505050565b600061164e611649846115fb565b6115e0565b90508281526020810184848401111561166a5761166961157b565b5b61167584828561162c565b509392505050565b600082601f83011261169257611691611576565b5b81356116a284826020860161163b565b91505092915050565b600080604083850312156116c2576116c1611363565b5b60006116d08582860161144f565b925050602083013567ffffffffffffffff8111156116f1576116f0611368565b5b6116fd8582860161167d565b9150509250929050565b6117108161136d565b82525050565b600060e08201905061172b600083018a611491565b6117386020830189611707565b6117456040830188611707565b8181036060830152611757818761151b565b905061176660808301866113dc565b61177360a08301856113dc565b61178060c0830184611707565b98975050505050505050565b611795816113d0565b81146117a057600080fd5b50565b6000813590506117b28161178c565b92915050565b6000806000606084860312156117d1576117d0611363565b5b60006117df8682870161144f565b93505060206117f08682870161138e565b9250506040611801868287016117a3565b9150509250925092565b600082825260208201905092915050565b7f476f7665726e616e6365203a206f6e6c79206f776e6572000000000000000000600082015250565b600061185260178361180b565b915061185d8261181c565b602082019050919050565b6000602082019050818103600083015261188181611845565b9050919050565b7f4e487b7100000000000000000000000000000000000000000000000000000000600052602260045260246000fd5b600060028204905060018216806118cf57607f821691505b602082108114156118e3576118e2611888565b5b50919050565b7f4e487b7100000000000000000000000000000000000000000000000000000000600052601260045260246000fd5b60006119238261136d565b915061192e8361136d565b92508261193e5761193d6118e9565b5b828206905092915050565b600081905092915050565b60008190508160005260206000209050919050565b60008154611976816118b7565b6119808186611949565b9450600182166000811461199b57600181146119ac576119df565b60ff198316865281860193506119df565b6119b585611954565b60005b838110156119d7578154818901526001820191506020810190506119b8565b838801955050505b50505092915050565b60006119f48284611969565b915081905092915050565b60006040820190508181036000830152611a19818561151b565b9050611a286020830184611707565b9392505050565b60008154611a3c816118b7565b611a4681866114c6565b94506001821660008114611a615760018114611a7357611aa6565b60ff1983168652602086019350611aa6565b611a7c85611954565b60005b83811015611a9e57815481890152600182019150602081019050611a7f565b808801955050505b50505092915050565b60006040820190508181036000830152611ac98185611a2f565b9050611ad86020830184611707565b9392505050565b7f476f7665726e616e6365203a2049742773206120766f7465207468617420646960008201527f646e277420706173732e00000000000000000000000000000000000000000000602082015250565b6000611b3b602a8361180b565b9150611b4682611adf565b604082019050919050565b60006020820190508181036000830152611b6a81611b2e565b9050919050565b600081519050611b808161178c565b92915050565b600060208284031215611b9c57611b9b611363565b5b6000611baa84828501611b71565b91505092915050565b7f476f7665726e616e6365203a2054696d656c6f636b2069732072756e6e696e6760008201527f2e00000000000000000000000000000000000000000000000000000000000000602082015250565b6000611c0f60218361180b565b9150611c1a82611bb3565b604082019050919050565b60006020820190508181036000830152611c3e81611c02565b9050919050565b60006020820190508181036000830152611c5f8184611a2f565b905092915050565b600080fd5b600081519050611c7b81611377565b92915050565b600060608284031215611c9757611c96611c67565b5b611ca160606115e0565b90506000611cb184828501611b71565b6000830152506020611cc584828501611b71565b6020830152506040611cd984828501611c6c565b60408301525092915050565b600060608284031215611cfb57611cfa611363565b5b6000611d0984828501611c81565b91505092915050565b600060208284031215611d2857611d27611363565b5b6000611d3684828501611c6c565b91505092915050565b7f476f7665726e616e6365203a20446f206e6f742068617665206120764153442060008201527f746f6b656e2e0000000000000000000000000000000000000000000000000000602082015250565b6000611d9b60268361180b565b9150611da682611d3f565b604082019050919050565b60006020820190508181036000830152611dca81611d8e565b9050919050565b7f4e487b7100000000000000000000000000000000000000000000000000000000600052601160045260246000fd5b6000611e0b8261136d565b9150611e168361136d565b9250827fffffffffffffffffffffffffffffffffffffffffffffffffffffffffffffffff03821115611e4b57611e4a611dd1565b5b828201905092915050565b6000819050919050565b6000819050919050565b6000611e85611e80611e7b84611e56565b611e60565b61136d565b9050919050565b611e9581611e6a565b82525050565b6000604082019050611eb06000830185611491565b611ebd6020830184611e8c565b9392505050565b7f476f7665726e616e6365203a20497420697320612070726f706f73616c20746860008201527f61742068617320616c7265616479206265656e20766f746564206f6e2e000000602082015250565b6000611f20603d8361180b565b9150611f2b82611ec4565b604082019050919050565b60006020820190508181036000830152611f4f81611f13565b9050919050565b6000611f618261136d565b9150611f6c8361136d565b9250817fffffffffffffffffffffffffffffffffffffffffffffffffffffffffffffffff0483118215151615611fa557611fa4611dd1565b5b828202905092915050565b6000611fbb8261136d565b9150611fc68361136d565b925082611fd657611fd56118e9565b5b82820490509291505056fea2646970667358221220d74a2fca307d78045c9a64f2da32e4e932e1ea996afb2ea4e448b179733a24fe64736f6c63430008090033",
  "linkReferences": {},
  "deployedLinkReferences": {}
}