{
  "_format": "hh-sol-artifact-1",
  "contractName": "Governance",
  "sourceName": "contracts/governance.sol",
  "abi": [
    {
      "inputs": [
        {
          "internalType": "address",
          "name": "_owner",
          "type": "address"
        }
      ],
      "stateMutability": "nonpayable",
      "type": "constructor"
    },
    {
      "inputs": [
        {
          "internalType": "address",
          "name": "_token",
          "type": "address"
        },
        {
          "internalType": "uint256",
          "name": "_level",
          "type": "uint256"
        },
        {
          "internalType": "uint256",
          "name": "_proposal",
          "type": "uint256"
        }
      ],
      "name": "changeLevel",
      "outputs": [
        {
          "internalType": "bool",
          "name": "",
          "type": "bool"
        }
      ],
      "stateMutability": "nonpayable",
      "type": "function"
    },
    {
      "inputs": [
        {
          "internalType": "address",
          "name": "_differentToken",
          "type": "address"
        },
        {
          "internalType": "address",
          "name": "_AsdToken",
          "type": "address"
        },
        {
          "internalType": "uint256",
          "name": "_proposal",
          "type": "uint256"
        }
      ],
      "name": "createPool",
      "outputs": [
        {
          "internalType": "bool",
          "name": "",
          "type": "bool"
        }
      ],
      "stateMutability": "nonpayable",
      "type": "function"
    },
    {
      "inputs": [
        {
          "internalType": "uint256",
          "name": "_proposal",
          "type": "uint256"
        }
      ],
      "name": "getCallFunction",
      "outputs": [
        {
          "internalType": "bytes",
          "name": "",
          "type": "bytes"
        }
      ],
      "stateMutability": "view",
      "type": "function"
    },
    {
      "inputs": [
        {
          "internalType": "uint256",
          "name": "_proposal",
          "type": "uint256"
        }
      ],
      "name": "getHasVote",
      "outputs": [
        {
          "internalType": "bool",
          "name": "",
          "type": "bool"
        }
      ],
      "stateMutability": "view",
      "type": "function"
    },
    {
      "inputs": [
        {
          "internalType": "uint256",
          "name": "_idx",
          "type": "uint256"
        }
      ],
      "name": "getProposal",
      "outputs": [
        {
          "internalType": "address",
          "name": "",
          "type": "address"
        },
        {
          "internalType": "uint256",
          "name": "",
          "type": "uint256"
        },
        {
          "internalType": "uint256",
          "name": "",
          "type": "uint256"
        },
        {
          "internalType": "bytes",
          "name": "",
          "type": "bytes"
        },
        {
          "internalType": "bool",
          "name": "",
          "type": "bool"
        },
        {
          "internalType": "bool",
          "name": "",
          "type": "bool"
        },
        {
          "internalType": "uint256",
          "name": "",
          "type": "uint256"
        }
      ],
      "stateMutability": "view",
      "type": "function"
    },
    {
      "inputs": [
        {
          "internalType": "bytes",
          "name": "funcName",
          "type": "bytes"
        }
      ],
      "name": "isClose",
      "outputs": [
        {
          "internalType": "bool",
          "name": "",
          "type": "bool"
        }
      ],
      "stateMutability": "view",
      "type": "function"
    },
    {
      "inputs": [
        {
          "internalType": "bytes",
          "name": "funcName",
          "type": "bytes"
        }
      ],
      "name": "isStatus",
      "outputs": [
        {
          "internalType": "bool",
          "name": "",
          "type": "bool"
        }
      ],
      "stateMutability": "view",
      "type": "function"
    },
    {
      "inputs": [
        {
          "internalType": "uint256",
          "name": "",
          "type": "uint256"
        }
      ],
      "name": "participants",
      "outputs": [
        {
          "internalType": "address",
          "name": "",
          "type": "address"
        }
      ],
      "stateMutability": "view",
      "type": "function"
    },
    {
      "inputs": [
        {
          "internalType": "uint256",
          "name": "_proposal",
          "type": "uint256"
        },
        {
          "internalType": "uint256",
          "name": "etc",
          "type": "uint256"
        }
      ],
      "name": "proposalExecute",
      "outputs": [
        {
          "internalType": "bool",
          "name": "",
          "type": "bool"
        }
      ],
      "stateMutability": "nonpayable",
      "type": "function"
    },
    {
      "inputs": [
        {
          "internalType": "address",
          "name": "_proposer",
          "type": "address"
        },
        {
          "internalType": "string",
          "name": "_callFunction",
          "type": "string"
        }
      ],
      "name": "propose",
      "outputs": [],
      "stateMutability": "nonpayable",
      "type": "function"
    },
    {
      "inputs": [
        {
          "internalType": "address",
          "name": "_factory",
          "type": "address"
        }
      ],
      "name": "setFactoryAddress",
      "outputs": [],
      "stateMutability": "nonpayable",
      "type": "function"
    },
    {
      "inputs": [
        {
          "internalType": "address",
          "name": "_timelock",
          "type": "address"
        }
      ],
      "name": "setTimelockAddress",
      "outputs": [],
      "stateMutability": "nonpayable",
      "type": "function"
    },
    {
      "inputs": [
        {
          "internalType": "address",
          "name": "_token",
          "type": "address"
        }
      ],
      "name": "setTokenAddress",
      "outputs": [],
      "stateMutability": "nonpayable",
      "type": "function"
    },
    {
      "inputs": [
        {
          "internalType": "uint256",
          "name": "_proposal",
          "type": "uint256"
        }
      ],
      "name": "timelockExecute",
      "outputs": [
        {
          "internalType": "bool",
          "name": "",
          "type": "bool"
        }
      ],
      "stateMutability": "nonpayable",
      "type": "function"
    },
    {
      "inputs": [
        {
          "internalType": "address",
          "name": "_participant",
          "type": "address"
        },
        {
          "internalType": "uint256",
          "name": "_proposal",
          "type": "uint256"
        },
        {
          "internalType": "bool",
          "name": "_agree",
          "type": "bool"
        }
      ],
      "name": "voting",
      "outputs": [],
      "stateMutability": "nonpayable",
      "type": "function"
    }
  ],
  "bytecode": "0x60806040523480156200001157600080fd5b5060405162002bc338038062002bc3833981810160405281019062000037919062000129565b806000806101000a81548173ffffffffffffffffffffffffffffffffffffffff021916908373ffffffffffffffffffffffffffffffffffffffff16021790555030600360006101000a81548173ffffffffffffffffffffffffffffffffffffffff021916908373ffffffffffffffffffffffffffffffffffffffff160217905550506200015b565b600080fd5b600073ffffffffffffffffffffffffffffffffffffffff82169050919050565b6000620000f182620000c4565b9050919050565b6200010381620000e4565b81146200010f57600080fd5b50565b6000815190506200012381620000f8565b92915050565b600060208284031215620001425762000141620000bf565b5b6000620001528482850162000112565b91505092915050565b612a58806200016b6000396000f3fe608060405234801561001057600080fd5b50600436106100f55760003560e01c80636091e29211610097578063d5f4ef3711610066578063d5f4ef37146102e8578063d6f0948c14610318578063e32d90b914610334578063fca79ca214610350576100f5565b80636091e2921461023657806383c17c551461026657806392f415ec14610282578063c7f758a8146102b2576100f5565b806335c1d349116100d357806335c1d349146101765780634a28067f146101a657806351810fb5146101d65780635ea7c65614610206576100f5565b806320a477b0146100fa57806326a4e8d21461012a57806330f259ea14610146575b600080fd5b610114600480360381019061010f9190611c44565b61036c565b6040516101219190611c8c565b60405180910390f35b610144600480360381019061013f9190611d05565b610530565b005b610160600480360381019061015b9190611e78565b6105cc565b60405161016d9190611c8c565b60405180910390f35b610190600480360381019061018b9190611c44565b610684565b60405161019d9190611ed0565b60405180910390f35b6101c060048036038101906101bb9190611eeb565b6106c3565b6040516101cd9190611c8c565b60405180910390f35b6101f060048036038101906101eb9190611f2b565b610a56565b6040516101fd9190611c8c565b60405180910390f35b610220600480360381019061021b9190611e78565b610d4c565b60405161022d9190611c8c565b60405180910390f35b610250600480360381019061024b9190611c44565b610e04565b60405161025d9190612006565b60405180910390f35b610280600480360381019061027b9190611d05565b610eac565b005b61029c60048036038101906102979190611c44565b610f48565b6040516102a99190611c8c565b60405180910390f35b6102cc60048036038101906102c79190611c44565b610fb5565b6040516102df9796959493929190612037565b60405180910390f35b61030260048036038101906102fd91906120ad565b6110d9565b60405161030f9190611c8c565b60405180910390f35b610332600480360381019061032d91906121a1565b6113cf565b005b61034e60048036038101906103499190612229565b61165b565b005b61036a60048036038101906103659190611d05565b611abb565b005b60008060009054906101000a900473ffffffffffffffffffffffffffffffffffffffff1673ffffffffffffffffffffffffffffffffffffffff163373ffffffffffffffffffffffffffffffffffffffff16146103fd576040517f08c379a00000000000000000000000000000000000000000000000000000000081526004016103f4906122d9565b60405180910390fd5b60336007600084815260200190815260200160002060050154106104f75760016007600084815260200190815260200160002060040160016101000a81548160ff021916908315150217905550600460009054906101000a900473ffffffffffffffffffffffffffffffffffffffff1673ffffffffffffffffffffffffffffffffffffffff16632c4076b660076000858152602001908152602001600020600301426040518363ffffffff1660e01b81526004016104bc9291906123ef565b600060405180830381600087803b1580156104d657600080fd5b505af11580156104ea573d6000803e3d6000fd5b505050506001905061052b565b60016007600084815260200190815260200160002060040160006101000a81548160ff021916908315150217905550600090505b919050565b3373ffffffffffffffffffffffffffffffffffffffff1660008054906101000a900473ffffffffffffffffffffffffffffffffffffffff1673ffffffffffffffffffffffffffffffffffffffff161461058857600080fd5b80600160006101000a81548173ffffffffffffffffffffffffffffffffffffffff021916908373ffffffffffffffffffffffffffffffffffffffff16021790555050565b6000600460009054906101000a900473ffffffffffffffffffffffffffffffffffffffff1673ffffffffffffffffffffffffffffffffffffffff1663faa9e569836040518263ffffffff1660e01b81526004016106299190612006565b60806040518083038186803b15801561064157600080fd5b505afa158015610655573d6000803e3d6000fd5b505050506040513d601f19601f8201168201806040525081019061067991906124c6565b600001519050919050565b6006818154811061069457600080fd5b906000526020600020016000915054906101000a900473ffffffffffffffffffffffffffffffffffffffff1681565b60008060009054906101000a900473ffffffffffffffffffffffffffffffffffffffff1673ffffffffffffffffffffffffffffffffffffffff163373ffffffffffffffffffffffffffffffffffffffff1614610754576040517f08c379a000000000000000000000000000000000000000000000000000000000815260040161074b906122d9565b60405180910390fd5b6007600084815260200190815260200160002060040160019054906101000a900460ff166107b7576040517f08c379a00000000000000000000000000000000000000000000000000000000081526004016107ae90612565565b60405180910390fd5b600460009054906101000a900473ffffffffffffffffffffffffffffffffffffffff1673ffffffffffffffffffffffffffffffffffffffff166392e876cd60076000868152602001908152602001600020600301426040518363ffffffff1660e01b81526004016108299291906123ef565b602060405180830381600087803b15801561084357600080fd5b505af1158015610857573d6000803e3d6000fd5b505050506040513d601f19601f8201168201806040525081019061087b9190612585565b6108ba576040517f08c379a00000000000000000000000000000000000000000000000000000000081526004016108b190612624565b60405180910390fd5b600460009054906101000a900473ffffffffffffffffffffffffffffffffffffffff1673ffffffffffffffffffffffffffffffffffffffff1663faa9e569600760008681526020019081526020016000206003016040518263ffffffff1660e01b815260040161092a9190612644565b60806040518083038186803b15801561094257600080fd5b505afa158015610956573d6000803e3d6000fd5b505050506040513d601f19601f8201168201806040525081019061097a91906124c6565b6000015161098757600080fd5b600460009054906101000a900473ffffffffffffffffffffffffffffffffffffffff1673ffffffffffffffffffffffffffffffffffffffff166392e876cd60076000868152602001908152602001600020600301846040518363ffffffff1660e01b81526004016109f99291906123ef565b602060405180830381600087803b158015610a1357600080fd5b505af1158015610a27573d6000803e3d6000fd5b505050506040513d601f19601f82011682018060405250810190610a4b9190612585565b506001905092915050565b6000610aff600760008481526020019081526020016000206003018054610a7c90612328565b80601f0160208091040260200160405190810160405280929190818152602001828054610aa890612328565b8015610af55780601f10610aca57610100808354040283529160200191610af5565b820191906000526020600020905b815481529060010190602001808311610ad857829003601f168201915b50505050506105cc565b610b0857600080fd5b610baf600760008481526020019081526020016000206003018054610b2c90612328565b80601f0160208091040260200160405190810160405280929190818152602001828054610b5890612328565b8015610ba55780601f10610b7a57610100808354040283529160200191610ba5565b820191906000526020600020905b815481529060010190602001808311610b8857829003601f168201915b5050505050610d4c565b15610bef576040517f08c379a0000000000000000000000000000000000000000000000000000000008152600401610be6906126b2565b60405180910390fd5b600560009054906101000a900473ffffffffffffffffffffffffffffffffffffffff1673ffffffffffffffffffffffffffffffffffffffff1663e343361585856040518363ffffffff1660e01b8152600401610c4c9291906126d2565b600060405180830381600087803b158015610c6657600080fd5b505af1158015610c7a573d6000803e3d6000fd5b50505050600460009054906101000a900473ffffffffffffffffffffffffffffffffffffffff1673ffffffffffffffffffffffffffffffffffffffff1663589dad3e600760008581526020019081526020016000206003016040518263ffffffff1660e01b8152600401610cee9190612644565b602060405180830381600087803b158015610d0857600080fd5b505af1158015610d1c573d6000803e3d6000fd5b505050506040513d601f19601f82011682018060405250810190610d409190612585565b50600190509392505050565b6000600460009054906101000a900473ffffffffffffffffffffffffffffffffffffffff1673ffffffffffffffffffffffffffffffffffffffff1663faa9e569836040518263ffffffff1660e01b8152600401610da99190612006565b60806040518083038186803b158015610dc157600080fd5b505afa158015610dd5573d6000803e3d6000fd5b505050506040513d601f19601f82011682018060405250810190610df991906124c6565b606001519050919050565b6060600760008381526020019081526020016000206003018054610e2790612328565b80601f0160208091040260200160405190810160405280929190818152602001828054610e5390612328565b8015610ea05780601f10610e7557610100808354040283529160200191610ea0565b820191906000526020600020905b815481529060010190602001808311610e8357829003601f168201915b50505050509050919050565b3373ffffffffffffffffffffffffffffffffffffffff1660008054906101000a900473ffffffffffffffffffffffffffffffffffffffff1673ffffffffffffffffffffffffffffffffffffffff1614610f0457600080fd5b80600560006101000a81548173ffffffffffffffffffffffffffffffffffffffff021916908373ffffffffffffffffffffffffffffffffffffffff16021790555050565b60006007600083815260200190815260200160002060060160003373ffffffffffffffffffffffffffffffffffffffff1673ffffffffffffffffffffffffffffffffffffffff16815260200190815260200160002060000160009054906101000a900460ff169050919050565b60008060006060600080600080600760008a815260200190815260200160002090508060000160009054906101000a900473ffffffffffffffffffffffffffffffffffffffff1681600101548260020154836003018460040160009054906101000a900460ff168560040160019054906101000a900460ff16866005015483805461103f90612328565b80601f016020809104026020016040519081016040528092919081815260200182805461106b90612328565b80156110b85780601f1061108d576101008083540402835291602001916110b8565b820191906000526020600020905b81548152906001019060200180831161109b57829003601f168201915b50505050509350975097509750975097509750975050919395979092949650565b60006111826007600084815260200190815260200160002060030180546110ff90612328565b80601f016020809104026020016040519081016040528092919081815260200182805461112b90612328565b80156111785780601f1061114d57610100808354040283529160200191611178565b820191906000526020600020905b81548152906001019060200180831161115b57829003601f168201915b50505050506105cc565b61118b57600080fd5b6112326007600084815260200190815260200160002060030180546111af90612328565b80601f01602080910402602001604051908101604052809291908181526020018280546111db90612328565b80156112285780601f106111fd57610100808354040283529160200191611228565b820191906000526020600020905b81548152906001019060200180831161120b57829003601f168201915b5050505050610d4c565b15611272576040517f08c379a0000000000000000000000000000000000000000000000000000000008152600401611269906126b2565b60405180910390fd5b600560009054906101000a900473ffffffffffffffffffffffffffffffffffffffff1673ffffffffffffffffffffffffffffffffffffffff16633f2699d085856040518363ffffffff1660e01b81526004016112cf9291906126fb565b600060405180830381600087803b1580156112e957600080fd5b505af11580156112fd573d6000803e3d6000fd5b50505050600460009054906101000a900473ffffffffffffffffffffffffffffffffffffffff1673ffffffffffffffffffffffffffffffffffffffff1663589dad3e600760008581526020019081526020016000206003016040518263ffffffff1660e01b81526004016113719190612644565b602060405180830381600087803b15801561138b57600080fd5b505af115801561139f573d6000803e3d6000fd5b505050506040513d601f19601f820116820180604052508101906113c39190612585565b50600190509392505050565b6000600160009054906101000a900473ffffffffffffffffffffffffffffffffffffffff1673ffffffffffffffffffffffffffffffffffffffff166370a08231846040518263ffffffff1660e01b815260040161142c9190611ed0565b60206040518083038186803b15801561144457600080fd5b505afa158015611458573d6000803e3d6000fd5b505050506040513d601f19601f8201168201806040525081019061147c9190612724565b116114bc576040517f08c379a00000000000000000000000000000000000000000000000000000000081526004016114b3906127c3565b60405180910390fd5b60004390506000614380436114d19190612812565b905060006007600060016002546114e89190612812565b81526020019081526020016000209050848160000160006101000a81548173ffffffffffffffffffffffffffffffffffffffff021916908373ffffffffffffffffffffffffffffffffffffffff16021790555082816001018190555081816002018190555083816003019080519060200190611565929190611b57565b5060008160040160006101000a81548160ff02191690831515021790555060008160040160016101000a81548160ff021916908315150217905550600081600501819055506001600260008282546115bd9190612812565b92505081905550600160009054906101000a900473ffffffffffffffffffffffffffffffffffffffff1673ffffffffffffffffffffffffffffffffffffffff16636161eb188660016040518363ffffffff1660e01b81526004016116229291906128ad565b600060405180830381600087803b15801561163c57600080fd5b505af1158015611650573d6000803e3d6000fd5b505050505050505050565b6000600160009054906101000a900473ffffffffffffffffffffffffffffffffffffffff1673ffffffffffffffffffffffffffffffffffffffff166370a08231856040518263ffffffff1660e01b81526004016116b89190611ed0565b60206040518083038186803b1580156116d057600080fd5b505afa1580156116e4573d6000803e3d6000fd5b505050506040513d601f19601f820116820180604052508101906117089190612724565b11611748576040517f08c379a000000000000000000000000000000000000000000000000000000000815260040161173f906127c3565b60405180910390fd5b600015156007600084815260200190815260200160002060060160008573ffffffffffffffffffffffffffffffffffffffff1673ffffffffffffffffffffffffffffffffffffffff16815260200190815260200160002060000160009054906101000a900460ff161515146117f2576040517f08c379a00000000000000000000000000000000000000000000000000000000081526004016117e990612948565b60405180910390fd5b60405180604001604052806001151581526020018215158152506007600084815260200190815260200160002060060160008573ffffffffffffffffffffffffffffffffffffffff1673ffffffffffffffffffffffffffffffffffffffff16815260200190815260200160002060008201518160000160006101000a81548160ff02191690831515021790555060208201518160000160016101000a81548160ff02191690831515021790555090505060086000838152602001908152602001600020839080600181540180825580915050600190039060005260206000200160009091909190916101000a81548173ffffffffffffffffffffffffffffffffffffffff021916908373ffffffffffffffffffffffffffffffffffffffff160217905550600160009054906101000a900473ffffffffffffffffffffffffffffffffffffffff1673ffffffffffffffffffffffffffffffffffffffff166318160ddd6040518163ffffffff1660e01b815260040160206040518083038186803b15801561197e57600080fd5b505afa158015611992573d6000803e3d6000fd5b505050506040513d601f19601f820116820180604052508101906119b69190612724565b6064670de0b6b3a7640000600160009054906101000a900473ffffffffffffffffffffffffffffffffffffffff1673ffffffffffffffffffffffffffffffffffffffff166370a08231876040518263ffffffff1660e01b8152600401611a1c9190611ed0565b60206040518083038186803b158015611a3457600080fd5b505afa158015611a48573d6000803e3d6000fd5b505050506040513d601f19601f82011682018060405250810190611a6c9190612724565b611a769190612968565b611a809190612968565b611a8a91906129f1565b600760008481526020019081526020016000206005016000828254611aaf9190612812565b92505081905550505050565b3373ffffffffffffffffffffffffffffffffffffffff1660008054906101000a900473ffffffffffffffffffffffffffffffffffffffff1673ffffffffffffffffffffffffffffffffffffffff1614611b1357600080fd5b80600460006101000a81548173ffffffffffffffffffffffffffffffffffffffff021916908373ffffffffffffffffffffffffffffffffffffffff16021790555050565b828054611b6390612328565b90600052602060002090601f016020900481019282611b855760008555611bcc565b82601f10611b9e57805160ff1916838001178555611bcc565b82800160010185558215611bcc579182015b82811115611bcb578251825591602001919060010190611bb0565b5b509050611bd99190611bdd565b5090565b5b80821115611bf6576000816000905550600101611bde565b5090565b6000604051905090565b600080fd5b600080fd5b6000819050919050565b611c2181611c0e565b8114611c2c57600080fd5b50565b600081359050611c3e81611c18565b92915050565b600060208284031215611c5a57611c59611c04565b5b6000611c6884828501611c2f565b91505092915050565b60008115159050919050565b611c8681611c71565b82525050565b6000602082019050611ca16000830184611c7d565b92915050565b600073ffffffffffffffffffffffffffffffffffffffff82169050919050565b6000611cd282611ca7565b9050919050565b611ce281611cc7565b8114611ced57600080fd5b50565b600081359050611cff81611cd9565b92915050565b600060208284031215611d1b57611d1a611c04565b5b6000611d2984828501611cf0565b91505092915050565b600080fd5b600080fd5b6000601f19601f8301169050919050565b7f4e487b7100000000000000000000000000000000000000000000000000000000600052604160045260246000fd5b611d8582611d3c565b810181811067ffffffffffffffff82111715611da457611da3611d4d565b5b80604052505050565b6000611db7611bfa565b9050611dc38282611d7c565b919050565b600067ffffffffffffffff821115611de357611de2611d4d565b5b611dec82611d3c565b9050602081019050919050565b82818337600083830152505050565b6000611e1b611e1684611dc8565b611dad565b905082815260208101848484011115611e3757611e36611d37565b5b611e42848285611df9565b509392505050565b600082601f830112611e5f57611e5e611d32565b5b8135611e6f848260208601611e08565b91505092915050565b600060208284031215611e8e57611e8d611c04565b5b600082013567ffffffffffffffff811115611eac57611eab611c09565b5b611eb884828501611e4a565b91505092915050565b611eca81611cc7565b82525050565b6000602082019050611ee56000830184611ec1565b92915050565b60008060408385031215611f0257611f01611c04565b5b6000611f1085828601611c2f565b9250506020611f2185828601611c2f565b9150509250929050565b600080600060608486031215611f4457611f43611c04565b5b6000611f5286828701611cf0565b9350506020611f6386828701611cf0565b9250506040611f7486828701611c2f565b9150509250925092565b600081519050919050565b600082825260208201905092915050565b60005b83811015611fb8578082015181840152602081019050611f9d565b83811115611fc7576000848401525b50505050565b6000611fd882611f7e565b611fe28185611f89565b9350611ff2818560208601611f9a565b611ffb81611d3c565b840191505092915050565b600060208201905081810360008301526120208184611fcd565b905092915050565b61203181611c0e565b82525050565b600060e08201905061204c600083018a611ec1565b6120596020830189612028565b6120666040830188612028565b81810360608301526120788187611fcd565b90506120876080830186611c7d565b61209460a0830185611c7d565b6120a160c0830184612028565b98975050505050505050565b6000806000606084860312156120c6576120c5611c04565b5b60006120d486828701611cf0565b93505060206120e586828701611c2f565b92505060406120f686828701611c2f565b9150509250925092565b600067ffffffffffffffff82111561211b5761211a611d4d565b5b61212482611d3c565b9050602081019050919050565b600061214461213f84612100565b611dad565b9050828152602081018484840111156121605761215f611d37565b5b61216b848285611df9565b509392505050565b600082601f83011261218857612187611d32565b5b8135612198848260208601612131565b91505092915050565b600080604083850312156121b8576121b7611c04565b5b60006121c685828601611cf0565b925050602083013567ffffffffffffffff8111156121e7576121e6611c09565b5b6121f385828601612173565b9150509250929050565b61220681611c71565b811461221157600080fd5b50565b600081359050612223816121fd565b92915050565b60008060006060848603121561224257612241611c04565b5b600061225086828701611cf0565b935050602061226186828701611c2f565b925050604061227286828701612214565b9150509250925092565b600082825260208201905092915050565b7f476f7665726e616e6365203a206f6e6c79206f776e6572000000000000000000600082015250565b60006122c360178361227c565b91506122ce8261228d565b602082019050919050565b600060208201905081810360008301526122f2816122b6565b9050919050565b7f4e487b7100000000000000000000000000000000000000000000000000000000600052602260045260246000fd5b6000600282049050600182168061234057607f821691505b60208210811415612354576123536122f9565b5b50919050565b60008190508160005260206000209050919050565b6000815461237c81612328565b6123868186611f89565b945060018216600081146123a157600181146123b3576123e6565b60ff19831686526020860193506123e6565b6123bc8561235a565b60005b838110156123de578154818901526001820191506020810190506123bf565b808801955050505b50505092915050565b60006040820190508181036000830152612409818561236f565b90506124186020830184612028565b9392505050565b600080fd5b600081519050612433816121fd565b92915050565b60008151905061244881611c18565b92915050565b6000608082840312156124645761246361241f565b5b61246e6080611dad565b9050600061247e84828501612424565b600083015250602061249284828501612424565b60208301525060406124a684828501612439565b60408301525060606124ba84828501612424565b60608301525092915050565b6000608082840312156124dc576124db611c04565b5b60006124ea8482850161244e565b91505092915050565b7f476f7665726e616e6365203a2049742773206120766f7465207468617420646960008201527f646e277420706173732e00000000000000000000000000000000000000000000602082015250565b600061254f602a8361227c565b915061255a826124f3565b604082019050919050565b6000602082019050818103600083015261257e81612542565b9050919050565b60006020828403121561259b5761259a611c04565b5b60006125a984828501612424565b91505092915050565b7f476f7665726e616e6365203a2054696d656c6f636b2069732072756e6e696e6760008201527f2e00000000000000000000000000000000000000000000000000000000000000602082015250565b600061260e60218361227c565b9150612619826125b2565b604082019050919050565b6000602082019050818103600083015261263d81612601565b9050919050565b6000602082019050818103600083015261265e818461236f565b905092915050565b7f497320436c6f7365640000000000000000000000000000000000000000000000600082015250565b600061269c60098361227c565b91506126a782612666565b602082019050919050565b600060208201905081810360008301526126cb8161268f565b9050919050565b60006040820190506126e76000830185611ec1565b6126f46020830184611ec1565b9392505050565b60006040820190506127106000830185611ec1565b61271d6020830184612028565b9392505050565b60006020828403121561273a57612739611c04565b5b600061274884828501612439565b91505092915050565b7f476f7665726e616e6365203a20446f206e6f742068617665206120764153442060008201527f746f6b656e2e0000000000000000000000000000000000000000000000000000602082015250565b60006127ad60268361227c565b91506127b882612751565b604082019050919050565b600060208201905081810360008301526127dc816127a0565b9050919050565b7f4e487b7100000000000000000000000000000000000000000000000000000000600052601160045260246000fd5b600061281d82611c0e565b915061282883611c0e565b9250827fffffffffffffffffffffffffffffffffffffffffffffffffffffffffffffffff0382111561285d5761285c6127e3565b5b828201905092915050565b6000819050919050565b6000819050919050565b600061289761289261288d84612868565b612872565b611c0e565b9050919050565b6128a78161287c565b82525050565b60006040820190506128c26000830185611ec1565b6128cf602083018461289e565b9392505050565b7f476f7665726e616e6365203a20497420697320612070726f706f73616c20746860008201527f61742068617320616c7265616479206265656e20766f746564206f6e2e000000602082015250565b6000612932603d8361227c565b915061293d826128d6565b604082019050919050565b6000602082019050818103600083015261296181612925565b9050919050565b600061297382611c0e565b915061297e83611c0e565b9250817fffffffffffffffffffffffffffffffffffffffffffffffffffffffffffffffff04831182151516156129b7576129b66127e3565b5b828202905092915050565b7f4e487b7100000000000000000000000000000000000000000000000000000000600052601260045260246000fd5b60006129fc82611c0e565b9150612a0783611c0e565b925082612a1757612a166129c2565b5b82820490509291505056fea264697066735822122080d2c41f20cdd39341b2d8604081b2752772584b93c6bb3bd302a36f0f79812364736f6c63430008090033",
  "linkReferences": {},
  "deployedLinkReferences": {}
}