{
  "_format": "hh-sol-artifact-1",
  "contractName": "SelfToken",
  "sourceName": "contracts/SelfToken.sol",
  "abi": [
    {
      "inputs": [
        {
          "internalType": "string",
          "name": "name_",
          "type": "string"
        },
        {
          "internalType": "string",
          "name": "symbol_",
          "type": "string"
        }
      ],
      "stateMutability": "nonpayable",
      "type": "constructor"
    },
    {
      "anonymous": false,
      "inputs": [
        {
          "indexed": true,
          "internalType": "address",
          "name": "owner",
          "type": "address"
        },
        {
          "indexed": true,
          "internalType": "address",
          "name": "spender",
          "type": "address"
        },
        {
          "indexed": false,
          "internalType": "uint256",
          "name": "value",
          "type": "uint256"
        }
      ],
      "name": "Approval",
      "type": "event"
    },
    {
      "anonymous": false,
      "inputs": [
        {
          "indexed": true,
          "internalType": "address",
          "name": "from",
          "type": "address"
        },
        {
          "indexed": true,
          "internalType": "address",
          "name": "to",
          "type": "address"
        },
        {
          "indexed": false,
          "internalType": "uint256",
          "name": "value",
          "type": "uint256"
        }
      ],
      "name": "Transfer",
      "type": "event"
    },
    {
      "inputs": [
        {
          "internalType": "uint256",
          "name": "_amount",
          "type": "uint256"
        },
        {
          "internalType": "uint256",
          "name": "_digicount",
          "type": "uint256"
        }
      ],
      "name": "Ethmint",
      "outputs": [],
      "stateMutability": "nonpayable",
      "type": "function"
    },
    {
      "inputs": [
        {
          "internalType": "address",
          "name": "account",
          "type": "address"
        },
        {
          "internalType": "uint256",
          "name": "amount",
          "type": "uint256"
        }
      ],
      "name": "_burn",
      "outputs": [],
      "stateMutability": "nonpayable",
      "type": "function"
    },
    {
      "inputs": [
        {
          "internalType": "address",
          "name": "owner",
          "type": "address"
        },
        {
          "internalType": "address",
          "name": "spender",
          "type": "address"
        }
      ],
      "name": "allowance",
      "outputs": [
        {
          "internalType": "uint256",
          "name": "",
          "type": "uint256"
        }
      ],
      "stateMutability": "view",
      "type": "function"
    },
    {
      "inputs": [
        {
          "internalType": "address",
          "name": "spender",
          "type": "address"
        },
        {
          "internalType": "uint256",
          "name": "amount",
          "type": "uint256"
        }
      ],
      "name": "approve",
      "outputs": [
        {
          "internalType": "bool",
          "name": "",
          "type": "bool"
        }
      ],
      "stateMutability": "nonpayable",
      "type": "function"
    },
    {
      "inputs": [
        {
          "internalType": "address",
          "name": "account",
          "type": "address"
        }
      ],
      "name": "balanceOf",
      "outputs": [
        {
          "internalType": "uint256",
          "name": "",
          "type": "uint256"
        }
      ],
      "stateMutability": "view",
      "type": "function"
    },
    {
      "inputs": [],
      "name": "decimals",
      "outputs": [
        {
          "internalType": "uint8",
          "name": "",
          "type": "uint8"
        }
      ],
      "stateMutability": "pure",
      "type": "function"
    },
    {
      "inputs": [
        {
          "internalType": "address",
          "name": "spender",
          "type": "address"
        },
        {
          "internalType": "uint256",
          "name": "subtractedValue",
          "type": "uint256"
        }
      ],
      "name": "decreaseAllowance",
      "outputs": [
        {
          "internalType": "bool",
          "name": "",
          "type": "bool"
        }
      ],
      "stateMutability": "nonpayable",
      "type": "function"
    },
    {
      "inputs": [],
      "name": "deployAddress",
      "outputs": [
        {
          "internalType": "address",
          "name": "",
          "type": "address"
        }
      ],
      "stateMutability": "view",
      "type": "function"
    },
    {
      "inputs": [
        {
          "internalType": "address",
          "name": "spender",
          "type": "address"
        },
        {
          "internalType": "uint256",
          "name": "addedValue",
          "type": "uint256"
        }
      ],
      "name": "increaseAllowance",
      "outputs": [
        {
          "internalType": "bool",
          "name": "",
          "type": "bool"
        }
      ],
      "stateMutability": "nonpayable",
      "type": "function"
    },
    {
      "inputs": [
        {
          "internalType": "uint256",
          "name": "_amount",
          "type": "uint256"
        }
      ],
      "name": "mint",
      "outputs": [],
      "stateMutability": "nonpayable",
      "type": "function"
    },
    {
      "inputs": [],
      "name": "name",
      "outputs": [
        {
          "internalType": "string",
          "name": "",
          "type": "string"
        }
      ],
      "stateMutability": "view",
      "type": "function"
    },
    {
      "inputs": [],
      "name": "symbol",
      "outputs": [
        {
          "internalType": "string",
          "name": "",
          "type": "string"
        }
      ],
      "stateMutability": "view",
      "type": "function"
    },
    {
      "inputs": [],
      "name": "tokenAddress",
      "outputs": [
        {
          "internalType": "address",
          "name": "",
          "type": "address"
        }
      ],
      "stateMutability": "view",
      "type": "function"
    },
    {
      "inputs": [
        {
          "internalType": "address",
          "name": "",
          "type": "address"
        }
      ],
      "name": "tokenLevel",
      "outputs": [
        {
          "internalType": "uint256",
          "name": "",
          "type": "uint256"
        }
      ],
      "stateMutability": "view",
      "type": "function"
    },
    {
      "inputs": [],
      "name": "totalSupply",
      "outputs": [
        {
          "internalType": "uint256",
          "name": "",
          "type": "uint256"
        }
      ],
      "stateMutability": "view",
      "type": "function"
    },
    {
      "inputs": [
        {
          "internalType": "address",
          "name": "to",
          "type": "address"
        },
        {
          "internalType": "uint256",
          "name": "amount",
          "type": "uint256"
        }
      ],
      "name": "transfer",
      "outputs": [
        {
          "internalType": "bool",
          "name": "",
          "type": "bool"
        }
      ],
      "stateMutability": "nonpayable",
      "type": "function"
    },
    {
      "inputs": [
        {
          "internalType": "address",
          "name": "from",
          "type": "address"
        },
        {
          "internalType": "address",
          "name": "to",
          "type": "address"
        },
        {
          "internalType": "uint256",
          "name": "amount",
          "type": "uint256"
        }
      ],
      "name": "transferFrom",
      "outputs": [
        {
          "internalType": "bool",
          "name": "",
          "type": "bool"
        }
      ],
      "stateMutability": "nonpayable",
      "type": "function"
    }
  ],
  "bytecode": "0x60806040523480156200001157600080fd5b50604051620021cb380380620021cb833981810160405281019062000037919062000344565b8181816005908051906020019062000051929190620000f7565b5080600690805190602001906200006a929190620000f7565b50505030600760006101000a81548173ffffffffffffffffffffffffffffffffffffffff021916908373ffffffffffffffffffffffffffffffffffffffff16021790555030600860006101000a81548173ffffffffffffffffffffffffffffffffffffffff021916908373ffffffffffffffffffffffffffffffffffffffff16021790555050506200042e565b8280546200010590620003f8565b90600052602060002090601f01602090048101928262000129576000855562000175565b82601f106200014457805160ff191683800117855562000175565b8280016001018555821562000175579182015b828111156200017457825182559160200191906001019062000157565b5b50905062000184919062000188565b5090565b5b80821115620001a357600081600090555060010162000189565b5090565b6000604051905090565b600080fd5b600080fd5b600080fd5b600080fd5b6000601f19601f8301169050919050565b7f4e487b7100000000000000000000000000000000000000000000000000000000600052604160045260246000fd5b6200021082620001c5565b810181811067ffffffffffffffff82111715620002325762000231620001d6565b5b80604052505050565b600062000247620001a7565b905062000255828262000205565b919050565b600067ffffffffffffffff821115620002785762000277620001d6565b5b6200028382620001c5565b9050602081019050919050565b60005b83811015620002b057808201518184015260208101905062000293565b83811115620002c0576000848401525b50505050565b6000620002dd620002d7846200025a565b6200023b565b905082815260208101848484011115620002fc57620002fb620001c0565b5b6200030984828562000290565b509392505050565b600082601f830112620003295762000328620001bb565b5b81516200033b848260208601620002c6565b91505092915050565b600080604083850312156200035e576200035d620001b1565b5b600083015167ffffffffffffffff8111156200037f576200037e620001b6565b5b6200038d8582860162000311565b925050602083015167ffffffffffffffff811115620003b157620003b0620001b6565b5b620003bf8582860162000311565b9150509250929050565b7f4e487b7100000000000000000000000000000000000000000000000000000000600052602260045260246000fd5b600060028204905060018216806200041157607f821691505b60208210811415620004285762000427620003c9565b5b50919050565b611d8d806200043e6000396000f3fe608060405234801561001057600080fd5b506004361061010b5760003560e01c806395d89b41116100a2578063a0712d6811610071578063a0712d68146102d0578063a457c2d7146102ec578063a9059cbb1461031c578063dd62ed3e1461034c578063e23449631461037c5761010b565b806395d89b4114610246578063993a86bd146102645780639c53f267146102825780639d76ea58146102b25761010b565b8063313ce567116100de578063313ce567146101ac57806339509351146101ca5780636161eb18146101fa57806370a08231146102165761010b565b806306fdde0314610110578063095ea7b31461012e57806318160ddd1461015e57806323b872dd1461017c575b600080fd5b610118610398565b6040516101259190611248565b60405180910390f35b61014860048036038101906101439190611303565b61042a565b604051610155919061135e565b60405180910390f35b610166610468565b6040516101739190611388565b60405180910390f35b610196600480360381019061019191906113a3565b610472565b6040516101a3919061135e565b60405180910390f35b6101b4610495565b6040516101c19190611412565b60405180910390f35b6101e460048036038101906101df9190611303565b61049e565b6040516101f1919061135e565b60405180910390f35b610214600480360381019061020f9190611303565b6104f0565b005b610230600480360381019061022b919061142d565b6106c0565b60405161023d9190611388565b60405180910390f35b61024e610709565b60405161025b9190611248565b60405180910390f35b61026c61079b565b6040516102799190611469565b60405180910390f35b61029c6004803603810190610297919061142d565b6107c1565b6040516102a99190611388565b60405180910390f35b6102ba6107d9565b6040516102c79190611469565b60405180910390f35b6102ea60048036038101906102e59190611484565b6107ff565b005b61030660048036038101906103019190611303565b6108e8565b604051610313919061135e565b60405180910390f35b61033660048036038101906103319190611303565b61097a565b604051610343919061135e565b60405180910390f35b610366600480360381019061036191906114b1565b610996565b6040516103739190611388565b60405180910390f35b610396600480360381019061039191906114f1565b610a1d565b005b6060600580546103a790611560565b80601f01602080910402602001604051908101604052809291908181526020018280546103d390611560565b80156104205780601f106103f557610100808354040283529160200191610420565b820191906000526020600020905b81548152906001019060200180831161040357829003601f168201915b5050505050905090565b600080600860009054906101000a900473ffffffffffffffffffffffffffffffffffffffff16905061045d818585610b0a565b600191505092915050565b6000600c54905090565b600061047f848484610cd5565b61048a848484610f50565b600190509392505050565b60006012905090565b600080600860009054906101000a900473ffffffffffffffffffffffffffffffffffffffff1690506104e58185856104d68589610996565b6104e091906115c1565b610b0a565b600191505092915050565b600073ffffffffffffffffffffffffffffffffffffffff168273ffffffffffffffffffffffffffffffffffffffff161415610560576040517f08c379a000000000000000000000000000000000000000000000000000000000815260040161055790611689565b60405180910390fd5b61056c8260008361104d565b6000600960008473ffffffffffffffffffffffffffffffffffffffff1673ffffffffffffffffffffffffffffffffffffffff168152602001908152602001600020549050818110156105f3576040517f08c379a00000000000000000000000000000000000000000000000000000000081526004016105ea9061171b565b60405180910390fd5b818103600960008573ffffffffffffffffffffffffffffffffffffffff1673ffffffffffffffffffffffffffffffffffffffff1681526020019081526020016000208190555081600c60008282540392505081905550600073ffffffffffffffffffffffffffffffffffffffff168373ffffffffffffffffffffffffffffffffffffffff167fddf252ad1be2c89b69c2b068fc378daa952ba7f163c4a11628f55a4df523b3ef846040516106a79190611388565b60405180910390a36106bb83600084611052565b505050565b6000600960008373ffffffffffffffffffffffffffffffffffffffff1673ffffffffffffffffffffffffffffffffffffffff168152602001908152602001600020549050919050565b60606006805461071890611560565b80601f016020809104026020016040519081016040528092919081815260200182805461074490611560565b80156107915780601f1061076657610100808354040283529160200191610791565b820191906000526020600020905b81548152906001019060200180831161077457829003601f168201915b5050505050905090565b600860009054906101000a900473ffffffffffffffffffffffffffffffffffffffff1681565b600b6020528060005260406000206000915090505481565b600760009054906101000a900473ffffffffffffffffffffffffffffffffffffffff1681565b61083e600860009054906101000a900473ffffffffffffffffffffffffffffffffffffffff16670de0b6b3a764000083610839919061173b565b611057565b61087d600860009054906101000a900473ffffffffffffffffffffffffffffffffffffffff16670de0b6b3a764000083610878919061173b565b61042a565b506001600b6000600860009054906101000a900473ffffffffffffffffffffffffffffffffffffffff1673ffffffffffffffffffffffffffffffffffffffff1673ffffffffffffffffffffffffffffffffffffffff1681526020019081526020016000208190555050565b600080600860009054906101000a900473ffffffffffffffffffffffffffffffffffffffff169050600061091c8286610996565b905083811015610961576040517f08c379a000000000000000000000000000000000000000000000000000000000815260040161095890611807565b60405180910390fd5b61096e8286868403610b0a565b60019250505092915050565b60008030905061098b818585610cd5565b600191505092915050565b6000600a60008473ffffffffffffffffffffffffffffffffffffffff1673ffffffffffffffffffffffffffffffffffffffff16815260200190815260200160002060008373ffffffffffffffffffffffffffffffffffffffff1673ffffffffffffffffffffffffffffffffffffffff16815260200190815260200160002054905092915050565b610a60600860009054906101000a900473ffffffffffffffffffffffffffffffffffffffff1682600a610a50919061195a565b84610a5b919061173b565b611057565b610aa3600860009054906101000a900473ffffffffffffffffffffffffffffffffffffffff1682600a610a93919061195a565b84610a9e919061173b565b61042a565b50600b6000600860009054906101000a900473ffffffffffffffffffffffffffffffffffffffff1673ffffffffffffffffffffffffffffffffffffffff1673ffffffffffffffffffffffffffffffffffffffff168152602001908152602001600020505050565b600073ffffffffffffffffffffffffffffffffffffffff168373ffffffffffffffffffffffffffffffffffffffff161415610b7a576040517f08c379a0000000000000000000000000000000000000000000000000000000008152600401610b7190611a17565b60405180910390fd5b600073ffffffffffffffffffffffffffffffffffffffff168273ffffffffffffffffffffffffffffffffffffffff161415610bea576040517f08c379a0000000000000000000000000000000000000000000000000000000008152600401610be190611aa9565b60405180910390fd5b80600a60008573ffffffffffffffffffffffffffffffffffffffff1673ffffffffffffffffffffffffffffffffffffffff16815260200190815260200160002060008473ffffffffffffffffffffffffffffffffffffffff1673ffffffffffffffffffffffffffffffffffffffff168152602001908152602001600020819055508173ffffffffffffffffffffffffffffffffffffffff168373ffffffffffffffffffffffffffffffffffffffff167f8c5be1e5ebec7d5bd14f71427d1e84f3dd0314c0f7b2291e5b200ac8c7c3b92583604051610cc89190611388565b60405180910390a3505050565b600073ffffffffffffffffffffffffffffffffffffffff168373ffffffffffffffffffffffffffffffffffffffff161415610d45576040517f08c379a0000000000000000000000000000000000000000000000000000000008152600401610d3c90611b3b565b60405180910390fd5b600073ffffffffffffffffffffffffffffffffffffffff168273ffffffffffffffffffffffffffffffffffffffff161415610db5576040517f08c379a0000000000000000000000000000000000000000000000000000000008152600401610dac90611bcd565b60405180910390fd5b610dc083838361104d565b6000600960008573ffffffffffffffffffffffffffffffffffffffff1673ffffffffffffffffffffffffffffffffffffffff16815260200190815260200160002054905081811015610e47576040517f08c379a0000000000000000000000000000000000000000000000000000000008152600401610e3e90611c5f565b60405180910390fd5b818103600960008673ffffffffffffffffffffffffffffffffffffffff1673ffffffffffffffffffffffffffffffffffffffff1681526020019081526020016000208190555081600960008573ffffffffffffffffffffffffffffffffffffffff1673ffffffffffffffffffffffffffffffffffffffff168152602001908152602001600020600082825401925050819055508273ffffffffffffffffffffffffffffffffffffffff168473ffffffffffffffffffffffffffffffffffffffff167fddf252ad1be2c89b69c2b068fc378daa952ba7f163c4a11628f55a4df523b3ef84604051610f379190611388565b60405180910390a3610f4a848484611052565b50505050565b6000610f7e600860009054906101000a900473ffffffffffffffffffffffffffffffffffffffff1685610996565b90507fffffffffffffffffffffffffffffffffffffffffffffffffffffffffffffffff81146110475781811015610fea576040517f08c379a0000000000000000000000000000000000000000000000000000000008152600401610fe190611ccb565b60405180910390fd5b611019600860009054906101000a900473ffffffffffffffffffffffffffffffffffffffff1685848403610b0a565b611046600860009054906101000a900473ffffffffffffffffffffffffffffffffffffffff168484610b0a565b5b50505050565b505050565b505050565b600073ffffffffffffffffffffffffffffffffffffffff168273ffffffffffffffffffffffffffffffffffffffff1614156110c7576040517f08c379a00000000000000000000000000000000000000000000000000000000081526004016110be90611d37565b60405180910390fd5b6110d36000838361104d565b80600c60008282546110e591906115c1565b9250508190555080600960008473ffffffffffffffffffffffffffffffffffffffff1673ffffffffffffffffffffffffffffffffffffffff168152602001908152602001600020600082825401925050819055508173ffffffffffffffffffffffffffffffffffffffff16600073ffffffffffffffffffffffffffffffffffffffff167fddf252ad1be2c89b69c2b068fc378daa952ba7f163c4a11628f55a4df523b3ef836040516111979190611388565b60405180910390a36111ab60008383611052565b5050565b600081519050919050565b600082825260208201905092915050565b60005b838110156111e95780820151818401526020810190506111ce565b838111156111f8576000848401525b50505050565b6000601f19601f8301169050919050565b600061121a826111af565b61122481856111ba565b93506112348185602086016111cb565b61123d816111fe565b840191505092915050565b60006020820190508181036000830152611262818461120f565b905092915050565b600080fd5b600073ffffffffffffffffffffffffffffffffffffffff82169050919050565b600061129a8261126f565b9050919050565b6112aa8161128f565b81146112b557600080fd5b50565b6000813590506112c7816112a1565b92915050565b6000819050919050565b6112e0816112cd565b81146112eb57600080fd5b50565b6000813590506112fd816112d7565b92915050565b6000806040838503121561131a5761131961126a565b5b6000611328858286016112b8565b9250506020611339858286016112ee565b9150509250929050565b60008115159050919050565b61135881611343565b82525050565b6000602082019050611373600083018461134f565b92915050565b611382816112cd565b82525050565b600060208201905061139d6000830184611379565b92915050565b6000806000606084860312156113bc576113bb61126a565b5b60006113ca868287016112b8565b93505060206113db868287016112b8565b92505060406113ec868287016112ee565b9150509250925092565b600060ff82169050919050565b61140c816113f6565b82525050565b60006020820190506114276000830184611403565b92915050565b6000602082840312156114435761144261126a565b5b6000611451848285016112b8565b91505092915050565b6114638161128f565b82525050565b600060208201905061147e600083018461145a565b92915050565b60006020828403121561149a5761149961126a565b5b60006114a8848285016112ee565b91505092915050565b600080604083850312156114c8576114c761126a565b5b60006114d6858286016112b8565b92505060206114e7858286016112b8565b9150509250929050565b600080604083850312156115085761150761126a565b5b6000611516858286016112ee565b9250506020611527858286016112ee565b9150509250929050565b7f4e487b7100000000000000000000000000000000000000000000000000000000600052602260045260246000fd5b6000600282049050600182168061157857607f821691505b6020821081141561158c5761158b611531565b5b50919050565b7f4e487b7100000000000000000000000000000000000000000000000000000000600052601160045260246000fd5b60006115cc826112cd565b91506115d7836112cd565b9250827fffffffffffffffffffffffffffffffffffffffffffffffffffffffffffffffff0382111561160c5761160b611592565b5b828201905092915050565b7f45524332303a206275726e2066726f6d20746865207a65726f2061646472657360008201527f7300000000000000000000000000000000000000000000000000000000000000602082015250565b60006116736021836111ba565b915061167e82611617565b604082019050919050565b600060208201905081810360008301526116a281611666565b9050919050565b7f45524332303a206275726e20616d6f756e7420657863656564732062616c616e60008201527f6365000000000000000000000000000000000000000000000000000000000000602082015250565b60006117056022836111ba565b9150611710826116a9565b604082019050919050565b60006020820190508181036000830152611734816116f8565b9050919050565b6000611746826112cd565b9150611751836112cd565b9250817fffffffffffffffffffffffffffffffffffffffffffffffffffffffffffffffff048311821515161561178a57611789611592565b5b828202905092915050565b7f45524332303a2064656372656173656420616c6c6f77616e63652062656c6f7760008201527f207a65726f000000000000000000000000000000000000000000000000000000602082015250565b60006117f16025836111ba565b91506117fc82611795565b604082019050919050565b60006020820190508181036000830152611820816117e4565b9050919050565b60008160011c9050919050565b6000808291508390505b600185111561187e5780860481111561185a57611859611592565b5b60018516156118695780820291505b808102905061187785611827565b945061183e565b94509492505050565b6000826118975760019050611953565b816118a55760009050611953565b81600181146118bb57600281146118c5576118f4565b6001915050611953565b60ff8411156118d7576118d6611592565b5b8360020a9150848211156118ee576118ed611592565b5b50611953565b5060208310610133831016604e8410600b84101617156119295782820a90508381111561192457611923611592565b5b611953565b6119368484846001611834565b9250905081840481111561194d5761194c611592565b5b81810290505b9392505050565b6000611965826112cd565b9150611970836112cd565b925061199d7fffffffffffffffffffffffffffffffffffffffffffffffffffffffffffffffff8484611887565b905092915050565b7f45524332303a20617070726f76652066726f6d20746865207a65726f2061646460008201527f7265737300000000000000000000000000000000000000000000000000000000602082015250565b6000611a016024836111ba565b9150611a0c826119a5565b604082019050919050565b60006020820190508181036000830152611a30816119f4565b9050919050565b7f45524332303a20617070726f766520746f20746865207a65726f20616464726560008201527f7373000000000000000000000000000000000000000000000000000000000000602082015250565b6000611a936022836111ba565b9150611a9e82611a37565b604082019050919050565b60006020820190508181036000830152611ac281611a86565b9050919050565b7f45524332303a207472616e736665722066726f6d20746865207a65726f20616460008201527f6472657373000000000000000000000000000000000000000000000000000000602082015250565b6000611b256025836111ba565b9150611b3082611ac9565b604082019050919050565b60006020820190508181036000830152611b5481611b18565b9050919050565b7f45524332303a207472616e7366657220746f20746865207a65726f206164647260008201527f6573730000000000000000000000000000000000000000000000000000000000602082015250565b6000611bb76023836111ba565b9150611bc282611b5b565b604082019050919050565b60006020820190508181036000830152611be681611baa565b9050919050565b7f45524332303a207472616e7366657220616d6f756e742065786365656473206260008201527f616c616e63650000000000000000000000000000000000000000000000000000602082015250565b6000611c496026836111ba565b9150611c5482611bed565b604082019050919050565b60006020820190508181036000830152611c7881611c3c565b9050919050565b7f45524332303a20696e73756666696369656e7420616c6c6f77616e6365000000600082015250565b6000611cb5601d836111ba565b9150611cc082611c7f565b602082019050919050565b60006020820190508181036000830152611ce481611ca8565b9050919050565b7f45524332303a206d696e7420746f20746865207a65726f206164647265737300600082015250565b6000611d21601f836111ba565b9150611d2c82611ceb565b602082019050919050565b60006020820190508181036000830152611d5081611d14565b905091905056fea26469706673582212207c5fb4772027631276438e0ac92e0d34b924d6f91b0facfcf9bf4406934202fd64736f6c63430008090033",
  "linkReferences": {},
  "deployedLinkReferences": {}
}