{
  "_format": "hh-sol-artifact-1",
  "contractName": "Pool",
  "sourceName": "contracts/Pool.sol",
  "abi": [
    {
      "inputs": [
        {
          "internalType": "address",
          "name": "_deployaddress",
          "type": "address"
        },
        {
          "internalType": "address",
          "name": "_sDeployAddress",
          "type": "address"
        },
        {
          "internalType": "address",
          "name": "_ETHtokenAddress",
          "type": "address"
        }
      ],
      "stateMutability": "nonpayable",
      "type": "constructor"
    },
    {
      "inputs": [],
      "name": "ARBtokenAddress",
      "outputs": [
        {
          "internalType": "address",
          "name": "",
          "type": "address"
        }
      ],
      "stateMutability": "view",
      "type": "function"
    },
    {
      "inputs": [],
      "name": "ArbLpaddress",
      "outputs": [
        {
          "internalType": "address",
          "name": "",
          "type": "address"
        }
      ],
      "stateMutability": "view",
      "type": "function"
    },
    {
      "inputs": [],
      "name": "ETHtokenAddress",
      "outputs": [
        {
          "internalType": "address",
          "name": "",
          "type": "address"
        }
      ],
      "stateMutability": "view",
      "type": "function"
    },
    {
      "inputs": [],
      "name": "EthLpaddress",
      "outputs": [
        {
          "internalType": "address",
          "name": "",
          "type": "address"
        }
      ],
      "stateMutability": "view",
      "type": "function"
    },
    {
      "inputs": [],
      "name": "USDTtokenAddress",
      "outputs": [
        {
          "internalType": "address",
          "name": "",
          "type": "address"
        }
      ],
      "stateMutability": "view",
      "type": "function"
    },
    {
      "inputs": [],
      "name": "UsdtLpaddress",
      "outputs": [
        {
          "internalType": "address",
          "name": "",
          "type": "address"
        }
      ],
      "stateMutability": "view",
      "type": "function"
    },
    {
      "inputs": [
        {
          "internalType": "address",
          "name": "_userAccount",
          "type": "address"
        }
      ],
      "name": "depositEther",
      "outputs": [],
      "stateMutability": "payable",
      "type": "function"
    },
    {
      "inputs": [
        {
          "internalType": "address",
          "name": "_token1",
          "type": "address"
        },
        {
          "internalType": "uint256",
          "name": "_amount1",
          "type": "uint256"
        },
        {
          "internalType": "address",
          "name": "_token2",
          "type": "address"
        },
        {
          "internalType": "uint256",
          "name": "_amount2",
          "type": "uint256"
        },
        {
          "internalType": "address",
          "name": "_userAccount",
          "type": "address"
        },
        {
          "internalType": "address",
          "name": "_factoryAddress",
          "type": "address"
        }
      ],
      "name": "differLiquid",
      "outputs": [],
      "stateMutability": "nonpayable",
      "type": "function"
    },
    {
      "inputs": [
        {
          "internalType": "address",
          "name": "_token1",
          "type": "address"
        },
        {
          "internalType": "address",
          "name": "_token2",
          "type": "address"
        },
        {
          "internalType": "address",
          "name": "_contractAddress",
          "type": "address"
        }
      ],
      "name": "differLpPool",
      "outputs": [],
      "stateMutability": "nonpayable",
      "type": "function"
    },
    {
      "inputs": [
        {
          "internalType": "address",
          "name": "_userAccount",
          "type": "address"
        },
        {
          "internalType": "address",
          "name": "_factoryAddress",
          "type": "address"
        }
      ],
      "name": "differLpWithdraw",
      "outputs": [],
      "stateMutability": "nonpayable",
      "type": "function"
    },
    {
      "inputs": [
        {
          "internalType": "address",
          "name": "_differLptoken",
          "type": "address"
        },
        {
          "internalType": "address",
          "name": "_userAccount",
          "type": "address"
        },
        {
          "internalType": "address",
          "name": "_factoryAddress",
          "type": "address"
        },
        {
          "internalType": "uint256",
          "name": "_amount",
          "type": "uint256"
        },
        {
          "internalType": "uint256",
          "name": "_month",
          "type": "uint256"
        },
        {
          "internalType": "address",
          "name": "_VASDtokenAddress",
          "type": "address"
        }
      ],
      "name": "differLpstaking",
      "outputs": [],
      "stateMutability": "nonpayable",
      "type": "function"
    },
    {
      "inputs": [],
      "name": "digiCount",
      "outputs": [
        {
          "internalType": "uint256",
          "name": "",
          "type": "uint256"
        }
      ],
      "stateMutability": "view",
      "type": "function"
    },
    {
      "inputs": [
        {
          "internalType": "uint256",
          "name": "number",
          "type": "uint256"
        }
      ],
      "name": "getDigitCount",
      "outputs": [
        {
          "internalType": "uint256",
          "name": "",
          "type": "uint256"
        }
      ],
      "stateMutability": "nonpayable",
      "type": "function"
    },
    {
      "inputs": [],
      "name": "isPossible",
      "outputs": [
        {
          "internalType": "bool",
          "name": "",
          "type": "bool"
        }
      ],
      "stateMutability": "view",
      "type": "function"
    },
    {
      "inputs": [],
      "name": "liquidAddress",
      "outputs": [
        {
          "internalType": "address",
          "name": "",
          "type": "address"
        }
      ],
      "stateMutability": "view",
      "type": "function"
    },
    {
      "inputs": [],
      "name": "pairAddress",
      "outputs": [
        {
          "internalType": "address",
          "name": "",
          "type": "address"
        }
      ],
      "stateMutability": "view",
      "type": "function"
    },
    {
      "inputs": [],
      "name": "poolAddress",
      "outputs": [
        {
          "internalType": "address",
          "name": "",
          "type": "address"
        }
      ],
      "stateMutability": "view",
      "type": "function"
    },
    {
      "inputs": [
        {
          "internalType": "address payable",
          "name": "recipient",
          "type": "address"
        },
        {
          "internalType": "uint256",
          "name": "amount",
          "type": "uint256"
        }
      ],
      "name": "refundEther",
      "outputs": [],
      "stateMutability": "nonpayable",
      "type": "function"
    },
    {
      "inputs": [
        {
          "internalType": "address",
          "name": "_differLptoken",
          "type": "address"
        },
        {
          "internalType": "uint256",
          "name": "_amount",
          "type": "uint256"
        },
        {
          "internalType": "address",
          "name": "_userAccount",
          "type": "address"
        },
        {
          "internalType": "address",
          "name": "_factoryAddress",
          "type": "address"
        },
        {
          "internalType": "address",
          "name": "_AsdToken",
          "type": "address"
        }
      ],
      "name": "removeLiquid",
      "outputs": [],
      "stateMutability": "nonpayable",
      "type": "function"
    },
    {
      "inputs": [],
      "name": "stakingAddress",
      "outputs": [
        {
          "internalType": "address",
          "name": "",
          "type": "address"
        }
      ],
      "stateMutability": "view",
      "type": "function"
    },
    {
      "inputs": [],
      "name": "swapAddress",
      "outputs": [
        {
          "internalType": "address",
          "name": "",
          "type": "address"
        }
      ],
      "stateMutability": "view",
      "type": "function"
    },
    {
      "inputs": [
        {
          "internalType": "address",
          "name": "_diffrentToken",
          "type": "address"
        },
        {
          "internalType": "address",
          "name": "_AsdToken",
          "type": "address"
        },
        {
          "internalType": "address",
          "name": "_userAccount",
          "type": "address"
        },
        {
          "internalType": "address",
          "name": "_contractAddress",
          "type": "address"
        },
        {
          "internalType": "uint256",
          "name": "_amount",
          "type": "uint256"
        }
      ],
      "name": "swapToken",
      "outputs": [],
      "stateMutability": "nonpayable",
      "type": "function"
    }
  ],
  "bytecode": "0x60806040523480156200001157600080fd5b50604051620020ac380380620020ac83398181016040528101906200003791906200033b565b306000806101000a81548173ffffffffffffffffffffffffffffffffffffffff021916908373ffffffffffffffffffffffffffffffffffffffff1602179055508273ffffffffffffffffffffffffffffffffffffffff1663ee136a566040518163ffffffff1660e01b815260040160606040518083038186803b158015620000be57600080fd5b505afa158015620000d3573d6000803e3d6000fd5b505050506040513d601f19601f82011682018060405250810190620000f991906200033b565b6007600060086000600960008691906101000a81548173ffffffffffffffffffffffffffffffffffffffff021916908373ffffffffffffffffffffffffffffffffffffffff1602179055508591906101000a81548173ffffffffffffffffffffffffffffffffffffffff021916908373ffffffffffffffffffffffffffffffffffffffff1602179055508491906101000a81548173ffffffffffffffffffffffffffffffffffffffff021916908373ffffffffffffffffffffffffffffffffffffffff1602179055505050508173ffffffffffffffffffffffffffffffffffffffff1663b470e8e86040518163ffffffff1660e01b815260040160206040518083038186803b1580156200020c57600080fd5b505afa15801562000221573d6000803e3d6000fd5b505050506040513d601f19601f8201168201806040525081019062000247919062000397565b600a60006101000a81548173ffffffffffffffffffffffffffffffffffffffff021916908373ffffffffffffffffffffffffffffffffffffffff16021790555080600360006101000a81548173ffffffffffffffffffffffffffffffffffffffff021916908373ffffffffffffffffffffffffffffffffffffffff160217905550505050620003c9565b600080fd5b600073ffffffffffffffffffffffffffffffffffffffff82169050919050565b60006200030382620002d6565b9050919050565b6200031581620002f6565b81146200032157600080fd5b50565b60008151905062000335816200030a565b92915050565b600080600060608486031215620003575762000356620002d1565b5b6000620003678682870162000324565b93505060206200037a8682870162000324565b92505060406200038d8682870162000324565b9150509250925092565b600060208284031215620003b057620003af620002d1565b5b6000620003c08482850162000324565b91505092915050565b611cd380620003d96000396000f3fe6080604052600436106101355760003560e01c806380f6d782116100ab578063caadbea01161006f578063caadbea0146103d1578063d7b4be24146103fa578063e319be0a14610425578063ebcde5f314610462578063fa82bec21461048d578063fe1218a6146104b857610135565b806380f6d782146103005780638e54e40d1461032b5780639663d27c146103545780639e271cec1461037d578063a8b08982146103a657610135565b80633d1b719f116100fd5780633d1b719f1461020d5780634713b7841461023857806352802121146102635780635ced16d21461027f57806371b881b7146102aa5780637afb892e146102d557610135565b8063080a14f41461013a57806310d69c4f14610163578063169f97ae1461018c5780631755ff21146101b75780631d15546d146101e2575b600080fd5b34801561014657600080fd5b50610161600480360381019061015c9190611022565b6104e1565b005b34801561016f57600080fd5b5061018a6004803603810190610185919061109d565b61057d565b005b34801561019857600080fd5b506101a161061c565b6040516101ae9190611139565b60405180910390f35b3480156101c357600080fd5b506101cc610642565b6040516101d99190611139565b60405180910390f35b3480156101ee57600080fd5b506101f7610666565b6040516102049190611139565b60405180910390f35b34801561021957600080fd5b5061022261068c565b60405161022f9190611139565b60405180910390f35b34801561024457600080fd5b5061024d6106b2565b60405161025a9190611139565b60405180910390f35b61027d60048036038101906102789190611154565b6106d8565b005b34801561028b57600080fd5b506102946108fb565b6040516102a19190611139565b60405180910390f35b3480156102b657600080fd5b506102bf610921565b6040516102cc9190611139565b60405180910390f35b3480156102e157600080fd5b506102ea610947565b6040516102f7919061119c565b60405180910390f35b34801561030c57600080fd5b5061031561095a565b6040516103229190611139565b60405180910390f35b34801561033757600080fd5b50610352600480360381019061034d91906111f5565b610980565b005b34801561036057600080fd5b5061037b60048036038101906103769190611235565b610a0e565b005b34801561038957600080fd5b506103a4600480360381019061039f91906112b0565b610aaa565b005b3480156103b257600080fd5b506103bb610b3d565b6040516103c89190611139565b60405180910390f35b3480156103dd57600080fd5b506103f860048036038101906103f391906112f0565b610b63565b005b34801561040657600080fd5b5061040f610c26565b60405161041c9190611139565b60405180910390f35b34801561043157600080fd5b5061044c6004803603810190610447919061137d565b610c4c565b60405161045991906113b9565b60405180910390f35b34801561046e57600080fd5b50610477610cc2565b6040516104849190611139565b60405180910390f35b34801561049957600080fd5b506104a2610ce8565b6040516104af91906113b9565b60405180910390f35b3480156104c457600080fd5b506104df60048036038101906104da91906113d4565b610cee565b005b600960009054906101000a900473ffffffffffffffffffffffffffffffffffffffff1673ffffffffffffffffffffffffffffffffffffffff166351b429a086868686866040518663ffffffff1660e01b8152600401610544959493929190611427565b600060405180830381600087803b15801561055e57600080fd5b505af1158015610572573d6000803e3d6000fd5b505050505050505050565b600a60009054906101000a900473ffffffffffffffffffffffffffffffffffffffff1673ffffffffffffffffffffffffffffffffffffffff1663a7f8cd098787878787876040518763ffffffff1660e01b81526004016105e29695949392919061147a565b600060405180830381600087803b1580156105fc57600080fd5b505af1158015610610573d6000803e3d6000fd5b50505050505050505050565b600660009054906101000a900473ffffffffffffffffffffffffffffffffffffffff1681565b60008054906101000a900473ffffffffffffffffffffffffffffffffffffffff1681565b600160009054906101000a900473ffffffffffffffffffffffffffffffffffffffff1681565b600360009054906101000a900473ffffffffffffffffffffffffffffffffffffffff1681565b600860009054906101000a900473ffffffffffffffffffffffffffffffffffffffff1681565b600073ffffffffffffffffffffffffffffffffffffffff16600360009054906101000a900473ffffffffffffffffffffffffffffffffffffffff1673ffffffffffffffffffffffffffffffffffffffff16141561076a576040517f08c379a000000000000000000000000000000000000000000000000000000000815260040161076190611538565b60405180910390fd5b600061077534610c4c565b9050600081600a61078691906116ba565b346107919190611734565b9050600360009054906101000a900473ffffffffffffffffffffffffffffffffffffffff1673ffffffffffffffffffffffffffffffffffffffff1663e234496382846040518363ffffffff1660e01b81526004016107f0929190611765565b600060405180830381600087803b15801561080a57600080fd5b505af115801561081e573d6000803e3d6000fd5b50505050600360009054906101000a900473ffffffffffffffffffffffffffffffffffffffff1673ffffffffffffffffffffffffffffffffffffffff166323b872dd600360009054906101000a900473ffffffffffffffffffffffffffffffffffffffff1685346040518463ffffffff1660e01b81526004016108a39392919061178e565b602060405180830381600087803b1580156108bd57600080fd5b505af11580156108d1573d6000803e3d6000fd5b505050506040513d601f19601f820116820180604052508101906108f591906117f1565b50505050565b600560009054906101000a900473ffffffffffffffffffffffffffffffffffffffff1681565b600260009054906101000a900473ffffffffffffffffffffffffffffffffffffffff1681565b600c60009054906101000a900460ff1681565b600960009054906101000a900473ffffffffffffffffffffffffffffffffffffffff1681565b804710156109c3576040517f08c379a00000000000000000000000000000000000000000000000000000000081526004016109ba9061186a565b60405180910390fd5b8173ffffffffffffffffffffffffffffffffffffffff166108fc829081150290604051600060405180830381858888f19350505050158015610a09573d6000803e3d6000fd5b505050565b600860009054906101000a900473ffffffffffffffffffffffffffffffffffffffff1673ffffffffffffffffffffffffffffffffffffffff166308bac40286868686866040518663ffffffff1660e01b8152600401610a7195949392919061188a565b600060405180830381600087803b158015610a8b57600080fd5b505af1158015610a9f573d6000803e3d6000fd5b505050505050505050565b600a60009054906101000a900473ffffffffffffffffffffffffffffffffffffffff1673ffffffffffffffffffffffffffffffffffffffff1663c7d8c82383836040518363ffffffff1660e01b8152600401610b079291906118dd565b600060405180830381600087803b158015610b2157600080fd5b505af1158015610b35573d6000803e3d6000fd5b505050505050565b600760009054906101000a900473ffffffffffffffffffffffffffffffffffffffff1681565b600860009054906101000a900473ffffffffffffffffffffffffffffffffffffffff1673ffffffffffffffffffffffffffffffffffffffff1663d2dcb80b878787878787600760009054906101000a900473ffffffffffffffffffffffffffffffffffffffff166040518863ffffffff1660e01b8152600401610bec9796959493929190611906565b600060405180830381600087803b158015610c0657600080fd5b505af1158015610c1a573d6000803e3d6000fd5b50505050505050505050565b600a60009054906101000a900473ffffffffffffffffffffffffffffffffffffffff1681565b600080821415610c5f5760019050610cbd565b600080600b819055505b6000831115610cac578080610c7d90611975565b915050600b6000815480929190610c9390611975565b9190505550600a83610ca59190611734565b9250610c69565b600181610cb991906119be565b9150505b919050565b600460009054906101000a900473ffffffffffffffffffffffffffffffffffffffff1681565b600b5481565b60008373ffffffffffffffffffffffffffffffffffffffff166306fdde036040518163ffffffff1660e01b815260040160006040518083038186803b158015610d3657600080fd5b505afa158015610d4a573d6000803e3d6000fd5b505050506040513d6000823e3d601f19601f82011682018060405250810190610d739190611b5c565b9050600760009054906101000a900473ffffffffffffffffffffffffffffffffffffffff1673ffffffffffffffffffffffffffffffffffffffff1663f9d284c2858585856040518563ffffffff1660e01b8152600401610dd69493929190611be9565b600060405180830381600087803b158015610df057600080fd5b505af1158015610e04573d6000803e3d6000fd5b50505050600760009054906101000a900473ffffffffffffffffffffffffffffffffffffffff1673ffffffffffffffffffffffffffffffffffffffff1663d1e9a5fd6040518163ffffffff1660e01b815260040160606040518083038186803b158015610e7057600080fd5b505afa158015610e84573d6000803e3d6000fd5b505050506040513d601f19601f82011682018060405250810190610ea89190611c4a565b6004600060056000600660008691906101000a81548173ffffffffffffffffffffffffffffffffffffffff021916908373ffffffffffffffffffffffffffffffffffffffff1602179055508591906101000a81548173ffffffffffffffffffffffffffffffffffffffff021916908373ffffffffffffffffffffffffffffffffffffffff1602179055508491906101000a81548173ffffffffffffffffffffffffffffffffffffffff021916908373ffffffffffffffffffffffffffffffffffffffff16021790555050505050505050565b6000604051905090565b600080fd5b600080fd5b600073ffffffffffffffffffffffffffffffffffffffff82169050919050565b6000610fb982610f8e565b9050919050565b610fc981610fae565b8114610fd457600080fd5b50565b600081359050610fe681610fc0565b92915050565b6000819050919050565b610fff81610fec565b811461100a57600080fd5b50565b60008135905061101c81610ff6565b92915050565b600080600080600060a0868803121561103e5761103d610f84565b5b600061104c88828901610fd7565b955050602061105d88828901610fd7565b945050604061106e88828901610fd7565b935050606061107f88828901610fd7565b92505060806110908882890161100d565b9150509295509295909350565b60008060008060008060c087890312156110ba576110b9610f84565b5b60006110c889828a01610fd7565b96505060206110d989828a01610fd7565b95505060406110ea89828a01610fd7565b94505060606110fb89828a0161100d565b935050608061110c89828a0161100d565b92505060a061111d89828a01610fd7565b9150509295509295509295565b61113381610fae565b82525050565b600060208201905061114e600083018461112a565b92915050565b60006020828403121561116a57611169610f84565b5b600061117884828501610fd7565b91505092915050565b60008115159050919050565b61119681611181565b82525050565b60006020820190506111b1600083018461118d565b92915050565b60006111c282610f8e565b9050919050565b6111d2816111b7565b81146111dd57600080fd5b50565b6000813590506111ef816111c9565b92915050565b6000806040838503121561120c5761120b610f84565b5b600061121a858286016111e0565b925050602061122b8582860161100d565b9150509250929050565b600080600080600060a0868803121561125157611250610f84565b5b600061125f88828901610fd7565b95505060206112708882890161100d565b945050604061128188828901610fd7565b935050606061129288828901610fd7565b92505060806112a388828901610fd7565b9150509295509295909350565b600080604083850312156112c7576112c6610f84565b5b60006112d585828601610fd7565b92505060206112e685828601610fd7565b9150509250929050565b60008060008060008060c0878903121561130d5761130c610f84565b5b600061131b89828a01610fd7565b965050602061132c89828a0161100d565b955050604061133d89828a01610fd7565b945050606061134e89828a0161100d565b935050608061135f89828a01610fd7565b92505060a061137089828a01610fd7565b9150509295509295509295565b60006020828403121561139357611392610f84565b5b60006113a18482850161100d565b91505092915050565b6113b381610fec565b82525050565b60006020820190506113ce60008301846113aa565b92915050565b6000806000606084860312156113ed576113ec610f84565b5b60006113fb86828701610fd7565b935050602061140c86828701610fd7565b925050604061141d86828701610fd7565b9150509250925092565b600060a08201905061143c600083018861112a565b611449602083018761112a565b611456604083018661112a565b611463606083018561112a565b61147060808301846113aa565b9695505050505050565b600060c08201905061148f600083018961112a565b61149c602083018861112a565b6114a9604083018761112a565b6114b660608301866113aa565b6114c360808301856113aa565b6114d060a083018461112a565b979650505050505050565b600082825260208201905092915050565b7f636865636b2074686520746f6b656e206d616b65640000000000000000000000600082015250565b60006115226015836114db565b915061152d826114ec565b602082019050919050565b6000602082019050818103600083015261155181611515565b9050919050565b7f4e487b7100000000000000000000000000000000000000000000000000000000600052601160045260246000fd5b60008160011c9050919050565b6000808291508390505b60018511156115de578086048111156115ba576115b9611558565b5b60018516156115c95780820291505b80810290506115d785611587565b945061159e565b94509492505050565b6000826115f757600190506116b3565b8161160557600090506116b3565b816001811461161b576002811461162557611654565b60019150506116b3565b60ff84111561163757611636611558565b5b8360020a91508482111561164e5761164d611558565b5b506116b3565b5060208310610133831016604e8410600b84101617156116895782820a90508381111561168457611683611558565b5b6116b3565b6116968484846001611594565b925090508184048111156116ad576116ac611558565b5b81810290505b9392505050565b60006116c582610fec565b91506116d083610fec565b92506116fd7fffffffffffffffffffffffffffffffffffffffffffffffffffffffffffffffff84846115e7565b905092915050565b7f4e487b7100000000000000000000000000000000000000000000000000000000600052601260045260246000fd5b600061173f82610fec565b915061174a83610fec565b92508261175a57611759611705565b5b828204905092915050565b600060408201905061177a60008301856113aa565b61178760208301846113aa565b9392505050565b60006060820190506117a3600083018661112a565b6117b0602083018561112a565b6117bd60408301846113aa565b949350505050565b6117ce81611181565b81146117d957600080fd5b50565b6000815190506117eb816117c5565b92915050565b60006020828403121561180757611806610f84565b5b6000611815848285016117dc565b91505092915050565b7f4e6f7420656e6f7567682045544820696e20636f6e7472616374000000000000600082015250565b6000611854601a836114db565b915061185f8261181e565b602082019050919050565b6000602082019050818103600083015261188381611847565b9050919050565b600060a08201905061189f600083018861112a565b6118ac60208301876113aa565b6118b9604083018661112a565b6118c6606083018561112a565b6118d3608083018461112a565b9695505050505050565b60006040820190506118f2600083018561112a565b6118ff602083018461112a565b9392505050565b600060e08201905061191b600083018a61112a565b61192860208301896113aa565b611935604083018861112a565b61194260608301876113aa565b61194f608083018661112a565b61195c60a083018561112a565b61196960c083018461112a565b98975050505050505050565b600061198082610fec565b91507fffffffffffffffffffffffffffffffffffffffffffffffffffffffffffffffff8214156119b3576119b2611558565b5b600182019050919050565b60006119c982610fec565b91506119d483610fec565b9250828210156119e7576119e6611558565b5b828203905092915050565b600080fd5b600080fd5b6000601f19601f8301169050919050565b7f4e487b7100000000000000000000000000000000000000000000000000000000600052604160045260246000fd5b611a45826119fc565b810181811067ffffffffffffffff82111715611a6457611a63611a0d565b5b80604052505050565b6000611a77610f7a565b9050611a838282611a3c565b919050565b600067ffffffffffffffff821115611aa357611aa2611a0d565b5b611aac826119fc565b9050602081019050919050565b60005b83811015611ad7578082015181840152602081019050611abc565b83811115611ae6576000848401525b50505050565b6000611aff611afa84611a88565b611a6d565b905082815260208101848484011115611b1b57611b1a6119f7565b5b611b26848285611ab9565b509392505050565b600082601f830112611b4357611b426119f2565b5b8151611b53848260208601611aec565b91505092915050565b600060208284031215611b7257611b71610f84565b5b600082015167ffffffffffffffff811115611b9057611b8f610f89565b5b611b9c84828501611b2e565b91505092915050565b600081519050919050565b6000611bbb82611ba5565b611bc581856114db565b9350611bd5818560208601611ab9565b611bde816119fc565b840191505092915050565b6000608082019050611bfe600083018761112a565b611c0b602083018661112a565b611c18604083018561112a565b8181036060830152611c2a8184611bb0565b905095945050505050565b600081519050611c4481610fc0565b92915050565b600080600060608486031215611c6357611c62610f84565b5b6000611c7186828701611c35565b9350506020611c8286828701611c35565b9250506040611c9386828701611c35565b915050925092509256fea264697066735822122060519c7645bbf907f413513fd8bf8cdb77c7b0ac2d80e1046e7d03900c2b098764736f6c63430008090033",
  "linkReferences": {},
  "deployedLinkReferences": {}
}