{
  "_format": "hh-sol-artifact-1",
  "contractName": "Staking",
  "sourceName": "contracts/Staking.sol",
  "abi": [
    {
      "inputs": [],
      "stateMutability": "nonpayable",
      "type": "constructor"
    },
    {
      "inputs": [
        {
          "internalType": "address",
          "name": "_differLptoken",
          "type": "address"
        },
        {
          "internalType": "address",
          "name": "_userAccount",
          "type": "address"
        },
        {
          "internalType": "address",
          "name": "_factoryAddress",
          "type": "address"
        },
        {
          "internalType": "uint256",
          "name": "_amount",
          "type": "uint256"
        },
        {
          "internalType": "uint256",
          "name": "_month",
          "type": "uint256"
        },
        {
          "internalType": "address",
          "name": "_VASDtokenAddress",
          "type": "address"
        }
      ],
      "name": "StakeDifferLp",
      "outputs": [],
      "stateMutability": "nonpayable",
      "type": "function"
    },
    {
      "inputs": [],
      "name": "getValue1",
      "outputs": [
        {
          "internalType": "uint256",
          "name": "_firstNum",
          "type": "uint256"
        },
        {
          "internalType": "uint256",
          "name": "_secondNum",
          "type": "uint256"
        },
        {
          "internalType": "address",
          "name": "_firstTokenName",
          "type": "address"
        },
        {
          "internalType": "uint256",
          "name": "_firstTokenMon",
          "type": "uint256"
        },
        {
          "internalType": "uint256",
          "name": "_firstAmount",
          "type": "uint256"
        },
        {
          "internalType": "uint256",
          "name": "_secondAmount",
          "type": "uint256"
        }
      ],
      "stateMutability": "view",
      "type": "function"
    },
    {
      "inputs": [],
      "name": "getValue2",
      "outputs": [
        {
          "internalType": "bool",
          "name": "",
          "type": "bool"
        }
      ],
      "stateMutability": "view",
      "type": "function"
    },
    {
      "inputs": [
        {
          "internalType": "address",
          "name": "",
          "type": "address"
        },
        {
          "internalType": "address",
          "name": "",
          "type": "address"
        },
        {
          "internalType": "uint256",
          "name": "",
          "type": "uint256"
        }
      ],
      "name": "stakeInfo",
      "outputs": [
        {
          "internalType": "uint256",
          "name": "amount",
          "type": "uint256"
        },
        {
          "internalType": "uint256",
          "name": "stakedTime",
          "type": "uint256"
        },
        {
          "internalType": "bool",
          "name": "isWithdrawable",
          "type": "bool"
        },
        {
          "internalType": "address",
          "name": "Lpaddress",
          "type": "address"
        }
      ],
      "stateMutability": "view",
      "type": "function"
    },
    {
      "inputs": [
        {
          "internalType": "address",
          "name": "",
          "type": "address"
        },
        {
          "internalType": "address",
          "name": "",
          "type": "address"
        }
      ],
      "name": "stakeMonth",
      "outputs": [
        {
          "internalType": "uint256",
          "name": "",
          "type": "uint256"
        }
      ],
      "stateMutability": "view",
      "type": "function"
    },
    {
      "inputs": [
        {
          "internalType": "address",
          "name": "",
          "type": "address"
        },
        {
          "internalType": "uint256",
          "name": "",
          "type": "uint256"
        }
      ],
      "name": "stakeTokenName",
      "outputs": [
        {
          "internalType": "address",
          "name": "",
          "type": "address"
        }
      ],
      "stateMutability": "view",
      "type": "function"
    },
    {
      "inputs": [
        {
          "internalType": "address",
          "name": "",
          "type": "address"
        }
      ],
      "name": "userLenth",
      "outputs": [
        {
          "internalType": "uint256",
          "name": "",
          "type": "uint256"
        }
      ],
      "stateMutability": "view",
      "type": "function"
    },
    {
      "inputs": [
        {
          "internalType": "address",
          "name": "_userAccount",
          "type": "address"
        },
        {
          "internalType": "address",
          "name": "_differLp",
          "type": "address"
        }
      ],
      "name": "withDrawBool",
      "outputs": [
        {
          "internalType": "address[]",
          "name": "tkname",
          "type": "address[]"
        },
        {
          "internalType": "uint256[]",
          "name": "tkValue",
          "type": "uint256[]"
        }
      ],
      "stateMutability": "nonpayable",
      "type": "function"
    },
    {
      "inputs": [
        {
          "internalType": "address",
          "name": "_userAccount",
          "type": "address"
        },
        {
          "internalType": "address",
          "name": "_factoryAddress",
          "type": "address"
        },
        {
          "internalType": "address",
          "name": "_differLp",
          "type": "address"
        },
        {
          "internalType": "uint256",
          "name": "_amount",
          "type": "uint256"
        }
      ],
      "name": "withDrawDifferLp",
      "outputs": [],
      "stateMutability": "nonpayable",
      "type": "function"
    }
  ],
  "bytecode": "0x6080604052629e340060035563013c68006004556301da9c00600555601460065534801561002c57600080fd5b5030600160006101000a81548173ffffffffffffffffffffffffffffffffffffffff021916908373ffffffffffffffffffffffffffffffffffffffff1602179055506130808061007d6000396000f3fe608060405234801561001057600080fd5b50600436106100935760003560e01c80639020783311610066578063902078331461014e578063a6c46bc21461017f578063a7f8cd091461019b578063b7c1bcb2146101b7578063c515205d146101e757610093565b806322f06ac114610098578063513bc1ce146100cb57806360d586f8146100fb5780638274fa2a1461011e575b600080fd5b6100b260048036038101906100ad91906127a9565b610205565b6040516100c29493929190612835565b60405180910390f35b6100e560048036038101906100e0919061287a565b61027c565b6040516100f291906128a7565b60405180910390f35b610103610294565b604051610115969594939291906128c2565b60405180910390f35b61013860048036038101906101339190612923565b6102e3565b6040516101459190612963565b60405180910390f35b6101686004803603810190610163919061297e565b610325565b604051610176929190612b3a565b60405180910390f35b61019960048036038101906101949190612b71565b610b5c565b005b6101b560048036038101906101b09190612bd8565b6113b4565b005b6101d160048036038101906101cc919061297e565b611f17565b6040516101de91906128a7565b60405180910390f35b6101ef611f3c565b6040516101fc9190612c65565b60405180910390f35b600b60205282600052604060002060205281600052604060002060205280600052604060002060009250925050508060000154908060010154908060020160009054906101000a900460ff16908060020160019054906101000a900473ffffffffffffffffffffffffffffffffffffffff16905084565b600e6020528060005260406000206000915090505481565b600080600080600080600f54601054601160009054906101000a900473ffffffffffffffffffffffffffffffffffffffff16601254601354601454955095509550955095509550909192939495565b600d6020528160005260406000206020528060005260406000206000915091509054906101000a900473ffffffffffffffffffffffffffffffffffffffff1681565b6060806001600e60008673ffffffffffffffffffffffffffffffffffffffff1673ffffffffffffffffffffffffffffffffffffffff168152602001908152602001600020546103749190612caf565b60108190555060005b6010548111610a7257600d60008673ffffffffffffffffffffffffffffffffffffffff1673ffffffffffffffffffffffffffffffffffffffff168152602001908152602001600020600082815260200190815260200160002060009054906101000a900473ffffffffffffffffffffffffffffffffffffffff16601560006101000a81548173ffffffffffffffffffffffffffffffffffffffff021916908373ffffffffffffffffffffffffffffffffffffffff1602179055508373ffffffffffffffffffffffffffffffffffffffff16601560009054906101000a900473ffffffffffffffffffffffffffffffffffffffff1673ffffffffffffffffffffffffffffffffffffffff161415610a5f57600c60008673ffffffffffffffffffffffffffffffffffffffff1673ffffffffffffffffffffffffffffffffffffffff1681526020019081526020016000206000601560009054906101000a900473ffffffffffffffffffffffffffffffffffffffff1673ffffffffffffffffffffffffffffffffffffffff1673ffffffffffffffffffffffffffffffffffffffff168152602001908152602001600020546016819055506004601654141561062057600654600b60008773ffffffffffffffffffffffffffffffffffffffff1673ffffffffffffffffffffffffffffffffffffffff1681526020019081526020016000206000601560009054906101000a900473ffffffffffffffffffffffffffffffffffffffff1673ffffffffffffffffffffffffffffffffffffffff1673ffffffffffffffffffffffffffffffffffffffff16815260200190815260200160002060006016548152602001908152602001600020600101546105ff9190612ce3565b421015600760006101000a81548160ff0219169083151502179055506107fa565b6008601654141561070e57600654600b60008773ffffffffffffffffffffffffffffffffffffffff1673ffffffffffffffffffffffffffffffffffffffff1681526020019081526020016000206000601560009054906101000a900473ffffffffffffffffffffffffffffffffffffffff1673ffffffffffffffffffffffffffffffffffffffff1673ffffffffffffffffffffffffffffffffffffffff16815260200190815260200160002060006016548152602001908152602001600020600101546106ed9190612ce3565b421015600760006101000a81548160ff0219169083151502179055506107f9565b600c60165414156107f857600654600b60008773ffffffffffffffffffffffffffffffffffffffff1673ffffffffffffffffffffffffffffffffffffffff1681526020019081526020016000206000601560009054906101000a900473ffffffffffffffffffffffffffffffffffffffff1673ffffffffffffffffffffffffffffffffffffffff1673ffffffffffffffffffffffffffffffffffffffff16815260200190815260200160002060006016548152602001908152602001600020600101546107db9190612ce3565b421015600760006101000a81548160ff0219169083151502179055505b5b5b600760009054906101000a900460ff1615610a5e576001600b60008773ffffffffffffffffffffffffffffffffffffffff1673ffffffffffffffffffffffffffffffffffffffff1681526020019081526020016000206000601560009054906101000a900473ffffffffffffffffffffffffffffffffffffffff1673ffffffffffffffffffffffffffffffffffffffff1673ffffffffffffffffffffffffffffffffffffffff1681526020019081526020016000206000601654815260200190815260200160002060020160006101000a81548160ff0219169083151502179055506008601560009054906101000a900473ffffffffffffffffffffffffffffffffffffffff169080600181540180825580915050600190039060005260206000200160009091909190916101000a81548173ffffffffffffffffffffffffffffffffffffffff021916908373ffffffffffffffffffffffffffffffffffffffff1602179055506000600b60008773ffffffffffffffffffffffffffffffffffffffff1673ffffffffffffffffffffffffffffffffffffffff1681526020019081526020016000206000601560009054906101000a900473ffffffffffffffffffffffffffffffffffffffff1673ffffffffffffffffffffffffffffffffffffffff1673ffffffffffffffffffffffffffffffffffffffff1681526020019081526020016000206000601654815260200190815260200160002060000154905060098190806001815401808255809150506001900390600052602060002001600090919091909150558060146000828254610a559190612ce3565b92505081905550505b5b8080610a6a90612d39565b91505061037d565b506008600981805480602002602001604051908101604052809291908181526020018280548015610af857602002820191906000526020600020905b8160009054906101000a900473ffffffffffffffffffffffffffffffffffffffff1673ffffffffffffffffffffffffffffffffffffffff1681526020019060010190808311610aae575b5050505050915080805480602002602001604051908101604052809291908181526020018280548015610b4a57602002820191906000526020600020905b815481526020019060010190808311610b36575b50505050509050915091509250929050565b6001600e60008673ffffffffffffffffffffffffffffffffffffffff1673ffffffffffffffffffffffffffffffffffffffff16815260200190815260200160002054610ba89190612caf565b600f8190555060005b600f5481116113ad57600d60008673ffffffffffffffffffffffffffffffffffffffff1673ffffffffffffffffffffffffffffffffffffffff168152602001908152602001600020600082815260200190815260200160002060009054906101000a900473ffffffffffffffffffffffffffffffffffffffff16601160006101000a81548173ffffffffffffffffffffffffffffffffffffffff021916908373ffffffffffffffffffffffffffffffffffffffff1602179055508273ffffffffffffffffffffffffffffffffffffffff16601160009054906101000a900473ffffffffffffffffffffffffffffffffffffffff1673ffffffffffffffffffffffffffffffffffffffff16141561139a57600c60008673ffffffffffffffffffffffffffffffffffffffff1673ffffffffffffffffffffffffffffffffffffffff1681526020019081526020016000206000601160009054906101000a900473ffffffffffffffffffffffffffffffffffffffff1673ffffffffffffffffffffffffffffffffffffffff1673ffffffffffffffffffffffffffffffffffffffff16815260200190815260200160002054601281905550600b60008673ffffffffffffffffffffffffffffffffffffffff1673ffffffffffffffffffffffffffffffffffffffff1681526020019081526020016000206000601160009054906101000a900473ffffffffffffffffffffffffffffffffffffffff1673ffffffffffffffffffffffffffffffffffffffff1673ffffffffffffffffffffffffffffffffffffffff1681526020019081526020016000206000601254815260200190815260200160002060000154601381905550610e2b8584610325565b5050600b60008673ffffffffffffffffffffffffffffffffffffffff1673ffffffffffffffffffffffffffffffffffffffff1681526020019081526020016000206000601160009054906101000a900473ffffffffffffffffffffffffffffffffffffffff1673ffffffffffffffffffffffffffffffffffffffff1673ffffffffffffffffffffffffffffffffffffffff1681526020019081526020016000206000601254815260200190815260200160002060020160009054906101000a900460ff16600a60006101000a81548160ff021916908315150217905550600a60009054906101000a900460ff16610f57576040517f08c379a0000000000000000000000000000000000000000000000000000000008152600401610f4e90612ddf565b60405180910390fd5b600a60009054906101000a900460ff1615611399578160135411156111a357601160009054906101000a900473ffffffffffffffffffffffffffffffffffffffff1673ffffffffffffffffffffffffffffffffffffffff1663095ea7b385846040518363ffffffff1660e01b8152600401610fd3929190612dff565b602060405180830381600087803b158015610fed57600080fd5b505af1158015611001573d6000803e3d6000fd5b505050506040513d601f19601f820116820180604052508101906110259190612e54565b50601160009054906101000a900473ffffffffffffffffffffffffffffffffffffffff1673ffffffffffffffffffffffffffffffffffffffff166323b872dd8587856040518463ffffffff1660e01b815260040161108593929190612e81565b602060405180830381600087803b15801561109f57600080fd5b505af11580156110b3573d6000803e3d6000fd5b505050506040513d601f19601f820116820180604052508101906110d79190612e54565b50816013546110e69190612caf565b600b60008773ffffffffffffffffffffffffffffffffffffffff1673ffffffffffffffffffffffffffffffffffffffff1681526020019081526020016000206000601160009054906101000a900473ffffffffffffffffffffffffffffffffffffffff1673ffffffffffffffffffffffffffffffffffffffff1673ffffffffffffffffffffffffffffffffffffffff1681526020019081526020016000206000601254815260200190815260200160002060000181905550611398565b81601354141561134757601160009054906101000a900473ffffffffffffffffffffffffffffffffffffffff1673ffffffffffffffffffffffffffffffffffffffff1663095ea7b3856013546040518363ffffffff1660e01b815260040161120c929190612dff565b602060405180830381600087803b15801561122657600080fd5b505af115801561123a573d6000803e3d6000fd5b505050506040513d601f19601f8201168201806040525081019061125e9190612e54565b50601160009054906101000a900473ffffffffffffffffffffffffffffffffffffffff1673ffffffffffffffffffffffffffffffffffffffff166323b872dd85876013546040518463ffffffff1660e01b81526004016112c093929190612e81565b602060405180830381600087803b1580156112da57600080fd5b505af11580156112ee573d6000803e3d6000fd5b505050506040513d601f19601f820116820180604052508101906113129190612e54565b5061134285601160009054906101000a900473ffffffffffffffffffffffffffffffffffffffff16601254611f53565b611397565b816013541015611396578160135411611395576040517f08c379a000000000000000000000000000000000000000000000000000000000815260040161138c90612f04565b60405180910390fd5b5b5b5b5b5b80806113a590612d39565b915050610bb1565b5050505050565b806000806101000a81548173ffffffffffffffffffffffffffffffffffffffff021916908373ffffffffffffffffffffffffffffffffffffffff16021790555060008054906101000a900473ffffffffffffffffffffffffffffffffffffffff16600260006101000a81548173ffffffffffffffffffffffffffffffffffffffff021916908373ffffffffffffffffffffffffffffffffffffffff1602179055506000600e60008773ffffffffffffffffffffffffffffffffffffffff1673ffffffffffffffffffffffffffffffffffffffff16815260200190815260200160002054905086600d60008873ffffffffffffffffffffffffffffffffffffffff1673ffffffffffffffffffffffffffffffffffffffff168152602001908152602001600020600083815260200190815260200160002060006101000a81548173ffffffffffffffffffffffffffffffffffffffff021916908373ffffffffffffffffffffffffffffffffffffffff1602179055506001600e60008873ffffffffffffffffffffffffffffffffffffffff1673ffffffffffffffffffffffffffffffffffffffff16815260200190815260200160002060008282546115789190612ce3565b925050819055506000600c60008873ffffffffffffffffffffffffffffffffffffffff1673ffffffffffffffffffffffffffffffffffffffff16815260200190815260200160002060008973ffffffffffffffffffffffffffffffffffffffff1673ffffffffffffffffffffffffffffffffffffffff1681526020019081526020016000205414156116975761161187878787876121af565b82600c60008873ffffffffffffffffffffffffffffffffffffffff1673ffffffffffffffffffffffffffffffffffffffff16815260200190815260200160002060008973ffffffffffffffffffffffffffffffffffffffff1673ffffffffffffffffffffffffffffffffffffffff16815260200190815260200160002081905550611f0e565b82600c60008873ffffffffffffffffffffffffffffffffffffffff1673ffffffffffffffffffffffffffffffffffffffff16815260200190815260200160002060008973ffffffffffffffffffffffffffffffffffffffff1673ffffffffffffffffffffffffffffffffffffffff16815260200190815260200160002054101561195e576000600c60008873ffffffffffffffffffffffffffffffffffffffff1673ffffffffffffffffffffffffffffffffffffffff16815260200190815260200160002060008973ffffffffffffffffffffffffffffffffffffffff1673ffffffffffffffffffffffffffffffffffffffff1681526020019081526020016000205490506000600b60008973ffffffffffffffffffffffffffffffffffffffff1673ffffffffffffffffffffffffffffffffffffffff16815260200190815260200160002060008a73ffffffffffffffffffffffffffffffffffffffff1673ffffffffffffffffffffffffffffffffffffffff1681526020019081526020016000206000600c60008b73ffffffffffffffffffffffffffffffffffffffff1673ffffffffffffffffffffffffffffffffffffffff16815260200190815260200160002060008c73ffffffffffffffffffffffffffffffffffffffff1673ffffffffffffffffffffffffffffffffffffffff168152602001908152602001600020548152602001908152602001600020600001549050600081876118bb9190612ce3565b90506118ca8a8a8a848a6121af565b6118d5898b85611f53565b85600c60008b73ffffffffffffffffffffffffffffffffffffffff1673ffffffffffffffffffffffffffffffffffffffff16815260200190815260200160002060008c73ffffffffffffffffffffffffffffffffffffffff1673ffffffffffffffffffffffffffffffffffffffff16815260200190815260200160002081905550505050611f0d565b82600c60008873ffffffffffffffffffffffffffffffffffffffff1673ffffffffffffffffffffffffffffffffffffffff16815260200190815260200160002060008973ffffffffffffffffffffffffffffffffffffffff1673ffffffffffffffffffffffffffffffffffffffff168152602001908152602001600020541115611c39576000600c60008873ffffffffffffffffffffffffffffffffffffffff1673ffffffffffffffffffffffffffffffffffffffff16815260200190815260200160002060008973ffffffffffffffffffffffffffffffffffffffff1673ffffffffffffffffffffffffffffffffffffffff168152602001908152602001600020549050611a7088888888886121af565b600b60008873ffffffffffffffffffffffffffffffffffffffff1673ffffffffffffffffffffffffffffffffffffffff16815260200190815260200160002060008973ffffffffffffffffffffffffffffffffffffffff1673ffffffffffffffffffffffffffffffffffffffff168152602001908152602001600020600085815260200190815260200160002060000154600b60008973ffffffffffffffffffffffffffffffffffffffff1673ffffffffffffffffffffffffffffffffffffffff16815260200190815260200160002060008a73ffffffffffffffffffffffffffffffffffffffff1673ffffffffffffffffffffffffffffffffffffffff16815260200190815260200160002060008381526020019081526020016000206000016000828254611ba09190612ce3565b92505081905550611bb2878986611f53565b80600c60008973ffffffffffffffffffffffffffffffffffffffff1673ffffffffffffffffffffffffffffffffffffffff16815260200190815260200160002060008a73ffffffffffffffffffffffffffffffffffffffff1673ffffffffffffffffffffffffffffffffffffffff1681526020019081526020016000208190555050611f0c565b82600c60008873ffffffffffffffffffffffffffffffffffffffff1673ffffffffffffffffffffffffffffffffffffffff16815260200190815260200160002060008973ffffffffffffffffffffffffffffffffffffffff1673ffffffffffffffffffffffffffffffffffffffff168152602001908152602001600020541415611f0b576000600c60008873ffffffffffffffffffffffffffffffffffffffff1673ffffffffffffffffffffffffffffffffffffffff16815260200190815260200160002060008973ffffffffffffffffffffffffffffffffffffffff1673ffffffffffffffffffffffffffffffffffffffff1681526020019081526020016000205490506000600b60008973ffffffffffffffffffffffffffffffffffffffff1673ffffffffffffffffffffffffffffffffffffffff16815260200190815260200160002060008a73ffffffffffffffffffffffffffffffffffffffff1673ffffffffffffffffffffffffffffffffffffffff1681526020019081526020016000206000838152602001908152602001600020600001549050611de089898989896121af565b80600b60008a73ffffffffffffffffffffffffffffffffffffffff1673ffffffffffffffffffffffffffffffffffffffff16815260200190815260200160002060008b73ffffffffffffffffffffffffffffffffffffffff1673ffffffffffffffffffffffffffffffffffffffff16815260200190815260200160002060008781526020019081526020016000206000016000828254611e809190612ce3565b9250508190555084600c60008a73ffffffffffffffffffffffffffffffffffffffff1673ffffffffffffffffffffffffffffffffffffffff16815260200190815260200160002060008b73ffffffffffffffffffffffffffffffffffffffff1673ffffffffffffffffffffffffffffffffffffffff1681526020019081526020016000208190555050505b5b5b5b50505050505050565b600c602052816000526040600020602052806000526040600020600091509150505481565b6000600760009054906101000a900460ff16905090565b6000600b60008573ffffffffffffffffffffffffffffffffffffffff1673ffffffffffffffffffffffffffffffffffffffff16815260200190815260200160002060008473ffffffffffffffffffffffffffffffffffffffff1673ffffffffffffffffffffffffffffffffffffffff1681526020019081526020016000206000838152602001908152602001600020600001819055506000600b60008573ffffffffffffffffffffffffffffffffffffffff1673ffffffffffffffffffffffffffffffffffffffff16815260200190815260200160002060008473ffffffffffffffffffffffffffffffffffffffff1673ffffffffffffffffffffffffffffffffffffffff1681526020019081526020016000206000838152602001908152602001600020600101819055506000600b60008573ffffffffffffffffffffffffffffffffffffffff1673ffffffffffffffffffffffffffffffffffffffff16815260200190815260200160002060008473ffffffffffffffffffffffffffffffffffffffff1673ffffffffffffffffffffffffffffffffffffffff168152602001908152602001600020600083815260200190815260200160002060020160006101000a81548160ff0219169083151502179055506000600c60008573ffffffffffffffffffffffffffffffffffffffff1673ffffffffffffffffffffffffffffffffffffffff16815260200190815260200160002060008473ffffffffffffffffffffffffffffffffffffffff1673ffffffffffffffffffffffffffffffffffffffff16815260200190815260200160002081905550505050565b60048114156121d4576121c5858584848761227a565b6121cf84836124e4565b612273565b6008811415612205576121ea858584848761227a565b612200848360026121fb9190612f24565b6124e4565b612272565b600c8114156122365761221b858584848761227a565b6122318483600461222c9190612f24565b6124e4565b612271565b6040517f08c379a000000000000000000000000000000000000000000000000000000000815260040161226890612fca565b60405180910390fd5b5b5b5050505050565b8473ffffffffffffffffffffffffffffffffffffffff166323b872dd8583866040518463ffffffff1660e01b81526004016122b793929190612e81565b602060405180830381600087803b1580156122d157600080fd5b505af11580156122e5573d6000803e3d6000fd5b505050506040513d601f19601f820116820180604052508101906123099190612e54565b5082600b60008673ffffffffffffffffffffffffffffffffffffffff1673ffffffffffffffffffffffffffffffffffffffff16815260200190815260200160002060008773ffffffffffffffffffffffffffffffffffffffff1673ffffffffffffffffffffffffffffffffffffffff16815260200190815260200160002060008481526020019081526020016000206000018190555042600b60008673ffffffffffffffffffffffffffffffffffffffff1673ffffffffffffffffffffffffffffffffffffffff16815260200190815260200160002060008773ffffffffffffffffffffffffffffffffffffffff1673ffffffffffffffffffffffffffffffffffffffff1681526020019081526020016000206000848152602001908152602001600020600101819055506000600b60008673ffffffffffffffffffffffffffffffffffffffff1673ffffffffffffffffffffffffffffffffffffffff16815260200190815260200160002060008773ffffffffffffffffffffffffffffffffffffffff1673ffffffffffffffffffffffffffffffffffffffff168152602001908152602001600020600084815260200190815260200160002060020160006101000a81548160ff0219169083151502179055505050505050565b6000670de0b6b3a7640000826124fa9190613019565b9050600260009054906101000a900473ffffffffffffffffffffffffffffffffffffffff1673ffffffffffffffffffffffffffffffffffffffff1663a0712d68826040518263ffffffff1660e01b815260040161255791906128a7565b600060405180830381600087803b15801561257157600080fd5b505af1158015612585573d6000803e3d6000fd5b50505050600260009054906101000a900473ffffffffffffffffffffffffffffffffffffffff1673ffffffffffffffffffffffffffffffffffffffff1663095ea7b384846040518363ffffffff1660e01b81526004016125e6929190612dff565b602060405180830381600087803b15801561260057600080fd5b505af1158015612614573d6000803e3d6000fd5b505050506040513d601f19601f820116820180604052508101906126389190612e54565b50600260009054906101000a900473ffffffffffffffffffffffffffffffffffffffff1673ffffffffffffffffffffffffffffffffffffffff166323b872dd60008054906101000a900473ffffffffffffffffffffffffffffffffffffffff1685856040518463ffffffff1660e01b81526004016126b893929190612e81565b602060405180830381600087803b1580156126d257600080fd5b505af11580156126e6573d6000803e3d6000fd5b505050506040513d601f19601f8201168201806040525081019061270a9190612e54565b50505050565b600080fd5b600073ffffffffffffffffffffffffffffffffffffffff82169050919050565b600061274082612715565b9050919050565b61275081612735565b811461275b57600080fd5b50565b60008135905061276d81612747565b92915050565b6000819050919050565b61278681612773565b811461279157600080fd5b50565b6000813590506127a38161277d565b92915050565b6000806000606084860312156127c2576127c1612710565b5b60006127d08682870161275e565b93505060206127e18682870161275e565b92505060406127f286828701612794565b9150509250925092565b61280581612773565b82525050565b60008115159050919050565b6128208161280b565b82525050565b61282f81612735565b82525050565b600060808201905061284a60008301876127fc565b61285760208301866127fc565b6128646040830185612817565b6128716060830184612826565b95945050505050565b6000602082840312156128905761288f612710565b5b600061289e8482850161275e565b91505092915050565b60006020820190506128bc60008301846127fc565b92915050565b600060c0820190506128d760008301896127fc565b6128e460208301886127fc565b6128f16040830187612826565b6128fe60608301866127fc565b61290b60808301856127fc565b61291860a08301846127fc565b979650505050505050565b6000806040838503121561293a57612939612710565b5b60006129488582860161275e565b925050602061295985828601612794565b9150509250929050565b60006020820190506129786000830184612826565b92915050565b6000806040838503121561299557612994612710565b5b60006129a38582860161275e565b92505060206129b48582860161275e565b9150509250929050565b600081519050919050565b600082825260208201905092915050565b6000819050602082019050919050565b6129f381612735565b82525050565b6000612a0583836129ea565b60208301905092915050565b6000602082019050919050565b6000612a29826129be565b612a3381856129c9565b9350612a3e836129da565b8060005b83811015612a6f578151612a5688826129f9565b9750612a6183612a11565b925050600181019050612a42565b5085935050505092915050565b600081519050919050565b600082825260208201905092915050565b6000819050602082019050919050565b612ab181612773565b82525050565b6000612ac38383612aa8565b60208301905092915050565b6000602082019050919050565b6000612ae782612a7c565b612af18185612a87565b9350612afc83612a98565b8060005b83811015612b2d578151612b148882612ab7565b9750612b1f83612acf565b925050600181019050612b00565b5085935050505092915050565b60006040820190508181036000830152612b548185612a1e565b90508181036020830152612b688184612adc565b90509392505050565b60008060008060808587031215612b8b57612b8a612710565b5b6000612b998782880161275e565b9450506020612baa8782880161275e565b9350506040612bbb8782880161275e565b9250506060612bcc87828801612794565b91505092959194509250565b60008060008060008060c08789031215612bf557612bf4612710565b5b6000612c0389828a0161275e565b9650506020612c1489828a0161275e565b9550506040612c2589828a0161275e565b9450506060612c3689828a01612794565b9350506080612c4789828a01612794565b92505060a0612c5889828a0161275e565b9150509295509295509295565b6000602082019050612c7a6000830184612817565b92915050565b7f4e487b7100000000000000000000000000000000000000000000000000000000600052601160045260246000fd5b6000612cba82612773565b9150612cc583612773565b925082821015612cd857612cd7612c80565b5b828203905092915050565b6000612cee82612773565b9150612cf983612773565b9250827fffffffffffffffffffffffffffffffffffffffffffffffffffffffffffffffff03821115612d2e57612d2d612c80565b5b828201905092915050565b6000612d4482612773565b91507fffffffffffffffffffffffffffffffffffffffffffffffffffffffffffffffff821415612d7757612d76612c80565b5b600182019050919050565b600082825260208201905092915050565b7f636865636b20746865206d6f6e74680000000000000000000000000000000000600082015250565b6000612dc9600f83612d82565b9150612dd482612d93565b602082019050919050565b60006020820190508181036000830152612df881612dbc565b9050919050565b6000604082019050612e146000830185612826565b612e2160208301846127fc565b9392505050565b612e318161280b565b8114612e3c57600080fd5b50565b600081519050612e4e81612e28565b92915050565b600060208284031215612e6a57612e69612710565b5b6000612e7884828501612e3f565b91505092915050565b6000606082019050612e966000830186612826565b612ea36020830185612826565b612eb060408301846127fc565b949350505050565b7f636865636b2074686520616d6f756e7421212100000000000000000000000000600082015250565b6000612eee601383612d82565b9150612ef982612eb8565b602082019050919050565b60006020820190508181036000830152612f1d81612ee1565b9050919050565b6000612f2f82612773565b9150612f3a83612773565b9250817fffffffffffffffffffffffffffffffffffffffffffffffffffffffffffffffff0483118215151615612f7357612f72612c80565b5b828202905092915050565b7f77726f6e67206d6f6e7468000000000000000000000000000000000000000000600082015250565b6000612fb4600b83612d82565b9150612fbf82612f7e565b602082019050919050565b60006020820190508181036000830152612fe381612fa7565b9050919050565b7f4e487b7100000000000000000000000000000000000000000000000000000000600052601260045260246000fd5b600061302482612773565b915061302f83612773565b92508261303f5761303e612fea565b5b82820490509291505056fea2646970667358221220e9edeeea3ed95b47c554430893efb3391d1c06c8fb5a8e91d84e63a33373427664736f6c63430008090033",
  "linkReferences": {},
  "deployedLinkReferences": {}
}